:020000040000fa
:080000000002040000000000f2
:020000040000fa
:0400080030060000be
:020000040000fa
:04000c0030060000ba
:020000040000fa
:0400100030060000b6
:020000040000fa
:0400140030060000b2
:020000040000fa
:0400180030060000ae
:020000040000fa
:04001c0030060000aa
:020000040000fa
:0400200030060000a6
:020000040000fa
:0400240030060000a2
:020000040000fa
:04002800300600009e
:020000040000fa
:04002c00300600009a
:020000040000fa
:040030003006000096
:020000040000fa
:040034006a0400005a
:020000040000fa
:04003800300600008e
:020000040000fa
:04003c00300600008a
:020000040000fa
:040040003006000086
:020000040000fa
:04004400c8020000ee
:020000040000fa
:04004800300600007e
:020000040000fa
:04004c00300600007a
:020000040000fa
:040050003006000076
:020000040000fa
:040054003006000072
:020000040000fa
:04005800300600006e
:020000040000fa
:04005c00300600006a
:020000040000fa
:040060003006000066
:020000040000fa
:040064003006000062
:020000040000fa
:04006800300600005e
:020000040000fa
:04006c00300600005a
:020000040000fa
:040070003006000056
:020000040000fa
:040074003006000052
:020000040000fa
:04007800300600004e
:020000040000fa
:04007c00300600004a
:020000040000fa
:040080003006000046
:020000040000fa
:040084003006000042
:020000040000fa
:04008800300600003e
:020000040000fa
:04008c00300600003a
:020000040000fa
:040090003006000036
:020000040000fa
:040094003006000032
:020000040000fa
:04009800300600002e
:020000040000fa
:04009c00300600002a
:020000040000fa
:0400a000e80500006f
:020000040000fa
:0400a4003006000022
:020000040000fa
:0400a800300600001e
:020000040000fa
:0400ac00300600001a
:020000040000fa
:0400b0003006000016
:020000040000fa
:0400b4003006000012
:020000040000fa
:0400b800300600000e
:020000040000fa
:0400bc00300600000a
:020000040000fa
:0400c0003006000006
:020000040000fa
:0400c4003006000002
:020000040000fa
:0400c80030060000fe
:020000040000fa
:0400cc0030060000fa
:020000040000fa
:0400d00030060000f6
:020000040000fa
:0400d40030060000f2
:020000040000fa
:0400d80030060000ee
:020000040000fa
:0400dc0030060000ea
:020000040000fa
:0400e00030060000e6
:020000040000fa
:0400e40030060000e2
:020000040000fa
:0400e80030060000de
:020000040000fa
:0400ec0030060000da
:020000040000fa
:0400f00030060000d6
:020000040000fa
:0400f40030060000d2
:020000040000fa
:0400f80030060000ce
:020000040000fa
:0400fc0030060000ca
:020000040000fa
:0401000030060000c5
:020000040000fa
:0401040030060000c1
:020000040000fa
:0401080030060000bd
:020000040000fa
:04010c0030060000b9
:020000040000fa
:0401100030060000b5
:020000040000fa
:0401140030060000b1
:020000040000fa
:0401180030060000ad
:020000040000fa
:04011c0030060000a9
:020000040000fa
:0401200030060000a5
:020000040000fa
:0401240030060000a1
:020000040000fa
:04012800300600009d
:020000040000fa
:04012c003006000099
:020000040000fa
:040130001e060000a7
:020000040000fa
:040134003006000091
:020000040000fa
:04013800300600008d
:020000040000fa
:04013c003006000089
:020000040000fa
:040140003006000085
:020000040000fa
:040144003006000081
:020000040000fa
:04014800300600007d
:020000040000fa
:04014c003006000079
:020000040000fa
:040150003006000075
:020000040000fa
:040154003006000071
:020000040000fa
:04015800300600006d
:020000040000fa
:04015c003006000069
:020000040000fa
:040160003006000065
:020000040000fa
:040164003006000061
:020000040000fa
:04016800300600005d
:020000040000fa
:0402080030060000bc
:020000040000fa
:04020c0030060000b8
:020000040000fa
:0402100030060000b4
:020000040000fa
:0402140030060000b0
:020000040000fa
:0402180030060000ac
:020000040000fa
:04021c0030060000a8
:020000040000fa
:0402200030060000a4
:020000040000fa
:0402240030060000a0
:020000040000fa
:04022800300600009c
:020000040000fa
:04022c003006000098
:020000040000fa
:040230003006000094
:020000040000fa
:040234006a04000058
:020000040000fa
:04023800300600008c
:020000040000fa
:04023c003006000088
:020000040000fa
:040240003006000084
:020000040000fa
:04024400c8020000ec
:020000040000fa
:04024800300600007c
:020000040000fa
:04024c003006000078
:020000040000fa
:040250003006000074
:020000040000fa
:040254003006000070
:020000040000fa
:04025800300600006c
:020000040000fa
:04025c003006000068
:020000040000fa
:040260003006000064
:020000040000fa
:040264003006000060
:020000040000fa
:04026800300600005c
:020000040000fa
:04026c003006000058
:020000040000fa
:040270003006000054
:020000040000fa
:040274003006000050
:020000040000fa
:04027800300600004c
:020000040000fa
:04027c003006000048
:020000040000fa
:040280003006000044
:020000040000fa
:040284003006000040
:020000040000fa
:04028800300600003c
:020000040000fa
:04028c003006000038
:020000040000fa
:040290003006000034
:020000040000fa
:040294003006000030
:020000040000fa
:04029800300600002c
:020000040000fa
:04029c003006000028
:020000040000fa
:0402a000e80500006d
:020000040000fa
:0402a4003006000020
:020000040000fa
:0402a800300600001c
:020000040000fa
:0402ac003006000018
:020000040000fa
:0402b0003006000014
:020000040000fa
:0402b4003006000010
:020000040000fa
:0402b800300600000c
:020000040000fa
:0402bc003006000008
:020000040000fa
:0402c0003006000004
:020000040000fa
:0402c4003006000000
:020000040000fa
:0402c80030060000fc
:020000040000fa
:0402cc0030060000f8
:020000040000fa
:0402d00030060000f4
:020000040000fa
:0402d40030060000f0
:020000040000fa
:0402d80030060000ec
:020000040000fa
:0402dc0030060000e8
:020000040000fa
:0402e00030060000e4
:020000040000fa
:0402e40030060000e0
:020000040000fa
:0402e80030060000dc
:020000040000fa
:0402ec0030060000d8
:020000040000fa
:0402f00030060000d4
:020000040000fa
:0402f40030060000d0
:020000040000fa
:0402f80030060000cc
:020000040000fa
:0402fc0030060000c8
:020000040000fa
:0403000030060000c3
:020000040000fa
:0403040030060000bf
:020000040000fa
:0403080030060000bb
:020000040000fa
:04030c0030060000b7
:020000040000fa
:0403100030060000b3
:020000040000fa
:0403140030060000af
:020000040000fa
:0403180030060000ab
:020000040000fa
:04031c0030060000a7
:020000040000fa
:0403200030060000a3
:020000040000fa
:04032400300600009f
:020000040000fa
:04032800300600009b
:020000040000fa
:04032c003006000097
:020000040000fa
:040330001e060000a5
:020000040000fa
:04033400300600008f
:020000040000fa
:04033800300600008b
:020000040000fa
:04033c003006000087
:020000040000fa
:040340003006000083
:020000040000fa
:04034400300600007f
:020000040000fa
:04034800300600007b
:020000040000fa
:04034c003006000077
:020000040000fa
:040350003006000073
:020000040000fa
:04035400300600006f
:020000040000fa
:04035800300600006b
:020000040000fa
:04035c003006000067
:020000040000fa
:040360003006000063
:020000040000fa
:04036400300600005f
:020000040000fa
:04036800300600005b
:020000040000fa
:10040000efa120000eff20000e0188000000000078
:10041000000020000000e000020032000001200087
:1004200020028800140007000f0207000000e0000f
:1004300003003a00208e2400010020000200370053
:100440000000200001002000810f70000100320038
:1004500014000700000020000000e000020032004d
:1004600000000200000000007e40020000000000ca
:100470000040da000000fe004440a9002090200067
:100480000000e0000300320000002000a00188000e
:100490004440a800000006008a1f78008b1f7800e7
:1004a0000000060091018800800478000000eb0045
:1004b0001a003700e284440032a0b4009905ba0063
:1004c000e284440032a0b4009906ba00e2844400f9
:1004d00032a0b4000006eb00476fde00fd07b2005b
:1004e000636ce10003003a00ebff07000000eb0043
:1004f0000a003700606ce10004003a00005deb0088
:100500008b05e900fdff3e00040037006168e10053
:10051000010032000086eb000b00070019c7ba008b
:100520001905ba000e04e00003003a000a00e000da
:10053000e0ff3a0000000600fe07b2009e018800be
:100540008a047800f5ff3700395dba008b05e900b1
:100550000c003200295dba008b05e900080032006a
:100560000c00e00003003a00e284440032a0b40032
:10057000f5ff370019ddba008b05e900faff3a00f4
:100580008904e800e184440032a0b40000000600c1
:100590003600f800809fbe00821f78000000fa003d
:1005a00050168000640060000000e0007900320016
:1005b00010168000700060000000e00002003a00a9
:1005c0006269ef001800370062c9bf000004e00054
:1005d00015003a0010c0b30062e9b700d8c9bf00e7
:1005e0000080fb00b103200080804000c003200099
:1005f00000017800110009008200d8008000fd0091
:10060000d04e8800d7c9bf000080fb00e900400041
:10061000c003200000017800110009008200d8000a
:100620008000fd00b040880050168000700060001f
:100630000000e00002003a006169ef001800370096
:1006400061c9bf000004e00015003a0010c0b3000b
:1006500061e9b700d8c9bf000080fb00b1032000ea
:1006600080804000c00320000001780011000900d4
:100670008200d8008000fd00d04e8800d7c9bf009e
:100680000080fb00e9004000c0032000000178006a
:10069000110009008200d8008000fd00b0408800f1
:1006a00010168000680060000000e00002003a00c0
:1006b0006069ef001800370060c9bf000004e00067
:1006c00015003a0010c0b30060e9b700d8c9bf00f8
:1006d0000080fb00b103200080804000c0032000a8
:1006e00000017800110009008200d8008000fd00a0
:1006f000d04e8800d7c9bf000080fb00e900400051
:10070000c003200000017800110009008200d80019
:100710008000fd00b040880010168000640060007a
:100720000000e00002003a005f69ef004700370078
:100730005fc9bf000004e00043003a0010c0b300ee
:100740005fe9b700d8c9bf000080fb00b1032000fb
:1007500080804000c00320000001780011000900e3
:100760008200d8008000fd00d04e8800d7c9bf00ad
:100770000080fb00e9004000c00320000001780079
:10078000110009008200d8008000fd00b040880000
:100790002e00370010168000640060000000e000aa
:1007a0000c003a0010168000680060000000e000b5
:1007b00008003a0050168000700060000000e00061
:1007c00004003a0010168000700060000000e00095
:1007d0001e003200ca42a80020c0b3005fe9b70083
:1007e00020c0b30060e9b70020c0b30061e9b700e2
:1007f00020c0b30062e9b700d8c9bf000080fb0089
:10080000b103200080804000c00320000001780078
:10081000110009008200d8008000fd00d04e880041
:10082000d7c9bf000080fb00e9004000c0032000e2
:1008300000017800110009008200d8008000fd004e
:10084000b04088000100370000000000d7c9bf0099
:100850008080fb00b0408000808f500017003a007d
:10086000d8c9bf008080fb00d04e8000808f500030
:1008700012003a0039c9bf00e34f500006003a00a9
:1008800039c9bf00e34f50000c003a0045c9bf0012
:100890000004e00009003a0039c9bf00e44f5000ed
:1008a0000600320065c9bf000004e00003003a0002
:1008b00010c0b30039e9b700ca42a90084e0a9001a
:1008c0000080fa004f0178004f00be003600f900aa
:1008d000004006003600f800809fbe00829fbe00e8
:1008e000849fbe00869fbe001c00fa000040eb0003
:1008f000004f7800ab0037001e4078007400b9004c
:10090000000078005047980000c0eb003047980086
:100910000040eb0010479800270037005e40900031
:100920008080fb001e4090000080fb008080400023
:100930007089200000804000904078005e40900068
:100940000081fb001e4090000080fb000001410080
:10095000808e2000000041001040780080cf5000c1
:10096000120032005e4090008080fb001e4090002c
:100970000080fb00008140005e4090008080fb0012
:100980001e4090000080fb0080804000808e200090
:1009900000804000904078007089200000004100f5
:1009a000014878000040eb00304798001e4090005e
:1009b0000040e800104798001e409000f34f5000a0
:1009c000d6ff36003e4090000004e00074003a007c
:1009d0005e4090008080fb00708920000080400015
:1009e000104078000004e0006d0032000040eb0091
:1009f000205f98000040eb00204798000f00370070
:100a00002e4090000080fb00de4090000181fb0042
:100a1000ae4090008180fb000101410071892000ff
:100a2000810041009140780000004700614098003b
:100a30002e4090000040e800204798002e40900093
:100a4000f34f5000eeff36000040eb0040479800a7
:100a50001e80fb00e10f50001c003200e10f50002f
:100a600003003c000000e000060032004c003700ac
:100a7000e20f500027003200e30f50003700320031
:100a80004700370020c0b300ba0507000800370050
:100a90004e4090000080fb00000047006040900046
:100aa000ce4090008140e80041479800c40507000f
:100ab0004e4090000080fb00000047006040900026
:100ac0000004e000f2ff3a003500370000ccb3002c
:100ad000a8050700080037004e4090000080fb008a
:100ae0000000470060409000ce4090008140e80048
:100af00041479800b20507004e4090000080fb007f
:100b000000004700604090000004e000f2ff3a005f
:100b10002300370040c9b3009605070008003700de
:100b20004e4090000080fb000000470060409000b5
:100b3000ce4090008140e80041479800a0050700a2
:100b40004e4090000080fb00000047006040900095
:100b50000004e000f2ff3a001100370040cdb3007e
:100b600084050700080037004e4090000080fb001d
:100b70000000470060409000ce4090008140e800b7
:100b8000414798008e0507004e4090000080fb0012
:100b900000004700604090000004e000f2ff3a00cf
:100ba0001e4fe8001e407800e34f500052ff360011
:100bb0008460a9000080fa004f03be004f02be000f
:100bc0004f01be004f00be003600f9000040060095
:100bd000809fbe000200fa003222a9000f003700f9
:100be000b0118000004f780073c9bf008080fb0007
:100bf00090962000008040001e48780073c9bf0016
:100c00000040e80073e9b70073c9bf00e94f500026
:100c10000200360090c0b30073e9b7009011800065
:100c2000610060000000e000edff3a0087c0a9000d
:100c30000080fa004f00be0000400600801f7800d0
:100c40000000fa0090118000901180003222a9006b
:100c50008c40a9000080fa004f0078000040060098
:100c60000040da000000fe00000005006022b8002d
:100c7000060220000000d0008180d2000482d20051
:100c80008582d2000000a0000202520083825a0036
:100c9000030031000202420083824a000000a100ea
:100ca0000603e900f3ff3a0000000600efff07002b
:100cb0000400be00000006008000780001007800fb
:100cc0003041780003c2b300834f5100faff320075
:100cd000e94f5100f8ff3200edc14100834f510050
:100ce00003003a008000780013c0b300050037000d
:100cf0008041eb00b4c2b300844f510001003a00c0
:100d0000800078000000eb00020037006a02b900a2
:100d1000040041003101fb000203b100e90f510062
:100d2000faff36000304e000010032000000ea0090
:100d300000000600889fbe008a1f780030447800bb
:100d40008004780001c2b300814f5400fbff3200e1
:100d5000e94f5400f9ff3200d0c2b300804f540075
:100d600003003a00394478001ac0b3000500370088
:100d70000045eb00b0c2b300804f540001003a00c0
:100d8000394478006000b8000a003700a200200053
:100d9000030020007000070002cdb30002414400b0
:100da0000281fb008001eb000200400083804800cc
:100db000394478000881fb000203b100e90f5100bb
:100dc000f2ff36000a04e00002003200600010006a
:100dd000e08018004f0578004f04be0000000600b8
:100de0000003780081027800850178000100370057
:100df00004037800110009008281d8008001780086
:100e00000602e8000300e000f9ff3a00034a780018
:100e1000110009008282d800000278008141780028
:100e200084027800e9cf510001003400e7c141009d
:100e300001c3b30001d341000400e000f4ff3a0015
:100e40000600780000000600881f78000004780083
:100e50000100e00005003d0008007800d3c2b300a7
:100e6000035878008100ea0001003700080078008c
:100e7000dbff0700080078004f0478000000060040
:100e8000889fbe008a9fbe008c9fbe0080057800b0
:100e90000204be00010578000200be000100370018
:100ea000820578006156b9000c01be006fff070093
:100eb0000b01e800e00f5000e08f5800f8ff3a0007
:100ec0000049eb000c01be000800be0077ff0700e0
:100ed000004578000c01be000800be0063ff07005b
:100ee0000004be00e94f550001003400674545008d
:100ef00000c3b30080554500e00f5400e08f5c0054
:100f0000f0ff3a000b0078004f06be004f05be0010
:100f10004f04be0000000600881f7800000478001f
:100f2000e00f5100e08f590006003d0008007800f6
:100f3000d4c2b3000458780060011100e0811900a8
:100f40000100370008007800cdff07000800780096
:100f50004f04780000000600020ab900001bb90027
:100f60000200b8008100420081004300000006003a
:020000040000fa
:100f700042610000636b00002020000055700000fb
:100f800020200000446f0000776e00002020000049
:100f9000202000004f4b0000004200006163000071
:100fa0006b2000002055000070200000205400003d
:100fb0006f7000002020000020200000204f000063
:100fc0004b00000042610000636b00002020000025
:100fd0005570000020200000446f0000776e000074
:100fe00020200000536100007665000000450000ed
:100ff000525200004f5200002034000030340000f4
:101000003a0000004d6500006e750000206e000083
:101010006f740000206600006f7500006e640000b1
:10102000004400006562000075670000204d00006c
:10103000656e000075000000526500006d610000e3
:10104000696e0000696e0000673a0000002500002c
:10105000200000004375000072720000656e000001
:10106000742000004c6f0000616400003a00000032
:101070002057000000540000696d0000652000004a
:101080006c650000667400003a0000004d650000c9
:101090006e750000202000002053000077610000e2
:1010a00070200000202000004465000074610000f2
:1010b000696c0000004c000065660000743a000096
:1010c000200000002f0000005768000020520000a0
:1010d000656d0000616900006e6900006e670000c8
:1010e0003a20000020200000202000000025000001
:1010f000204c00006f610000643a000020200000d6
:1011000020200000202000002000000020570000c8
:10111000204d0000656e00007520000020200000ba
:1011200020200000202000002020000020200000bf
:101130004261000073690000630000005761000015
:10114000726e0000696e0000673a0000204c0000db
:101150006f770000207000006f770000657200005c
:10116000212000004f6e00006c790000200000007c
:1011700025200000726500006d610000696e0000ae
:10118000696e0000672e0000202000002020000073
:10119000202000002020000020200000202000004f
:1011a000202000002020000020200000202000003f
:1011b0002020000020200000204300006c6500007b
:1011c00061720000204100006c610000726d00003f
:1011d0002020000020200000200000004d610000c1
:1011e000696e0000204d0000656e00007520000053
:1011f0002020000020200000312000006f66000049
:10120000203600002a200000416c000061720000be
:101210006d2000004f700000746900006f6e0000c8
:10122000732000002020000020200000202000006b
:10123000416400006d6900006e2000004d650000f3
:101240006e750000004d0000616900006e20000016
:101250004d6500006e750000202000002020000079
:1012600020320000206f000066200000362a0000b7
:1012700020410000646d0000696e0000204d0000f8
:10128000656e000075200000202000002020000076
:101290002020000020200000204d00006f6400008e
:1012a000756c000065730000200000004d610000b7
:1012b000696e0000204d0000656e00007520000082
:1012c0002020000020200000332000006f66000076
:1012d000203600002a2000004d6f000064750000d9
:1012e0006c6500007320000020200000202000001a
:1012f00020200000202000002020000020200000ee
:101300005374000061740000697300007469000088
:1013100063730000004d0000616900006e20000052
:101320004d6500006e7500002020000020200000a8
:1013300020340000206f000066200000362a0000e4
:101340002053000074610000746900007374000091
:1013500069630000732000002020000020200000ae
:101360002020000020200000204c000061730000bd
:1013700074200000506f00007765000072200000ac
:1013800046610000696c0000757200006500000095
:101390004d610000696e0000204d0000656e000088
:1013a00075200000202000002020000035200000d3
:1013b0006f660000203600002a2000004c6100000b
:1013c00073740000205000006f7700006572000009
:1013d00020460000616900006c7500007265000025
:1013e00020200000416200006f75000074000000c2
:1013f0004d610000696e0000204d0000656e000028
:101400007520000020200000202000003620000071
:101410006f66000020360000202000004c610000b4
:1014200073740000205000006f77000065720000a8
:1014300020460000616900006c75000072650000c4
:101440002a200000416200006f7500007400000057
:10145000416c0000617200006d2000004f700000c0
:10146000746900006f6e00007320000031200000de
:101470006f660000203300002a2000004175000044
:1014800064690000626c000065200000416c00008f
:10149000617200006d200000200000004f6e00000f
:1014a000200000004f6600006600000020200000c1
:1014b000416c0000617200006d20000031200000ce
:1014c000506f0000776500007220000020000000cf
:1014d00025000000416c0000617200006d200000da
:1014e0004f700000746900006f6e000073200000f0
:1014f000322000006f660000203300002a20000028
:10150000416c0000617200006d200000312000007d
:10151000506f00007765000072200000200000007e
:1015200020200000416c0000617200006d2000006e
:1015300032200000506f000077650000722000002c
:1015400020000000416c0000617200006d2000006e
:101550004f700000746900006f6e0000732000007f
:10156000322000006f660000203300002a200000b7
:10157000416c0000617200006d200000312000000d
:10158000506f0000776500007220000000410000ed
:101590006c610000726d0000204f0000707400004c
:1015a000696f00006e73000020330000206f0000a0
:1015b0006620000033200000204100006c61000024
:1015c000726d000020310000205000006f77000095
:1015d0006572000020200000002a00002041000069
:1015e0006c610000726d000020320000205000008d
:1015f0006f7700006572000020200000002a0000c4
:10160000204100006c610000726d0000203200007b
:10161000205000006f77000065720000200000007d
:101620005965000073740000657200006461000079
:1016300079270000732000007573000061670000c7
:10164000653a0000202000000020000057680000dc
:10165000546f0000746100006c200000757300007e
:1016600061670000653a0000002000006b57000031
:10167000680000004c6100007374000020500000fe
:101680006f7700006572000020460000616900006d
:101690006c7500007265000020200000004c000006
:1016a0006f73000074200000202000002020000044
:1016b0000052000065730000746f00007265000046
:1016c0006420000000420000616300006b00000025
:1016d000506f00007765000072200000436f00002b
:1016e000646500003a2000000044000069730000b7
:1016f00070200000436f0000646500003a20000085
:101700002000000032300000313900003035000088
:101710003239000000200000204d000065730000f9
:101720007369000061680000204300006f6c0000d6
:101730006c6500006765000020200000202000008c
:1017400020200000436f00006c6c0000616200000c
:101750006f720000617400006f7200007920000059
:101760002020000020000000416400006d6900009e
:101770006e6900007374000072610000746f0000f5
:10178000722000004c6f0000676900006e000000ce
:101790005f2000005f2000005f2000005f2000004d
:1017a0005f2000005f0000002a2000005f20000092
:1017b0005f2000005f2000005f2000005f0000004d
:1017c0002a2000002a2000005f2000005f20000087
:1017d0005f2000005f0000002a2000002a20000097
:1017e0002a2000005f2000005f2000005f00000052
:1017f0002a2000002a2000002a2000002a200000c1
:101800005f2000005f0000002a2000002a20000066
:101810002a2000002a2000002a2000005f0000008b
:1018200020200000202000002031000020200000a7
:101830002020000020320000202000002020000096
:101840002020000033200000202000002020000085
:1018500034000000416400006d6900006e2000004b
:101860004d6500006e750000202000002020000063
:10187000312000006f660000203600002a200000a2
:101880005365000074200000546900006d6500007d
:101890002f4400006174000065200000202000003b
:1018a000202000002020000053650000742000006c
:1018b000506f00007765000072200000416c00004e
:1018c0006c6f000063000000416400006d6900005f
:1018d0006e2000004d6500006e75000020200000a5
:1018e00020200000322000006f660000203600003b
:1018f0002a2000005365000074200000506f000093
:101900007765000072200000416c00006c6f0000e1
:10191000632000002020000020200000456d000012
:1019200065720000676500006e63000079200000aa
:101930004f700000746900006f6e000073000000bb
:10194000416400006d6900006e2000004d650000dc
:101950006e750000202000002020000033200000d1
:101960006f660000203600002a200000456d000050
:1019700065720000676500006e630000792000005a
:101980004f700000746900006f6e0000732000004b
:101990002020000043680000616e000067650000c1
:1019a0002050000061730000737700006f72000028
:1019b00064000000416400006d6900006e200000ba
:1019c0004d6500006e750000202000002020000002
:1019d000342000006f660000203600002a2000003e
:1019e00043680000616e0000676500002050000041
:1019f00061730000737700006f72000064200000c4
:101a0000202000002020000043680000616e0000dc
:101a100067650000205200006573000065740000d7
:101a200020540000696d0000650000004164000062
:101a30006d6900006e2000004d6500006e750000ad
:101a40002020000020200000352000006f660000ec
:101a5000203600002a20000043680000616e00006c
:101a60006765000020520000657300006574000087
:101a700020540000696d0000652000002020000057
:101a8000526500006c61000079200000436f000087
:101a90006e740000726f00006c0000004164000072
:101aa0006d6900006e2000004d6500006e7500003d
:101ab0002020000020200000362000006f6600007b
:101ac000203600002020000043680000616e000006
:101ad0006765000020520000657300006574000017
:101ae00020540000696d0000652000002a200000dd
:101af000526500006c61000079200000436f000017
:101b00006e740000726f00006c00000053650000ee
:101b100074200000546900006d6500002f4400002f
:101b2000617400006500000042610000636b00000a
:101b3000202000005570000020200000446f0000ad
:101b4000776e0000202000004e65000078740000d1
:101b50000053000065740000205000006f77000003
:101b600065720000204100006c6c00006f63000093
:101b700061740000696f00006e200000200000000a
:101b800020570000682000007065000072200000ef
:101b90006461000079000000526500007365000078
:101ba00074740000696e0000672000005265000038
:101bb0007365000074200000546900006d6500002a
:101bc0000020000000530000657400002052000057
:101bd000657300006574000020540000696d00000a
:101be00065000000456d000065720000676500003b
:101bf0006e630000792000004f70000074690000df
:101c00006f6e000073200000202000002a200000da
:101c1000456d0000657200002042000075740000f0
:101c2000746f00006e2000002020000020000000e3
:101c300020200000456d000065720000204100007a
:101c40006c6c00006f630000204e00006f77000096
:101c500020200000004500006d6500007267000054
:101c6000656e000063790000204f00007074000072
:101c7000696f00006e73000020200000202000002b
:101c8000204500006d6500007220000042750000d4
:101c9000747400006f6e00002020000020200000ff
:101ca000002a0000204500006d6500007220000041
:101cb000416c00006c6f0000632000004e6f00005c
:101cc00077200000004500006d650000726700008d
:101cd000656e000063790000204f00007074000002
:101ce000696f00006e73000020200000202a0000b1
:101cf000204500006d650000722000004275000064
:101d0000747400006f6e00002020000020000000ae
:101d100020200000456d0000657200002041000099
:101d20006c6c00006f630000204e00006f770000b5
:101d3000200000002a200000456d000065720000b0
:101d4000204100006c6c00006f630000204e00001a
:101d50006f770000004d00006f640000756c00009c
:101d600065730000205000006c6100006365000096
:101d7000686f00006c6400006572000020200000a5
:101d80002020000000480000696700006820000073
:101d90002020000020200000202000002020000043
:101da000202000002020000020200000004c000027
:101db0006f7700002020000020200000202000007d
:101dc00020200000202000002020000020420000f1
:101dd000616300006b20000020480000696700007c
:101de00068200000204c00006f77000020200000d9
:101df000204f00004b000000526500006c610000a5
:101e000079200000467500006e63000074690000d0
:101e10006f6e0000616c00006974000079000000c2
:101e20004f6e000000420000616300006b20000064
:101e3000202000004f6e000020200000204f0000f6
:101e40006666000020200000204f00004b000000cc
:101e5000496e0000766100006c690000642000009b
:101e60006461000074650000206500006e7400006d
:101e70006572000065640000005200006574000097
:101e8000757200006e000000436f00006e74000069
:101e9000696e0000756900006e6700002077000021
:101ea000696c00006c200000202000002020000051
:101eb000636100007573000065200000706f000012
:101ec0007765000072200000746f0000207300002e
:101ed00068750000742000006f6600006620000036
:101ee000696d00006d6500006469000061740000a8
:101ef000656c0000792100002020000020200000f7
:101f00005265000074750000726e00002020000011
:101f10002020000020200000436f00006e740000ad
:101f2000696e000075650000004500006e740000d9
:101f300065720000206e00006577000020700000d0
:101f400061730000737700006f720000643a000054
:101f5000003100002020000020200000203200007e
:101f6000202000002020000020200000332000005e
:101f7000202000002020000034000000436c0000fe
:101f80006561000072200000202000002020000079
:101f900020200000202000002020000053610000cd
:101fa000766500000049000073200000697400009d
:101fb000206100006674000065720000207400005b
:101fc0006865000020200000202000002072000032
:101fd000657300006574000020740000696d0000e6
:101fe000653f0000002000002800000028000000dd
:101ff0003a000000330000003000000030290000eb
:10200000202000002020000020200000204e0000a2
:102010006f20000020200000202000002020000071
:1020200020200000202000002020000020200000b0
:102030005965000073000000454e00004400000098
:102040005365000074000000546900006d650000d5
:10205000004300006f6e000066000000456e000047
:10206000416c0000004100006c610000726d0000d6
:10207000005000006173000073000000456d000017
:102080006572000000520000737400005469000083
:102090006d000000526500006c61000079000000d6
:1020a0005374000061740000004300004276000099
:1020b0006572000000500000777200004661000069
:1020c000696c00000050000077720000446100005d
:1020d0007461000000430000616c00006962000050
:1020e0007261000074650000004500006e5500003c
:1020f0007365000064000000526500006164000028
:102100000044000061740000610000004c450000c4
:1021100044420000004f00006e0000004f660000c7
:102120006600000057610000747400007300000036
:10213000566f00006c74000073000000416d0000d9
:1021400070730000005000005356000065720000dc
:10215000736900006f6e0000004100006c6c0000ad
:10216000416400006400000073650000740000001a
:042170002e0000003d
:020000040000fa
:102174000400fa00204798002e4090006f4f600042
:102184002e4090000080fb004400de0010479800c1
:102194001e4090006d000700cb02a9002700070035
:1021a4001e4078006900070024000700200020007a
:1021b400c91b07000080fa00000006000400fa00b2
:1021c400204798002e4090006f4f60002e409000f2
:1021d4000080fb004400de00104798001e40900081
:1021e4005a000700cb02a800140007001e40780024
:1021f40056000700110007000080fa0000000600e6
:102204000400fa00100798009e009000010f780067
:10221400040037001e007800104078001e0fe8000c
:10222400e6ff07001e007800104078000004e0007c
:10223400f8ff3a000080fa00000006000000fa00ef
:10224400cb22a80010002000971b0700cb22a90076
:102254000080fa00000006000200fa000040eb00d3
:102264003a000700400620009b1b070030c0b30063
:1022740036000700e0012000971b0700efff07006e
:10228400a0002000941b0700ecff0700a000200022
:10229400911b0700e9ff0700a00020008e1b070028
:1022a40020c0b30029000700e4ff070080c2b30088
:1022b400afff070000c1b300adff0700c0c0b3000b
:1022c400abff070060c0b300a9ff0700c0c0b300a4
:1022d400a7ff070010c0b300a5ff070020002000df
:1022e4007d1b070020c0b300a1ff0700e0c7b300b7
:1022f40040e9b7004169ef00ca42a8000040eb0082
:10230400004f78000b0037009e80fb00708920008e
:102314000080400001c2b300014878009e80fb00a9
:10232400808e20000080400001c2b3000148780084
:102334001e4fe800f0c4b3009e40780080cf5000e8
:10234400f1ff36000080fa00000006000200fa00e7
:10235400004f78009e40780061c0600061406000da
:10236400614060000080fb00610060004c00dd0003
:102374005116800001c0a1000100700050168800b1
:102384001e80fb000000d100004f78009e407800c2
:1023940061c0600061406000614060000080fb003b
:1023a400610060004d00dd005116800001d0a100e5
:1023b40001007000501688001e80fb000000d10050
:1023c400004f78009e40780061c06000614060006a
:1023d400614060000080fb00610060004e00dd0091
:1023e4005116800001e0a100010070005016880021
:1023f4001e80fb000000d100004f78009e40780052
:1024040061c0600061406000614060000080fb00ca
:102414004f00dd005116800001f0a10001007000a2
:10242400501688000080fa00000006000a00fa0036
:1024340030079800014f9800124f9800be0090009a
:10244400010f7800be009000110798000040eb00d7
:10245400404798000040eb00504798001e48900009
:102464000004e00050003d001e4890000040ea00d7
:10247400104f9800030037005e4090000040e800d1
:10248400504798001e009000104078000080fb0028
:102494000000ea004f00de00004078009e0090003b
:1024a4008100e800110798000004e000f2ff3a0000
:1024b4000040eb00404798000c0037000e489000a5
:1024c4008080fb004e4090000000fb0080804000b4
:1024d400808e20000080400001c2b30001487800d3
:1024e4004e4090000040e800404798004e40900065
:1024f4008000fb001e4890000001fb005e4090003d
:102504000000fb0000005100808f5000ebff3500fd
:102514000e0037000e4890008080fb004e40900073
:102524000000fb00008140001e007800904078000d
:10253400808e200000004100014878004e40900049
:102544000040e800404798001e0fe8001e00780095
:10255400104078000004e000eeff3a003500370038
:102564000e4890008080fb004e4090000000fb006d
:10257400008140001e00780090407800808e20008a
:1025840000004100014878004e4090000040e800ff
:10259400404798001e0fe8005e4090000040e800ad
:1025a4005047980001003700000000001e0078002a
:1025b400104078000004e000e9ff3a001e48900053
:1025c4000004e0001b0034000040eb00404798008a
:1025d4000f0037000e4890008080fb005e409000a2
:1025e4000000fb00808040004e4090000000fb0093
:1025f40080804000808e20000080400001c2b30033
:10260400014878004e4090000040e80040479800a0
:102614004e4090008000fb001e4890000001fb002b
:102624005e4090000000fb0000005100808f5000cd
:10263400e8ff35000080fa00000006000000fa0000
:1026440039c9bf000080fb006101b9000080eb00c4
:102654008080eb000200400083804800720c200060
:1026640003002000820f5000838f580015013e00a4
:1026740000600100c9003700ca003700cb003700f2
:10268400c4003700cb003700cc003700cd00370042
:10269400ce003700cf003700d0003700d10037001c
:1026a400d2003700d3003700d4003700d5003700fc
:1026b4000401370003013700d4003700d500370088
:1026c400d6003700d7003700d8003700d9003700cc
:1026d400da003700db003700dc003700dd003700ac
:1026e400de003700df003700e0003700e10037008c
:1026f400e2003700ef003700e2003700e300370064
:10270400e4003700e5003700ee003700ed00370045
:10271400ec003700eb003700ea003700e90037002f
:10272400e8003700e7003700e6003700e50037002f
:10273400e4003700e3003700e2003700e10037002f
:10274400e0003700df003700de003700dd0037002f
:10275400dc003700db003700da003700d90037002f
:10276400d8003700d7003700d6003700d50037002f
:10277400d4003700d3003700d2003700d10037002f
:10278400d0003700cf003700ce003700cd0037002f
:10279400cc003700cb003700ca003700c90037002f
:1027a400c8003700c7003700c6003700c50037002f
:1027b400c4003700c3003700c2003700c10037002f
:1027c400c0003700bf003700be003700bd0037002f
:1027d400bc003700bb003700ba003700b90037002f
:1027e400b8003700b7003700b6003700b50037002f
:1027f400b4003700b3003700b2003700b10037002f
:10280400a8003700a9003700ae003700ad0037003c
:10281400ac003700ab003700aa003700a90037002e
:10282400a8003700a7003700a6003700a50037002e
:10283400a4003700a3003700a2003700a10037002e
:10284400a00037009f0037009e0037009d0037002e
:102854009c0037009b0037009a003700990037002e
:10286400980037009700370096003700950037002e
:10287400940037009300370092003700910037002e
:10288400900037008f0037008e0037008d0037002e
:102894008c0037008b0037008a003700890037002e
:1028a400880037008700370086003700850037002e
:1028b400840037008300370082003700810037002e
:1028c400800037007f0037007e0037007d0037002e
:1028d4007c0037007b0037007a003700790037002e
:1028e400780037007700370076003700750037002e
:1028f400740037007300370072003700710037002e
:10290400700037006f0037006e0037006d0037002d
:102914006c0037006b0037006a003700690037002d
:10292400680037006700370066003700650037002d
:10293400640037006300370062003700610037002d
:10294400600037005f0037005e0037005d0037002d
:102954005c0037005b0037005a003700590037002d
:10296400580037005700370056003700550037002d
:10297400540037005300370052003700510037002d
:10298400500037004f0037004e0037004d0037002d
:102994004a003700ae0007004b003700b8000700bc
:1029a40049003700a101070047003700f60107007e
:1029b4004500370023020700430037003b020700ad
:1029c40041003700550207003f003700920207001c
:1029d4003d003700a80207003b003700bf02070094
:1029e40039003700d6020700370037001803070004
:1029f400350037005f03070033003700dd030700ad
:102a040031003700240407002f003700e8040700d2
:102a14002d003700020507002b003700980507003a
:102a240029003700be05070027003700e40507002a
:102a340025003700f60507002300370027060700a6
:102a440021003700410607001f0037005c0607001d
:102a54001d0037004f0707001b003700360807002a
:102a640019003700bb08070017003700ee080700fd
:102a7400150037001c090700130037007c09070004
:102a840011003700cb0907000f003700210a0700a7
:102a94000d003700800407000b003700a404070072
:102aa400090037005a0a0700070037006d0a0700bb
:102ab400050037008b0a070003003700330b0700bb
:102ac40001003700460007000080fa0000000600fd
:102ad4000400fa00004f780011479800224798003c
:102ae400334798001e4078000004e00002003a00da
:102af40039c9bf00004f78001e4090000004e00078
:102b040002003a0039c9bf00104798002e409000d7
:102b14000004e00002003a0039c9bf0020479800d1
:102b24003e4090000004e00002003a0039c9bf00b2
:102b3400304798005fc9bf00e14f500007003a00da
:102b44001e40780039e9b7005fc9bf000040e800c3
:102b54005fe9b7000040eb001f00370060c9bf0009
:102b6400e14f500007003a001e40900039e9b700d9
:102b740060c9bf000040e80060e9b70010c0b300be
:102b84001500370061c9bf00e14f500007003a004b
:102b94002e40900039e9b70061c9bf000040e80049
:102ba40061e9b70020c0b3000b00370062c9bf0061
:102bb400e14f500007003a003e40900039e9b70069
:102bc40062c9bf000040e80062e9b70030c0b3004a
:102bd4000100370000c0eb000080fa00000006008e
:102be4000a00fa0013c0b30012c0b30011c0b3004e
:102bf40010c0b300b6ff070039c9bf000080fb0056
:102c0400000f780039c9bf008080fb000e80e80007
:102c1400a20020008bf8070042c1b3008040eb0003
:102c2400707f280001fe070092c3b30041c1b300c6
:102c340020802800fdfd07000e80e800d2cfb300fd
:102c4400d1c4b300f9fd07000080fa0000000600bb
:102c54000000fa0013c0b3000041eb008040eb0019
:102c64000040eb009aff070042c1b3008040eb0034
:102c740010812800edfd07000080fa000000060026
:102c84002800fa0023c0b3000041eb008040eb00b1
:102c940050c0b3008eff07000000fb000000e000fe
:102ca400050032000000e00008003500e20f50008b
:102cb40006003c00020037009a13070003003700a7
:102cc4005ac8bf000040e8005ae8b7005016800018
:102cd400640060000000e00008003a00d8c9bf00aa
:102ce4008080fb00d0cc2c000008b8004308de0034
:102cf40000407800614060005ae8b70023180700dc
:102d0400f11607005ac8bf00e14f5000010034001b
:102d14005a68ef0000c2b300004f7800d6c9bf0064
:102d24008080fb00d0cc2c000008b8004308de00f3
:102d3400004078000043b00010479800d6c9bf0097
:102d44000081fb00d0cc2c000010b8004308de004a
:102d54006a00b900000078000000510000407800cb
:102d64000043b00020479800a0c3b3003047980048
:102d7400d7c9bf008080fb00d0cc2c000008b8006d
:102d84004308de00004078000043b000404798004c
:102d9400d7c9bf000081fb00d0cc2c000010b800c4
:102da4004308de006a00b90000007800000051000a
:102db400004078000043b00050479800a0c3b3001f
:102dc40060479800d8c9bf008080fb00d0cc2c009d
:102dd4000008b8004308de00004078000043b0005b
:102de40070479800d8c9bf000081fb00d0cc2c00ec
:102df4000010b8004308de006a00b9000000780043
:102e040000005100004078000043b000004f9800db
:102e140000c2b300104f980000c2b300204f9800c6
:102e2400d4c9bf008080fb00d0cc2c000008b800bf
:102e34004308de00004078000043b000304f9800a3
:102e4400d4c9bf000081fb00d0cc2c000010b80016
:102e54004308de006a00b900000078000000510059
:102e6400004078000043b000404f9800f0c2b30027
:102e7400504f9800d3c9bf008080fb00d0cc2c00f9
:102e84000008b8004308de00004078000043b000aa
:102e9400604f9800d3c9bf000081fb00d0cc2c0048
:102ea4000010b8004308de006a00b9000000780092
:102eb40000005100004078000043b000704f9800bb
:102ec400f0c2b30000579800d2c9bf008080fb0055
:102ed400d0cc2c000008b8004308de000040780085
:102ee4000043b00010579800d2c9bf000081fb0016
:102ef400d0cc2c000010b8004308de006a00b900f2
:102f04000000780000005100004078000043b00049
:102f14002057980000c2b300305798000040eb00df
:102f2400405798000041eb008040eb000e00780011
:102f34003efd07005ac8bf000004e00017003a0035
:102f44005ec9bf008000fb0075004700a20020009e
:102f5400bcf70700f2c0b30041c1b300c081280030
:102f640032fd070075004700d2cfb30031c2b30071
:102f74002efd07000041eb0061c2b30070822800ff
:102f84002afd0700410a07000041eb0081c2b3009b
:102f9400b085200025fd070019003700324a800063
:102fa400434a80007c004700a1002000b3f70700db
:102fb4000041eb0041c1b300a08228001bfd0700c3
:102fc4007c004700b2cfb30011c2b30017fd070065
:102fd4000041eb0061c2b3008083280013fd0700a9
:102fe400c2c0b30081c2b300b08328000ffd070044
:102ff4000041eb0041c3b300e08820000bfd070053
:103004000041eb00c1c3b3006084280007fd070042
:103014003dc9bf000004e00002003a0010c0b30044
:103024003de9b7000080fa00000006002800fa001d
:1030340013c0b3000041eb008040eb0050c0b3006c
:10304400a3fe07000000fb000000e00001003a00be
:10305400b41207004d1707001b160700704a8000c2
:10306400814a800000017800504a8000614a800053
:103074000000780000005100000f78001e00780066
:103084000000e00002003d000000eb00000f7800ab
:103094000041eb008040eb00b0852800e3fc070012
:1030a4000e80e800a20020009e00780065f707006b
:1030b400724a8000834a800069004700a100200012
:1030c40094f707005ec9bf008000fb00750047004d
:1030d400a20020005bf70700324a8000434a8000c8
:1030e4007c004700a100200064f707000e80e80080
:1030f400b2cfb30061c0b300ccfc07000041eb00c9
:10310400b1c0b30020862800c8fc0700690047004e
:10311400b2cfb300c1c0b300c4fc07000041eb0050
:1031240011c1b30040862800c0fc070075004700a9
:10313400d2cfb30031c2b300bcfc07000041eb00a6
:1031440061c2b30070872800b8fc07007c00470008
:10315400b2cfb30041c3b300b4fc07000041eb009d
:1031640091c3b30060882800b0fc07003dc9bf00cc
:103174000004e00002003a0010c0b3003de9b700cb
:103184000080fa00000006000800fa008041eb000d
:103194000041eb008040eb000040eb004cfe0700d8
:1031a4000000fb0060004000e30f500011003e00ef
:1031b4003ac9bf0039e9b7003ec9bf00e14f50002a
:1031c40002003a0010c0b30043e9b7003ec9bf0093
:1031d400e24f500002003a0010c0b30044e9b700c7
:1031e4004569ef0045c9bf003ee9b7003ec9bf00cd
:1031f4003fe9b7005ec9bf000000fb00a200200049
:10320400800078000e0078000ef707000041eb0004
:103214008040eb00e089280084fc0700e2cfb30083
:1032240091c1b3000e00780080fc07000041eb0060
:10323400b1c1b300808b28007cfc07000080fa0039
:10324400000006000000fa00b3c0b30062c0b3007f
:10325400a1c0b30010c0b3001dfe07000000fb00b6
:10326400e10f500003003200e20f5000030032006f
:10327400030037003b130700010037006f120700fb
:10328400c2c3b3008040eb00e08e280067fc070057
:103294000041eb00c1c3b300807b280063fc07003e
:1032a4003d69ef000080fa00000006000000fa000b
:1032b40033c1b30072c0b30051c0b30010c0b30037
:1032c40003fe07000000fb00e20f5000080032007c
:1032d400e30f500004003200e10f500005003a00f3
:1032e40010120700030037005968ef00010037008f
:1032f40000000000c2c3b3008040eb0030922800fd
:103304004afc07000041eb00c1c3b300807b2800e6
:1033140046fc07000080fa00000006000000fa00e6
:10332400889fbe0023c2b30082c0b30061c0b30053
:1033340010c0b300e6fd07000000fb00e20f5000e0
:1033440006003200e30f500006003200e10f500087
:1033540026003a003912070024003700f012070053
:10336400220037001ccabf001ce8b700b04a800026
:10337400c14a8000e00f5000e08f58001b003a0063
:10338400704a8000814a8000b04a8800c14a88009f
:10339400704a8000814a80006309b9000201780004
:1033a4006002b90084017800030141003300200069
:1033b4000300b8000101410082007800e00f5000d2
:1033c400e08f580002003d0063004000e0804800a8
:1033d4004e09dd004204de0008047100c28cde00e8
:1033e4000800be00904a8800a14a8800c2c3b30006
:1033f4008040eb00609528000cfc07000041eb00c6
:10340400c1c3b300807b280008fc07004f04be0042
:103414000080fa00000006000000fa0043c2b30076
:1034240092c0b30071c0b30010c0b300a8fd070080
:103434000000fb00e10f500004003200e20f5000d6
:1034440003003a00d8120700010037000000000012
:10345400c2c3b3008040eb00b0982800f3fb070020
:103464000041eb00c1c3b300807b2800effb0700e1
:103474000080fa00000006000000fa0053c2b30006
:10348400a2c0b30081c0b30010c0b30090fd070018
:103494000000fb00e10f500003003200e20f500077
:1034a40003003200030037009d12070001003700bb
:1034b400ac120700c2c3b3008040eb00809c28001c
:1034c400dafb07000041eb00c1c3b300807b280096
:1034d400d6fb07000080fa00000006000000fa0096
:1034e40023c1b30052c0b30091c0b30010c0b300f5
:1034f40077fd07000000fb00e10f500003003200dd
:10350400e20f50000300320003003700a612070048
:103514000100370083110700c2c3b3008040eb00f1
:10352400809f2800c1fb07000041eb00c1c3b3002a
:10353400d07c2800bdfb07000080fa0000000600d4
:103544000800fa008041eb00c2c0b300e1c0b30040
:1035540050c0b3005efd07000000fb000000e00067
:1035640003003200e30f500003003200050037006f
:103574007d110700030037000ec8bf000040e800bb
:103584000ee8b7000041eb008040eb0080a2280069
:10359400a6fb07000ec8bf00e14f500007003a0029
:1035a4000041eb0051c2b300e0a428009ffb0700d8
:1035b40010c0b3000ee8b700050037000041eb006f
:1035c40051c2b30020a5280098fb07000e68ef0045
:1035d4000041eb0081c2b30060a5280093fb070003
:1035e4000fc8bf000004e0000f00320011c8bf0084
:1035f4000000fb00a2002000800078000e0078008c
:1036040010f60700e2cfb30091c3b3000e007800b8
:1036140086fb07000041eb00b1c3b30080a628007d
:1036240082fb0700040037000041eb0091c3b300a4
:1036340020a528007dfb07000041eb00c1c3b300b7
:10364400807b280079fb07000080fa000000060058
:103654001400fa00d3c0b300e2c0b300b1c0b30099
:1036640050c0b3001afd07000000fb000000e0009a
:1036740003003200e30f500003003200040037005f
:10368400391107000200370011c8bf0042e9b70032
:103694000041eb008040eb00a0a6280063fb07007c
:1036a4000fc8bf000004e0000f00320011c8bf00c3
:1036b4000000fb00a2002000800078000e007800cb
:1036c400e0f50700e2cfb30051c2b3000e0078006a
:1036d40056fb07000041eb0071c2b30080a628002e
:1036e40052fb0700040037000041eb0051c2b30055
:1036f40020a528004dfb07000041eb0081c2b30068
:1037040000a9280049fb070010c8bf000004e0001e
:103714000e00320012c8bf008000fb006c0047009e
:10372400a2002000c7f507006c004700e2cfb300f9
:1037340091c3b3003dfb07000041eb00b1c3b300ec
:1037440080a6280039fb0700040037000041eb0085
:1037540091c3b30020a5280034fb07000041eb000f
:10376400c1c3b300807b280030fb07000080fa004f
:10377400000006000e00fa00c3c0b3000041eb00d5
:103784008040eb00c0c0b300d1fc07000000fb0088
:10379400e20f50001a003200e30f50002e003200f6
:1037a400e10f500036003a000fc8bf000004e000eb
:1037b40003003a0010c0b3000fe8b7003000370030
:1037c40042c9bf00f34f500004003c0042c9bf008f
:1037d4000040e80042e9b7002900370021942000a6
:1037e40091407800e0c5b30080cf50001f003c003a
:1037f40042c9bf006540400042e9b70020003700dd
:103804000fc8bf000004e0001a00320042c9bf0024
:10381400f44f50000400340042c9bf00654050001a
:1038240042e9b7001600370042c9bf00e14f50001b
:103834000400340042c9bf000040e90042e9b70077
:103844000f00370042c9bf00e14f50000b003c009d
:103854000f68ef000a00370042c9bf0011e8b70043
:103864006669ef00c0100700050037000000000083
:1038740003003700000000000100370000000000d2
:103884000041eb008040eb0020aa2800e7fa070083
:103894000041eb0041c2b30000942000e3fa0700aa
:1038a4000fc8bf000004e0000f00320042c9bf008f
:1038b4000000fb00a2002000800078000e007800c9
:1038c40060f50700e2cfb30051c2b3000e007800e8
:1038d400d6fa07000041eb0071c2b30080a62800ad
:1038e400d2fa0700040037000041eb0051c2b300d4
:1038f40020a52800cdfa07000041eb0081c2b300e7
:1039040000a92800c9fa070010c8bf000004e0009d
:103914000e00320012c8bf008000fb0067004700a1
:10392400a200200047f5070067004700e2cfb3007c
:1039340091c3b300bdfa07000041eb00b1c3b3006b
:1039440080a62800b9fa0700040037000041eb0004
:1039540091c3b30020a52800b4fa07000041eb008e
:10396400c1c3b300207e2800b0fa07000080fa002b
:10397400000006000e00fa00f3c0b300b2c0b300aa
:10398400c1c0b30050c0b30051fc07000000fb00ed
:103994000000e00003003200e30f50000300320097
:1039a40004003700701007000200370012c8bf007f
:1039b40042e9b7000041eb008040eb0070ac280006
:1039c4009afa07000fc8bf000004e0000f0032009d
:1039d40011c8bf000000fb00a20020008000780096
:1039e4000e00780017f50700e2cfb30051c2b30010
:1039f4000e0078008dfa07000041eb0071c2b3009d
:103a040080a6280089fa0700040037000041eb0073
:103a140051c2b30020a5280084fa07000041eb003e
:103a240081c2b300d0ae280080fa070010c8bf00de
:103a34000004e0000e00320012c8bf008000fb004a
:103a440067004700a2002000fef40700670047005b
:103a5400e2cfb30091c3b30074fa07000041eb0056
:103a6400b1c3b30080a6280070fa07000400370031
:103a74000041eb0091c3b30020a528006bfa0700b6
:103a84000041eb00c1c3b300d07c280067fa0700f3
:103a94000080fa00000006000e00fa00e3c0b30044
:103aa4000041eb008040eb00e0c0b30008fc0700dd
:103ab4000000fb00e20f50001a003200e30f500038
:103ac4002e003200e10f500036003a0010c8bf004b
:103ad4000004e00003003a0010c0b30010e8b7008f
:103ae4003000370042c9bf00f34f500004003c00cf
:103af40042c9bf000040e80042e9b700290037008e
:103b04002194200091407800e0c5b30080cf50009c
:103b14001f003c0042c9bf006540400042e9b700b5
:103b24002000370010c8bf000004e0001a00320073
:103b340042c9bf00f44f50000400340042c9bf0022
:103b44006540500042e9b7001600370042c9bf0083
:103b5400e14f50000400340042c9bf000040e900b6
:103b640042e9b7000f00370042c9bf00e14f5000df
:103b74000b003c001068ef000a00370042c9bf0088
:103b840012e8b7006769ef00f70f07000500370078
:103b940000000000030037000000000001003700af
:103ba400000000000041eb008040eb0070ac2800f6
:103bb4001efa07000fc8bf000004e0000f00320027
:103bc40011c8bf000000fb00a200200080007800a4
:103bd4000e0078009bf40700e2cfb30051c2b3009b
:103be4000e00780011fa07000041eb0071c2b30027
:103bf40080a628000dfa0700040037000041eb00fe
:103c040051c2b30020a5280008fa07000041eb00c8
:103c140081c2b300f0af280004fa07000041eb00b2
:103c240081c3b3000094200000fa070010c8bf004d
:103c34000004e0000e00320042c9bf008000fb0017
:103c440067004700a20020007ef4070067004700d9
:103c5400e2cfb30091c3b300f4f907000041eb00d5
:103c6400b1c3b30080a62800f0f9070004003700b0
:103c74000041eb0091c3b30020a52800ebf9070035
:103c84000041eb00c1c3b300207e2800e7f9070020
:103c94000080fa00000006001800fa0083c0b30098
:103ca40082c0b30081c0b30080c0b30088fb0700aa
:103cb4003240800043408000a10020000e007800c4
:103cc40094f4070052408000634080006c00470079
:103cd400a10020008ff407000041eb008040eb00be
:103ce40000b12800d1f90700f2ceb30041c1b300fe
:103cf4000e007800cdf9070072c1b30051c2b300c1
:103d040050b22800c9f907006c00470002cfb30085
:103d1400c1c3b300c5f907000041eb00c1c4b3003f
:103d240050b32800c1f907000080fa000000060023
:103d34000000fa0093c0b30092c0b30091c0b30076
:103d440090c0b30062fb07000041eb008040eb0031
:103d5400a0b32800b5f907000041eb0041c1b3004e
:103d6400f0b42800b1f907000041eb00d1c1b30061
:103d740060822000adf907000041eb0081c2b3006e
:103d840090b52800a9f907000041eb0011c3b30066
:103d940020832000a5f9070042c1b300c1c3b300ca
:103da40030b62800a1f907000080fa0000000600e0
:103db4000000fa00a3c0b300a2c0b300a1c0b300c6
:103dc400a0c0b30042fb07000041eb008040eb00c1
:103dd40080b6280095f9070082c0b300c1c0b300c3
:103de400e083200091f907000041eb0041c1b300da
:103df40050b728008df9070082c0b30001c2b30098
:103e040020b8280089f907000041eb0081c2b30003
:103e1400b0b8280085f907000080fa000000060009
:103e24000000fa0059c8bf00e64f50004b003200b2
:103e34008041eb000041eb008040eb000040eb00d0
:103e440023fb07000000fb00e10f500013003200c9
:103e5400e10f500003003c000000e00006003200c7
:103e640028003700e20f500015003200e30f500025
:103e74001c0032002300370059c8bf000081fb003a
:103e8400718420008100410012c3b300824878008d
:103e94000040e80059e8b7001a00370059c8bf00cd
:103ea4000081fb00718420008100410022c3b30023
:103eb400824878000040e80059e8b7001100370054
:103ec40059c8bf000081fb007184200081004100bb
:103ed40032c3b300824878000040e80059e8b700d4
:103ee4000800370059c8bf000081fb00718420001e
:103ef4008100410042c3b300824878000040e800da
:103f040059e8b700c2c2b3008040eb0040bb2800b0
:103f140046f9070059c8bf000080fb00e20f5000bb
:103f24003d003200e20f500005003c000000e000bc
:103f34002f003200e10f5000320032004a003700f7
:103f4400e40f50003e003200e40f5000370035000b
:103f5400e50f50003f003200430037007184200019
:103f64009140780000c8bf0080cf50001d003a0087
:103f7400818420009140780001c8bf0080cf5000a8
:103f840018003a00918420009140780002c8bf00d4
:103f940080cf500013003a00a184200091407800a3
:103fa40003c8bf0080cf50000e003a00b184200047
:103fb4009140780004c8bf0080cf500009003a0047
:103fc400c18420009140780005c8bf0080cf500014
:103fd40004003a0040c1b30039e9b7002d0e0700d0
:103fe4002500370010c0b30039e9b70022003700bc
:103ff4000041eb00c1c2b30080bc28000bf90700ec
:10400400190037000041eb00c1c2b30040bd2800d5
:1040140006f90700140037000041eb00c1c2b300e9
:1040240000be280001f907000f0037000041eb0033
:10403400c1c2b300c0be2800fcf807000a00370064
:104044000041eb00c1c2b30080bf2800f7f80700ad
:10405400050037000041eb00c1c2b30040c0280096
:10406400f2f80700000000000041eb0071c3b30048
:1040740000c12800edf807000080fa0000000600e7
:104084000000fa00a3c1b30052c1b30091c1b30050
:1040940060c0b3008efa07000000fb00e20f50007e
:1040a40006003200e30f500006003200e10f50001a
:1040b40011003a00720f07000f0037005a0e070074
:1040c4000d00370010c0b300ebe9b7002f13070051
:1040d400d6c9bf00ece9b700d7c9bf00ede9b70006
:1040e400d3c9bf00eee9b700d4c9bf00efe9b700f8
:1040f400d2c9bf00f0e9b700c2c3b3008040eb00ef
:10410400a0c22800c9f807000041eb00c1c3b300f6
:10411400807b2800c5f807000080fa000000060034
:104124000000fa00b3c1b30062c1b30041c1b300df
:1041340060c0b30066fa07000000fb00e20f500005
:1041440006003200e30f500006003200e10f500079
:1041540011003a00cf0d07000f003700b40f07001d
:104164000d003700b04a8000c14a8000e00f5000c3
:10417400e08f580004003a00704a8000814a8000b1
:10418400b04a8800c14a8800b04a8000c14a800011
:10419400d04a8800e14a8800c2c3b3008040eb00e3
:1041a40040c62800a1f807000041eb00c1c3b300da
:1041b400807b28009df807000080fa0000000600bc
:1041c4000000fa00d3c1b30072c1b30051c1b300ff
:1041d40060c0b3003efa07000000fb00e10f50008e
:1041e40001003a00100e0700c2c3b3008040eb0088
:1041f40000ca28008df807000041eb00c1c3b300da
:10420400807b280089f807000080fa00000006007f
:104214000000fa0013c2b30082c1b30061c1b3004d
:1042240060c0b3002afa07000000fb00e20f500050
:1042340006003200e30f500006003200e10f500088
:104244001c003a007a0f07001a003700da0e070044
:10425400180037005968ef00f0c5b30057e8b700fd
:1042640057c8bf0055e8b70055c8bf0053e8b700aa
:1042740053c8bf0051e8b70051c8bf004fe8b700aa
:104284004fc8bf004de8b70000c2b30056e8b700fe
:1042940056c8bf0054e8b70054c8bf0052e8b7007e
:1042a40052c8bf0050e8b70050c8bf004ee8b7007e
:1042b4005868ef00c2c3b3008040eb00a0cd2800d3
:1042c4005af807000041eb00c1c3b300807b28000b
:1042d40056f807000080fa00000006000000fa000b
:1042e400c3c1b30092c1b30071c1b30060c0b300d5
:1042f400f7f907000000fb00e20f50000300320052
:10430400e30f50000300320006003700dc0e070004
:1043140004003700a0408000c0408800b040800006
:10432400d0408800c2c3b3008040eb0060d12800b5
:104334003ef807000041eb00c1c3b300807b2800b6
:104344003af807000080fa00000006000000fa00b6
:1043540033c2b30042c1b30081c1b30060c0b30033
:10436400dbf907000000fb00e20f500006003200fa
:10437400e30f500006003200e10f500006003a003f
:104384008d0e070004003700420d070002003700bd
:1043940063c9bf0064e9b700c2c3b3008040eb0047
:1043a400e0d4280021f807000041eb00c1c3b300aa
:1043b400d07c28001df807000080fa0000000600e9
:1043c4000000fa008041eb000041eb008040eb006c
:1043d4000040eb00bef907000000fb00e10f5000b5
:1043e40019003200e10f500003003c000000e0001f
:1043f40006003200cc003700e20f500066003200a5
:10440400e30f5000a2003200c7003700ebc9bf0021
:104414000040e900ebe9b700ebc9bf000004e0008d
:10442400bc003a0065c9bf000004e000030032008c
:1044340010c0b300ebe9b700bb00370040c1b300c4
:1044440039e9b700b8003700ebc9bf000000fb0032
:10445400e30f500022003200e30f500005003c003f
:10446400e10f500008003200e20f5000110032004a
:10447400ad003700e40f50002a003200e50f500071
:1044840039003200a8003700ecc9bf000000fb006f
:104494008000e8008001200000017800110009007c
:1044a4008200d8008000fd0000407800ece9b700ed
:1044b40038003700edc9bf000000fb008000e800b1
:1044c400c003200000017800110009008200d80018
:1044d4008000fd0000407800ede9b7002d003700b2
:1044e400efc9bf000040e900efe9b700efc9bf0022
:1044f4000000fb008000e800f001200000017800cb
:10450400110009008200d8008000fd0000407800fe
:10451400efe9b700efc9bf000040e800efe9b700da
:104524001c003700eec9bf000040e900eee9b70007
:10453400eec9bf000000fb008000e800c0002000be
:1045440000017800110009008200d8008000fd00fd
:1045540000407800eee9b700eec9bf000040e80073
:10456400eee9b7000b003700f0c9bf000040e800d7
:10457400f0e9b700019f20009140780030c6b300f5
:1045840080cf500065003400e0c0b300f0e9b7000c
:104594006500370064003700ebc9bf000000fb0072
:1045a400e30f50001e003200e30f500005003c00f2
:1045b400e10f500008003200e20f50000f003200fb
:1045c40059003700e40f50001e003200e50f500080
:1045d4002500320054003700ecc9bf000040e90058
:1045e400ece9b700ecc9bf000004e00002003d00a4
:1045f40070c1b300ece9b70024003700edc9bf0077
:104604000040e900ede9b700edc9bf000004e00097
:1046140002003d00b0c3b300ede9b7001b00370052
:10462400efc9bf000040e900efe9b700efc9bf00e0
:104634000004e00002003c00f0c1b300efe9b70061
:1046440012003700eec9bf000040e900eee9b700f0
:10465400eec9bf000004e00002003c00c0c0b3008b
:10466400eee9b70009003700f0c9bf000040e900d7
:10467400f0e9b700f0c9bf00ed4f500029003c003d
:1046840030c6b300f0e9b700270037002600370032
:10469400ebc9bf000040e800ebe9b700ebc9bf007d
:1046a400e64f500020003a00d49e200014427800c7
:1046b400c39e200093417800f29e200012417800ae
:1046c400e19e200091407800f0c9bf008042eb00d9
:1046d400df110700e14f50000b003a007e0c070089
:1046e40065c9bf000004e0000400320080ccb300c0
:1046f40039e9b700b00d07000b00370040c1b30023
:1047040039e9b7000800370040c6b30039e9b700fb
:10471400050037000000000003003700000000001f
:104724000100370000000000d210070092c1b3005e
:104734008040eb0060d828003cf7070022c1b3009a
:1047440091c1b300109f200038f7070012c1b300d5
:10475400b1c2b300b09f200034f70700ebc9bf001b
:10476400e54f5000050032000041eb00c1c3b30027
:1047740040d928002df70700040037000041eb0062
:10478400c1c3b300207e280028f707000080fa0088
:10479400000006000800fa008041eb000041eb0035
:1047a4008040eb0050c1b300c9f807000000fb00d3
:1047b400e20f50004a003200e30f5000950032002f
:1047c400e10f5000c3003a00d24a8000e34a80005f
:1047d4004000200001002000800f5100818f59000b
:1047e40007003e00d04a8000e14a8000610040009a
:1047f400e0804800d04a8800e14a8800b5003700cc
:10480400d24a8000e34a8000100320000100200007
:10481400800f5100818f590007003e00d04a80006c
:10482400e14a800065004000e0804800d04a8800ea
:10483400e14a8800a7003700d24a8000e34a80009a
:104844007038210001002000800f5100818f590031
:1048540007003e00d04a8000e14a80002003b000f7
:104864000180b000d04a8800e14a880099003700ee
:10487400d24a8000e34a8000f07022000100200048
:10488400800f5100818f590007003e00d04a8000fc
:10489400e14a80004006b0000180b000d04a8800a0
:1048a400e14a88008b003700d24a8000e34a800046
:1048b400e0cf270001002000800f5100818f5900b4
:1048c40081003e00d04a8000e14a8000a00fb00081
:1048d4000180b000d04a8800e14a88007d0037009a
:1048e400d24a8000e34a80000071220001002000c7
:1048f400800f5100818f590007003600d04a800094
:10490400e14a8000a00fb1000180b100d04a8800c4
:10491400e14a880035003700d24a8000e34a80002b
:104924008038210001002000800f5100818f590040
:1049340007003600d04a8000e14a80004006b100fa
:104944000180b100d04a8800e14a8800270037007e
:10495400d24a8000e34a80002003200001002000a6
:10496400800f5100818f590007003600d04a800023
:10497400e14a80002003b1000180b100d04a8800e0
:10498400e14a880019003700d24a8000e34a8000d7
:104994005000200001002000800f5100818f590039
:1049a40007003600d04a8000e14a800065005000cc
:1049b400e0805800d04a8800e14a88000b003700a4
:1049c400d04a8000e14a8000e00f5000e08f580098
:1049d40006003200d04a8000e14a800061005000a5
:1049e400e0805800d04a8800e14a8800d24a80001a
:1049f400e34a800000d0270001002000800f51000e
:104a0400818f5900320036005a29ef005c29ef00eb
:104a14003000370000c0eb001ceab700524a8000a7
:104a2400634a8000d04a8000e14a8000800f510030
:104a3400818f59001c00310050c1b30039e9b7001f
:104a4400d04a8000e14a8000704a8800814a880088
:104a5400d04a8000e14a8000b04a8800c14a8800f8
:104a6400b04a8000c14a80006309b900020178009d
:104a74006002b90084017800030141003300200082
:104a84000300b80001014100820078004e09dd00f6
:104a94004200de0000007100c208de00904a880077
:104aa400a14a88000400370050c6b30039e9b700b2
:104ab400b0c1b3001de8b70000c0eb001ceab700aa
:104ac400ea0b070003003700000000000100370074
:104ad40000000000d04a8000e14a80000000780015
:104ae400a2002000800078000e007800d5f00700b6
:104af4000041eb008040eb0090da28004bf6070001
:104b0400b2cfb30061c1b3000e00780047f60700ce
:104b140012c2b300b1c1b30000dc280043f60700a1
:104b24000041eb00c1c3b300207e28003ff607001c
:104b34000080fa00000006003c00fa0083c1b300c4
:104b44000041eb008040eb0080c1b300e0f70700b8
:104b54000000fb00e20f500014003200e30f50008d
:104b640022003200e10f500043003a00d0408000a0
:104b74000000e00003003a00e0012000d04088007b
:104b84003d0037001a28ef00c04080008000e80094
:104b94008001200000017800110009008200d80083
:104ba4008000fd00c040880033003700d040800002
:104bb400fe0f500002003a001a28ef002e003700c2
:104bc400e0012000d0408800c04080000000e900df
:104bd400c0408800c0408000f70f5000250034001a
:104be40070012000c040880023003700c0408000ce
:104bf400a0408800d0408000b0408800c1408000c0
:104c040074004700a20020008ef00700d14080000d
:104c1400800220000e004000a200200089f007005e
:104c240042c1b3008040eb00c0dc2800fff5070060
:104c34007400470042c1b30041c1b300fbf5070053
:104c4400800220000e00400042c1b30081c2b300c4
:104c5400f6f5070042c1b300c1c3b30010de28005b
:104c6400f2f50700007d20001b110700630c07000c
:104c74000100370000000000c2408000706626007a
:104c84000090b900c288de004f90de000080500022
:104c9400004078000043b00070e8b700c1408000d5
:104ca400706626000089b9004299de004f88de0054
:104cb400000051006a01b900020078000080500031
:104cc400004078000043b00071e8b700a0c3b3000f
:104cd40072e8b700d0408000a20020008000780075
:104ce4000e00780057f007001e4090000004e0001a
:104cf40005003a0000c3b30073e8b7001e40780013
:104d040074e8b700040037001e40780073e8b70069
:104d14001e40900074e8b7007568ef00b2c1b3009c
:104d24008040eb0030de2800c0f5070012c2b3005b
:104d3400b1c1b30000872000bcf507000041eb00bf
:104d4400c1c3b300207e2800b8f507000080fa0034
:104d5400000006000e00fa00f3c1b300e2c1b30084
:104d6400e1c1b30060c1b30059f707000000fb00c4
:104d7400e30f500002003a00f04080000041880038
:104d84000041eb008040eb0020df2800a7f507007e
:104d940013c8bf000004e0000b003400f1408000a1
:104da40067004700a200200026f0070067004700c4
:104db400d2cfb30051c2b3009cf5070010c0b300ba
:104dc40013e8b700050037000041eb0051c2b300ff
:104dd40020a5280095f507001368ef001041800016
:104de400a2002000800078000e00780015f0070073
:104df4000041eb0081c2b30080e128008bf507007d
:104e0400d2cfb30091c3b3000e00780087f507003a
:104e14000041eb00c1c3b300807b280083f5070089
:104e24000080fa00000006000e00fa0003c2b3007e
:104e3400d2c1b300d1c1b30060c1b30024f70700ed
:104e44000041eb008040eb00b0e2280077f507005a
:104e540013c8bf00e14f50000b003a00f14080003e
:104e640067004700a2002000f6ef07006700470034
:104e7400d2cfb30051c2b3006cf5070010c0b30029
:104e840013e8b700050037000041eb0051c2b3003e
:104e940020a5280065f507001368ef001041800085
:104ea400a2002000800078000e007800e5ef0700e3
:104eb4000041eb0081c2b30010e528005bf5070058
:104ec400d2cfb30091c3b3000e00780057f50700aa
:104ed4000041eb00c1c3b300807b280053f50700f9
:104ee4000080fa00000006000e00fa00d3c1b300ef
:104ef4000041eb008040eb00d0c1b300f4f60700a2
:104f04000000fb00e20f500014003200e30f5000d9
:104f140021003200e10f500027003a0013c8bf00ff
:104f24000004e00005003a0010c0b30013e8b70025
:104f340020032000004188001f0037000141800049
:104f4400503b2000808f500018003c00004180003e
:104f54002003b000004188001700370013c8bf00c9
:104f64000004e000130032000141800030062000fc
:104f7400808f500004003c001368ef0020032000e1
:104f8400004188000c003700004180002003b1007c
:104f9400004188000800370000418000f04088008c
:104fa4002428ef00670b070003003700000000000f
:104fb40001003700000000000041eb008040eb00de
:104fc40030e6280019f507000041eb0041c2b300a8
:104fd4000094200015f5070013c8bf000004e0008a
:104fe4000b0034000141800067004700a20020004c
:104ff40094ef070067004700d2cfb30051c2b3005b
:105004000af5070010c0b30013e8b7000500370025
:105014000041eb0051c2b30020a5280003f50700ae
:105024001368ef0010418000a20020008000780087
:105034000e00780083ef07000041eb0081c2b3004b
:1050440080e82800f9f40700d2cfb30091c3b3007d
:105054000e007800f5f407000041eb00c1c3b30073
:10506400207e2800f1f407000080fa00000006000a
:105074000e00fa00e3c1b3000041eb008040eb00f6
:10508400e0c1b30092f607000000fb00e20f5000fd
:105094000c003200e30f500012003200e10f500008
:1050a40018003a0011418000503b2000808f5000ce
:1050b40011003c00104180002003b0001041880022
:1050c400100037001141800030062000808f50000e
:1050d4000b003400104180002003b100104188000f
:1050e400080037001041800020418800760a07003c
:1050f4002428ef00030037000000000001003700ff
:10510400000000000041eb008040eb00b0e228000a
:10511400c6f4070013c8bf00e14f500009003a006d
:10512400f140800067004700a200200045ef07001f
:1051340067004700d2cfb30051c2b300bbf40700ed
:10514400050037000041eb0051c2b30020a5280040
:10515400b6f407001368ef0010418000a20020009d
:10516400800078000e00780036ef07000041eb0065
:1051740081c2b300a0e92800acf407000041eb00b1
:1051840081c3b30000942000a8f40700d2cfb30079
:1051940091c3b3000e007800a4f407000041eb00b3
:1051a400c1c3b300207e2800a0f407000080fa00e9
:1051b400000006000000fa008041eb000041eb0013
:1051c4008040eb0070c0b30041f607000000fb0014
:1051d400e20f500007003200e30f500007003200d6
:1051e400e10f500025003a0000c0eb001ce8b700b6
:1051f400220037001c68ef00200037001cc8bf00e5
:105204000004e00005003200b04a8000c14a80007a
:10521400d04a8800e14a880004003700904a8000a0
:10522400a14a8000d04a8800e14a8800524a80009e
:10523400634a8000d04a8000e14a8000800f510018
:10524400818f59000900310070c0b30039e9b700fb
:105254001cc8bf001ceab700d04a8000e14a8000a5
:10526400704a8800814a88000400370050c6b300a1
:1052740039e9b70020c2b3001de8b7000041eb00d4
:105284008040eb00b0ea280068f407001cc8bf00a7
:105294000004e000050032000041eb0071c1b300de
:1052a4000094200061f40700040037000041eb0083
:1052b40071c1b30010de28005cf407000041eb006c
:1052c40081c1b30030ec280058f407001cc8bf00ab
:1052d4000004e000050032000041eb00b1c2b3005d
:1052e40010de280051f40700040037000041eb00f1
:1052f400b1c2b300009420004cf407000041eb005d
:10530400c1c2b30070ed280048f407000080fa0021
:10531400000006000000fa0093c1b3000041eb0056
:105324008040eb0090c1b300e9f507000000fb00ea
:10533400e20f500007003200e30f50000700320074
:10534400e10f500008003a0000c0eb0064e9b70028
:10535400050037006469ef000300370064c9bf002b
:1053640063e9b700d70a070072c1b3008040eb00bd
:10537400c0ef28002df4070064c9bf000004e0005a
:10538400050032000041eb0071c1b300009420001d
:1053940026f40700040037000041eb0071c1b3009c
:1053a40010de280021f4070032c1b30081c1b3002c
:1053b40000f128001df4070064c9bf000004e000e8
:1053c400050032000041eb00b1c2b30010de28003a
:1053d40016f40700040037000041eb00b1c2b3002b
:1053e4000094200011f4070002c1b300c1c2b3004d
:1053f40020a528000df407000041eb00c1c3b30051
:1054040030f1280009f407000080fa0000000600cb
:105414000000fa00a3c1b300a2c1b300a1c1b3004c
:10542400a0c1b300aaf50700e14f40000300320019
:10543400ebc9bf000040e900ebe9b700c2c3b30009
:105444008040eb0080f22800f8f3070042c1b3006b
:10545400c1c3b300d0f32800f4f307000080fa00be
:10546400000006000000fa00d1812000914078007d
:105474001dc8bf008041eb000041eb0094f507001c
:105484000000fb000080e900e10f50000f003e0027
:105494001dc8bf00fb4f500003003a0050c1b300c9
:1054a40039e9b7000400370070c0b30039e9b70028
:1054b4001cc8bf001ceab700d04a8000e14a800043
:1054c400704a8800814a8800680907000041eb009f
:1054d4008040eb0040f42800d4f307000080fa0079
:1054e400000006000000fa0059c8bf00e54f500054
:1054f40057003e008041eb000041eb008040eb0090
:105504000040eb0072f507000000fb00e10f5000c3
:105514001b003200e10f500003003c000000e000db
:105524000600320083003700e20f500025003200ed
:10553400e30f5000350032007e00370059c8bf0029
:105544000080fb000000400080007800d084200030
:105554000080400011c3b3000148780059c8bf005f
:105564000081fb00718420008100410012c3b3005c
:10557400824878000040e80059e8b7006d00370021
:1055840059c8bf000080fb00000040008000780084
:10559400d08420000080400021c3b300014878007b
