:020000040000fa
:080000000002040000000000f2
:020000040000fa
:040008003c060000b2
:020000040000fa
:04000c003c060000ae
:020000040000fa
:040010003c060000aa
:020000040000fa
:040014003c060000a6
:020000040000fa
:040018003c060000a2
:020000040000fa
:04001c003c0600009e
:020000040000fa
:040020003c0600009a
:020000040000fa
:040024003c06000096
:020000040000fa
:040028003c06000092
:020000040000fa
:04002c003c0600008e
:020000040000fa
:040030003c0600008a
:020000040000fa
:04003400760400004e
:020000040000fa
:040038003c06000082
:020000040000fa
:04003c003c0600007e
:020000040000fa
:040040003c0600007a
:020000040000fa
:04004400c8020000ee
:020000040000fa
:040048003c06000072
:020000040000fa
:04004c003c0600006e
:020000040000fa
:040050003c0600006a
:020000040000fa
:040054003c06000066
:020000040000fa
:040058003c06000062
:020000040000fa
:04005c003c0600005e
:020000040000fa
:040060003c0600005a
:020000040000fa
:040064003c06000056
:020000040000fa
:040068003c06000052
:020000040000fa
:04006c003c0600004e
:020000040000fa
:040070003c0600004a
:020000040000fa
:040074003c06000046
:020000040000fa
:040078003c06000042
:020000040000fa
:04007c003c0600003e
:020000040000fa
:040080003c0600003a
:020000040000fa
:040084003c06000036
:020000040000fa
:040088003c06000032
:020000040000fa
:04008c003c0600002e
:020000040000fa
:040090003c0600002a
:020000040000fa
:040094003c06000026
:020000040000fa
:040098003c06000022
:020000040000fa
:04009c003c0600001e
:020000040000fa
:0400a000f405000063
:020000040000fa
:0400a4003c06000016
:020000040000fa
:0400a8003c06000012
:020000040000fa
:0400ac003c0600000e
:020000040000fa
:0400b0003c0600000a
:020000040000fa
:0400b4003c06000006
:020000040000fa
:0400b8003c06000002
:020000040000fa
:0400bc003c060000fe
:020000040000fa
:0400c0003c060000fa
:020000040000fa
:0400c4003c060000f6
:020000040000fa
:0400c8003c060000f2
:020000040000fa
:0400cc003c060000ee
:020000040000fa
:0400d0003c060000ea
:020000040000fa
:0400d4003c060000e6
:020000040000fa
:0400d8003c060000e2
:020000040000fa
:0400dc003c060000de
:020000040000fa
:0400e0003c060000da
:020000040000fa
:0400e4003c060000d6
:020000040000fa
:0400e8003c060000d2
:020000040000fa
:0400ec003c060000ce
:020000040000fa
:0400f0003c060000ca
:020000040000fa
:0400f4003c060000c6
:020000040000fa
:0400f8003c060000c2
:020000040000fa
:0400fc003c060000be
:020000040000fa
:040100003c060000b9
:020000040000fa
:040104003c060000b5
:020000040000fa
:040108003c060000b1
:020000040000fa
:04010c003c060000ad
:020000040000fa
:040110003c060000a9
:020000040000fa
:040114003c060000a5
:020000040000fa
:040118003c060000a1
:020000040000fa
:04011c003c0600009d
:020000040000fa
:040120003c06000099
:020000040000fa
:040124003c06000095
:020000040000fa
:040128003c06000091
:020000040000fa
:04012c003c0600008d
:020000040000fa
:040130002a0600009b
:020000040000fa
:040134003c06000085
:020000040000fa
:040138003c06000081
:020000040000fa
:04013c003c0600007d
:020000040000fa
:040140003c06000079
:020000040000fa
:040144003c06000075
:020000040000fa
:040148003c06000071
:020000040000fa
:04014c003c0600006d
:020000040000fa
:040150003c06000069
:020000040000fa
:040154003c06000065
:020000040000fa
:040158003c06000061
:020000040000fa
:04015c003c0600005d
:020000040000fa
:040160003c06000059
:020000040000fa
:040164003c06000055
:020000040000fa
:040168003c06000051
:020000040000fa
:040208003c060000b0
:020000040000fa
:04020c003c060000ac
:020000040000fa
:040210003c060000a8
:020000040000fa
:040214003c060000a4
:020000040000fa
:040218003c060000a0
:020000040000fa
:04021c003c0600009c
:020000040000fa
:040220003c06000098
:020000040000fa
:040224003c06000094
:020000040000fa
:040228003c06000090
:020000040000fa
:04022c003c0600008c
:020000040000fa
:040230003c06000088
:020000040000fa
:040234003c06000084
:020000040000fa
:040238003c06000080
:020000040000fa
:04023c003c0600007c
:020000040000fa
:040240003c06000078
:020000040000fa
:040244003c06000074
:020000040000fa
:040248003c06000070
:020000040000fa
:04024c003c0600006c
:020000040000fa
:040250003c06000068
:020000040000fa
:040254003c06000064
:020000040000fa
:040258003c06000060
:020000040000fa
:04025c003c0600005c
:020000040000fa
:040260003c06000058
:020000040000fa
:040264003c06000054
:020000040000fa
:040268003c06000050
:020000040000fa
:04026c003c0600004c
:020000040000fa
:040270003c06000048
:020000040000fa
:040274003c06000044
:020000040000fa
:040278003c06000040
:020000040000fa
:04027c003c0600003c
:020000040000fa
:040280003c06000038
:020000040000fa
:040284003c06000034
:020000040000fa
:040288003c06000030
:020000040000fa
:04028c003c0600002c
:020000040000fa
:040290003c06000028
:020000040000fa
:040294003c06000024
:020000040000fa
:040298003c06000020
:020000040000fa
:04029c003c0600001c
:020000040000fa
:0402a0003c06000018
:020000040000fa
:0402a4003c06000014
:020000040000fa
:0402a8003c06000010
:020000040000fa
:0402ac003c0600000c
:020000040000fa
:0402b0003c06000008
:020000040000fa
:0402b4003c06000004
:020000040000fa
:0402b8003c06000000
:020000040000fa
:0402bc003c060000fc
:020000040000fa
:0402c0003c060000f8
:020000040000fa
:0402c4003c060000f4
:020000040000fa
:0402c8003c060000f0
:020000040000fa
:0402cc003c060000ec
:020000040000fa
:0402d0003c060000e8
:020000040000fa
:0402d4003c060000e4
:020000040000fa
:0402d8003c060000e0
:020000040000fa
:0402dc003c060000dc
:020000040000fa
:0402e0003c060000d8
:020000040000fa
:0402e4003c060000d4
:020000040000fa
:0402e8003c060000d0
:020000040000fa
:0402ec003c060000cc
:020000040000fa
:0402f0003c060000c8
:020000040000fa
:0402f4003c060000c4
:020000040000fa
:0402f8003c060000c0
:020000040000fa
:0402fc003c060000bc
:020000040000fa
:040300003c060000b7
:020000040000fa
:040304003c060000b3
:020000040000fa
:040308003c060000af
:020000040000fa
:04030c003c060000ab
:020000040000fa
:040310003c060000a7
:020000040000fa
:040314003c060000a3
:020000040000fa
:040318003c0600009f
:020000040000fa
:04031c003c0600009b
:020000040000fa
:040320003c06000097
:020000040000fa
:040324003c06000093
:020000040000fa
:040328003c0600008f
:020000040000fa
:04032c003c0600008b
:020000040000fa
:040330003c06000087
:020000040000fa
:040334003c06000083
:020000040000fa
:040338003c0600007f
:020000040000fa
:04033c003c0600007b
:020000040000fa
:040340003c06000077
:020000040000fa
:040344003c06000073
:020000040000fa
:040348003c0600006f
:020000040000fa
:04034c003c0600006b
:020000040000fa
:040350003c06000067
:020000040000fa
:040354003c06000063
:020000040000fa
:040358003c0600005f
:020000040000fa
:04035c003c0600005b
:020000040000fa
:040360003c06000057
:020000040000fa
:040364003c06000053
:020000040000fa
:040368003c0600004f
:020000040000fa
:100400006fa120000eff20000e01880000000000f8
:10041000000020000000e000020032000001200087
:100420002002880014000700150207000000e00009
:1004300003003a0020692400010020000200370078
:100440000000200001002000810f70000100320038
:1004500014000700000020000000e000020032004d
:1004600000000200000000000e3e0200000000003c
:100470000040da000000fe004440a900a0932000e4
:100480000000e0000300320000002000a00188000e
:100490004440a800000006008a1f78008b1f7800e7
:1004a0000000060091018800800478000000eb0045
:1004b0001a003700e284440032a0b4009905ba0063
:1004c000e284440032a0b4009906ba00e2844400f9
:1004d00032a0b4000006eb00476fde00fd07b2005b
:1004e000636ce10003003a00ebff07000000eb0043
:1004f0000a003700606ce10004003a00005deb0088
:100500008b05e900fdff3e00040037006168e10053
:10051000010032000086eb000b00070019c7ba008b
:100520001905ba000e04e00003003a000a00e000da
:10053000e0ff3a0000000600fe07b2009e018800be
:100540008a047800f5ff3700395dba008b05e900b1
:100550000c003200295dba008b05e900080032006a
:100560000c00e00003003a00e284440032a0b40032
:10057000f5ff370019ddba008b05e900faff3a00f4
:100580008904e800e184440032a0b40000000600c1
:100590003600f800809fbe00821f78000000fa003d
:1005a00050168000640060000000e000810032000e
:1005b00010168000700060000000e00002003a00a9
:1005c0005e69ef001a0037005ec9bf000004e0005a
:1005d00017003a0010c0b3005ee9b700d2c9bf00ef
:1005e0000080fb00b103200080804000c003200099
:1005f00000017800110009008200d8008000fd0091
:1006000000407800d3e9b700d1c9bf000080fb00eb
:10061000e9004000c003200000017800110009003b
:100620008200d8008000fd000040780015e8b70087
:1006300050168000700060000000e00002003a00e8
:100640005d69ef001a0037005dc9bf000004e000db
:1006500017003a0010c0b3005de9b700d2c9bf006f
:100660000080fb00b103200080804000c003200018
:1006700000017800110009008200d8008000fd0010
:1006800000407800d3e9b700d1c9bf000080fb006b
:10069000e9004000c00320000001780011000900bb
:1006a0008200d8008000fd000040780015e8b70007
:1006b00010168000680060000000e00002003a00b0
:1006c0005c69ef001a0037005cc9bf000004e0005d
:1006d00017003a0010c0b3005ce9b700d2c9bf00f0
:1006e0000080fb00b103200080804000c003200098
:1006f00000017800110009008200d8008000fd0090
:1007000000407800d3e9b700d1c9bf000080fb00ea
:10071000e9004000c003200000017800110009003a
:100720008200d8008000fd000040780015e8b70086
:1007300010168000640060000000e00002003a0033
:100740005b69ef00480037005bc9bf000004e000b0
:1007500045003a0010c0b3005be9b700d2c9bf0042
:100760000080fb00b103200080804000c003200017
:1007700000017800110009008200d8008000fd000f
:1007800000407800d3e9b700d1c9bf000080fb006a
:10079000e9004000c00320000001780011000900ba
:1007a0008200d8008000fd000040780015e8b70006
:1007b0002d00370010168000640060000000e0008b
:1007c0000c003a0010168000680060000000e00095
:1007d00008003a0050168000700060000000e00041
:1007e00004003a0010168000700060000000e00075
:1007f0001d00320020c0b3005be9b70020c0b30089
:100800005ce9b70020c0b3005de9b70020c0b300c9
:100810005ee9b700d2c9bf000080fb00b103200031
:1008200080804000c0032000000178001100090012
:100830008200d8008000fd0000407800d3e9b700b6
:10084000d1c9bf000080fb00e9004000c0032000c8
:1008500000017800110009008200d8008000fd002e
:100860000040780015e8b700119d20009140780005
:1008700015c8bf0080cf500016003a00219d20000f
:1008800091407800d3c9bf0080cf500011003a00da
:1008900035c9bf00e34f500006003a0035c9bf001c
:1008a000e34f50000b003a0041c9bf000004e000d4
:1008b00008003a0035c9bf00e44f5000050032007f
:1008c00061c9bf000004e00002003a0010c0b3009c
:1008d00035e9b70084e0a9000080fa004f017800f4
:1008e0004f00be003600f900004006003600f80058
:1008f000809fbe00829fbe00849fbe00869fbe0078
:100900001c00fa000040eb00004f7800ab003700fd
:100910001e4078007400b90000007800504798002d
:1009200000c0eb00304798000040eb0010479800f3
:10093000270037005e4090008080fb001e40900042
:100940000080fb0080804000308920000080400053
:10095000904078005e4090000081fb001e409000b7
:100960000080fb0000014100408e2000000041009b
:100970001040780080cf5000120032005e4090009e
:100980008080fb001e4090000080fb000081400042
:100990005e4090008080fb001e4090000080fb00c5
:1009a00080804000408e2000008040009040780011
:1009b0003089200000004100014878000040eb0031
:1009c000304798001e4090000040e8001047980013
:1009d0001e409000f34f5000d6ff36003e4090007e
:1009e0000004e00074003a005e4090008080fb004c
:1009f0003089200000804000104078000004e000b2
:100a00006d0032000040eb00205f98000040eb00da
:100a1000204798000f0037002e4090000080fb0018
:100a2000de4090000181fb00ae4090008180fb0021
:100a3000010141003189200081004100914078008e
:100a400000004700614098002e4090000040e80000
:100a5000204798002e409000f34f5000eeff3600e4
:100a60000040eb00404798001e80fb00e10f500063
:100a70001c003200e10f500003003c000000e000c9
:100a8000060032004c003700e20f50002700320011
:100a9000e30f5000370032004700370020c0b3009a
:100aa000d6050700080037004e4090000080fb008c
:100ab0000000470060409000ce4090008140e80078
:100ac00041479800e00507004e4090000080fb0081
:100ad00000004700604090000004e000f2ff3a0090
:100ae0003500370000ccb300c4050700080037000c
:100af0004e4090000080fb000000470060409000e6
:100b0000ce4090008140e80041479800ce050700a4
:100b10004e4090000080fb000000470060409000c5
:100b20000004e000f2ff3a002300370040c9b300a0
:100b3000b2050700080037004e4090000080fb001f
:100b40000000470060409000ce4090008140e800e7
:100b500041479800bc0507004e4090000080fb0014
:100b600000004700604090000004e000f2ff3a00ff
:100b70001100370040cdb300a00507000800370082
:100b80004e4090000080fb00000047006040900055
:100b9000ce4090008140e80041479800aa05070038
:100ba0004e4090000080fb00000047006040900035
:100bb0000004e000f2ff3a001e4fe8001e407800fb
:100bc000e34f500052ff36008460a9000080fa0015
:100bd0004f03be004f02be004f01be004f00be00db
:100be0003600f90000400600809fbe000200fa00b7
:100bf0003222a9000f003700b0118000004f7800aa
:100c00006fc9bf008080fb0050962000008040002c
:100c10001e4878006fc9bf000040e8006fe9b700c8
:100c20006fc9bf00e94f50000200360090c0b3000a
:100c30006fe9b70090118000610060000000e000e3
:100c4000edff3a0087c0a9000080fa004f00be0007
:100c500000400600801f78000000fa00901180001c
:100c6000901180003222a9008c40a9000080fa0077
:100c70004f007800004006000040da000000fe004f
:100c8000000005006022b800060220000000d0002d
:100c90008180d2000482d2008582d2000000a000b0
:100ca0000202520083825a00030031000202420015
:100cb00083824a000000a1000603e900f3ff3a0026
:100cc00000000600efff07000400be000000060061
:100cd00080007800010078003041780003c2b30042
:100ce000834f5100faff3200e94f5100f8ff320004
:100cf000edc14100834f510003003a0080007800ad
:100d000013c0b300050037008041eb00b4c2b3004c
:100d1000844f510001003a00800078000000eb0091
:100d2000020037006a02b900040041003101fb00f3
:100d30000203b100e90f5100faff36000304e0009e
:100d4000010032000000ea0000000600889fbe009b
:100d50008a1f7800304478008004780001c2b30014
:100d6000814f5400fbff3200e94f5400f9ff32007d
:100d7000d0c2b300804f540003003a0039447800d9
:100d80001ac0b300050037000045eb00b0c2b30045
:100d9000804f540001003a00394478006000b800e8
:100da0000a003700a20020000300200070000700a6
:100db00002cdb300024144000281fb008001eb0040
:100dc0000200400083804800394478000881fb001d
:100dd0000203b100e90f5100f2ff36000a04e000ff
:100de0000200320060001000e08018004f0578001b
:100df0004f04be0000000600000378008102780066
:100e00008501780001003700040378001100090013
:100e10008281d800800178000602e8000300e0002b
:100e2000f9ff3a00034a7800110009008282d800d5
:100e3000000278008141780084027800e9cf5100f7
:100e400001003400e7c1410001c3b30001d34100f8
:100e50000400e000f4ff3a000600780000000600fd
:100e6000881f7800000478000100e00005003d00c4
:100e700008007800d3c2b300035878008100ea006c
:100e80000100370008007800dbff07000800780049
:100e90004f04780000000600889fbe008a9fbe00b5
:100ea0008c9fbe00800578000204be00010578001a
:100eb0000200be0001003700820578006156b900cb
:100ec0000c01be006fff07000b01e800e00f5000af
:100ed000e08f5800f8ff3a000049eb000c01be001b
:100ee0000800be0077ff0700004578000c01be0037
:100ef0000800be0063ff07000004be00e94f550074
:100f0000010034006745450000c3b300805545002b
:100f1000e00f5400e08f5c00f0ff3a000b00780017
:100f20004f06be004f05be004f04be000000060085
:100f3000881f780000047800e00f5100e08f59000e
:100f400006003d0008007800d4c2b30004587800c1
:100f500060011100e08119000100370008007800ed
:100f6000cdff0700080078004f047800000006005d
:100f7000020ab900001bb9000200b800810042005b
:080f800081004300000006009f
:020000040000fa
:100f880042610000636b00002020000055700000e3
:100f980020200000446f0000776e00002020000031
:100fa800202000004f4b0000004200006163000059
:100fb8006b20000020550000702000002054000025
:100fc8006f7000002020000020200000204f00004b
:100fd8004b00000042610000636b0000202000000d
:100fe8005570000020200000446f0000776e00005c
:100ff80020200000536100007665000000450000d5
:10100800525200004f5200002034000030340000db
:101018003a0000004d6500006e750000206e00006b
:101028006f740000206600006f7500006e64000099
:10103800004400006562000075670000204d000054
:10104800656e000075000000526500006d610000cb
:10105800696e0000696e0000673a00000025000014
:10106800200000004375000072720000656e0000e9
:10107800742000004c6f0000616400003a0000001a
:101088002057000000540000696d00006520000032
:101098006c650000667400003a0000004d650000b1
:1010a8006e750000202000002053000077610000ca
:1010b80070200000202000004465000074610000da
:1010c800696c0000004c000065660000743a00007e
:1010d800200000002f000000576800002052000088
:1010e800656d0000616900006e6900006e670000b0
:1010f8003a200000202000002020000000250000e9
:10110800204c00006f610000643a000020200000bd
:1011180020200000202000002000000020570000b0
:10112800204d0000656e00007520000020200000a2
:1011380020200000202000002020000020200000a7
:1011480042610000736900006300000057610000fd
:10115800726e0000696e0000673a0000204c0000c3
:101168006f770000207000006f7700006572000044
:10117800212000004f6e00006c7900002000000064
:1011880025200000726500006d610000696e000096
:10119800696e0000672e000020200000202000005b
:1011a8002020000020200000202000002020000037
:1011b8002020000020200000202000002020000027
:1011c8002020000020200000204300006c65000063
:1011d80061720000204100006c610000726d000027
:1011e8002020000020200000200000004d610000a9
:1011f800696e0000204d0000656e0000752000003b
:101208002020000020200000312000006f66000030
:10121800203600002a200000416c000061720000a6
:101228006d2000004f700000746900006f6e0000b0
:101238007320000020200000202000002020000053
:10124800416400006d6900006e2000004d650000db
:101258006e750000004d0000616900006e200000fe
:101268004d6500006e750000202000002020000061
:1012780020320000206f000066200000362a00009f
:1012880020410000646d0000696e0000204d0000e0
:10129800656e00007520000020200000202000005e
:1012a800202000002020000020480000696700007e
:1012b800682f00004c6f0000770000004d610000af
:1012c800696e0000204d0000656e0000752000006a
:1012d8002020000020200000332000006f6600005e
:1012e800203600002a2000004869000067680000d6
:1012f8002f4c00006f770000202000002020000005
:1013080020200000202000002020000020200000d5
:101318005374000061740000697300007469000070
:1013280063730000004d0000616900006e2000003a
:101338004d6500006e750000202000002020000090
:1013480020340000206f000066200000362a0000cc
:101358002053000074610000746900007374000079
:101368006963000073200000202000002020000096
:101378002020000020200000204c000061730000a5
:1013880074200000506f0000776500007220000094
:1013980046610000696c000075720000650000007d
:1013a8004d610000696e0000204d0000656e000070
:1013b80075200000202000002020000035200000bb
:1013c8006f660000203600002a2000004c610000f3
:1013d80073740000205000006f77000065720000f1
:1013e80020460000616900006c750000726500000d
:1013f80020200000416200006f75000074000000aa
:101408004d610000696e0000204d0000656e00000f
:101418007520000020200000202000003620000059
:101428006f66000020360000202000004c6100009c
:1014380073740000205000006f7700006572000090
:1014480020460000616900006c75000072650000ac
:101458002a200000416200006f750000740000003f
:10146800416c0000617200006d2000004f700000a8
:10147800746900006f6e00007320000031200000c6
:101488006f660000203300002a200000417500002c
:1014980064690000626c000065200000416c000077
:1014a800617200006d200000200000004f6e0000f7
:1014b800200000004f6600006600000020200000a9
:1014c800416c0000617200006d20000031200000b6
:1014d800506f0000776500007220000020000000b7
:1014e80025000000416c0000617200006d200000c2
:1014f8004f700000746900006f6e000073200000d8
:10150800322000006f660000203300002a2000000f
:10151800416c0000617200006d2000003120000065
:10152800506f000077650000722000002000000066
:1015380020200000416c0000617200006d20000056
:1015480032200000506f0000776500007220000014
:1015580020000000416c0000617200006d20000056
:101568004f700000746900006f6e00007320000067
:10157800322000006f660000203300002a2000009f
:10158800416c0000617200006d20000031200000f5
:10159800506f0000776500007220000000410000d5
:1015a8006c610000726d0000204f00007074000034
:1015b800696f00006e73000020330000206f000088
:1015c8006620000033200000204100006c6100000c
:1015d800726d000020310000205000006f7700007d
:1015e8006572000020200000002a00002041000051
:1015f8006c610000726d0000203200002050000075
:101608006f7700006572000020200000002a0000ab
:10161800204100006c610000726d00002032000063
:10162800205000006f770000657200002000000065
:101638005965000073740000657200006461000061
:1016480079270000732000007573000061670000af
:10165800653a0000202000000020000057680000c4
:10166800546f0000746100006c2000007573000066
:1016780061670000653a0000002000006b57000019
:10168800680000004c6100007374000020500000e6
:101698006f77000065720000204600006169000055
:1016a8006c7500007265000020200000004c0000ee
:1016b8006f7300007420000020200000202000002c
:1016c8000052000065730000746f0000726500002e
:1016d8006420000000420000616300006b0000000d
:1016e800506f00007765000072200000436f000013
:1016f800646500003a20000000440000697300009f
:1017080070200000436f0000646500003a2000006c
:101718002000000032300000313900003035000070
:101728003239000000200000204d000065730000e1
:101738007369000061680000204300006f6c0000be
:101748006c65000067650000202000002020000074
:1017580020200000436f00006c6c000061620000f4
:101768006f720000617400006f7200007920000041
:101778002020000020000000416400006d69000086
:101788006e6900007374000072610000746f0000dd
:10179800722000004c6f0000676900006e000000b6
:1017a8005f2000005f2000005f2000005f20000035
:1017b8005f2000005f0000002a2000005f2000007a
:1017c8005f2000005f2000005f2000005f00000035
:1017d8002a2000002a2000005f2000005f2000006f
:1017e8005f2000005f0000002a2000002a2000007f
:1017f8002a2000005f2000005f2000005f0000003a
:101808002a2000002a2000002a2000002a200000a8
:101818005f2000005f0000002a2000002a2000004e
:101828002a2000002a2000002a2000005f00000073
:10183800202000002020000020310000202000008f
:10184800202000002032000020200000202000007e
:10185800202000003320000020200000202000006d
:1018680034000000416400006d6900006e20000033
:101878004d6500006e75000020200000202000004b
:10188800312000006f660000203600002a2000008a
:101898005365000074200000546900006d65000065
:1018a8002f44000061740000652000002020000023
:1018b8002020000020200000536500007420000054
:1018c800506f00007765000072200000416c000036
:1018d8006c6f000063000000416400006d69000047
:1018e8006e2000004d6500006e750000202000008d
:1018f80020200000322000006f6600002036000023
:101908002a2000005365000074200000506f00007a
:101918007765000072200000416c00006c6f0000c9
:10192800632000002020000020200000456d0000fa
:1019380065720000676500006e6300007920000092
:101948004f700000746900006f6e000073000000a3
:10195800416400006d6900006e2000004d650000c4
:101968006e750000202000002020000033200000b9
:101978006f660000203600002a200000456d000038
:1019880065720000676500006e6300007920000042
:101998004f700000746900006f6e00007320000033
:1019a8002020000043680000616e000067650000a9
:1019b8002050000061730000737700006f72000010
:1019c80064000000416400006d6900006e200000a2
:1019d8004d6500006e7500002020000020200000ea
:1019e800342000006f660000203600002a20000026
:1019f80043680000616e0000676500002050000029
:101a080061730000737700006f72000064200000ab
:101a1800202000002020000043680000616e0000c4
:101a280067650000205200006573000065740000bf
:101a380020540000696d000065000000416400004a
:101a48006d6900006e2000004d6500006e75000095
:101a58002020000020200000352000006f660000d4
:101a6800203600002a20000043680000616e000054
:101a7800676500002052000065730000657400006f
:101a880020540000696d000065200000202000003f
:101a9800526500006c61000079200000436f00006f
:101aa8006e740000726f00006c000000416400005a
:101ab8006d6900006e2000004d6500006e75000025
:101ac8002020000020200000362000006f66000063
:101ad800203600002020000043680000616e0000ee
:101ae80067650000205200006573000065740000ff
:101af80020540000696d0000652000002a200000c5
:101b0800526500006c61000079200000436f0000fe
:101b18006e740000726f00006c00000053650000d6
:101b280074200000546900006d6500002f44000017
:101b3800617400006500000042610000636b0000f2
:101b4800202000005570000020200000446f000095
:101b5800776e0000202000004e65000078740000b9
:101b68000053000065740000205000006f770000eb
:101b780065720000204100006c6c00006f6300007b
:101b880061740000696f00006e20000020000000f2
:101b980020570000682000007065000072200000d7
:101ba80064610000790000005365000074200000a3
:101bb800526500007365000074200000546900003d
:101bc8006d650000004500006d650000726700004b
:101bd800656e000063790000204f000070740000fb
:101be800696f00006e73000020200000202a0000aa
:101bf800204500006d65000072200000427500005d
:101c0800747400006f6e0000202000002020000087
:101c180000200000204500006d65000072200000d3
:101c2800416c00006c6f0000632000004e6f0000e4
:101c38007720000020000000456d0000657200005c
:101c4800676500006e630000792000004f70000097
:101c5800746900006f6e00007320000020200000ef
:101c680020200000456d0000657200002042000041
:101c780075740000746f00006e20000020200000c2
:101c8800200000002a200000456d00006572000059
:101c9800204100006c6c00006f630000204e0000c3
:101ca8006f77000020000000456d0000657200009d
:101cb800676500006e630000792000004f70000027
:101cc800746900006f6e000073200000202000007f
:101cd8002a200000456d00006572000020420000c7
:101ce80075740000746f00006e2000002020000052
:101cf80000200000204500006d65000072200000f3
:101d0800416c00006c6f0000632000004e6f000003
:101d180077200000002a0000204500006d650000c3
:101d280072200000416c00006c6f0000632000000e
:101d38004e6f0000770000004869000067680000e7
:101d48002f4c00006f770000204100006c6c0000f1
:101d58006f63000061740000696f00006e2000006e
:101d6800202000002000000020000000486900003a
:101d780067680000202000002020000020200000cc
:101d8800202000002020000020200000202000004b
:101d9800200000004c6f0000772000002020000089
:101da800202000002020000020200000202000002b
:101db8002020000042610000636b0000202000002a
:101dc8004869000067680000202000004c6f000090
:101dd80077200000202000004f4b00000052000038
:101de800656c00006179000020460000756e0000f7
:101df80063740000696f00006e6100006c69000088
:101e080074790000004f00006e000000426100007d
:101e1800636b000020200000204f00006e200000af
:101e2800202000004f6600006620000020200000ef
:101e38004f4b0000004900006e760000616c000006
:101e480069640000206400006174000065200000df
:101e5800656e000074650000726500006400000093
:101e68005265000074750000726e000000430000a7
:101e78006f6e0000746900006e750000696e0000e6
:101e880067200000776900006c6c000020200000cb
:101e980020200000206300006175000073650000c9
:101ea800207000006f770000657200002074000049
:101eb8006f2000007368000075740000206f000038
:101ec80066660000206900006d6d00006564000012
:101ed80069610000746500006c7900002120000031
:101ee8002020000020520000657400007572000078
:101ef8006e20000020200000202000002043000069
:101f08006f6e0000746900006e75000065000000c7
:101f1800456e000074650000722000006e650000c8
:101f2800772000007061000073730000776f000075
:101f3800726400003a0000003120000020200000f8
:101f48002020000032200000202000002020000077
:101f58002033000020200000202000002034000052
:101f6800004300006c650000617200002020000042
:101f78002020000020200000202000002020000059
:101f880020530000617600006500000049730000de
:101f9800206900007420000061660000746500007c
:101fa80072200000746800006520000020200000f6
:101fb8002020000072650000736500007420000096
:101fc800746900006d6500003f00000020280000d3
:101fd80000280000003a0000003300000030000034
:101fe80000300000292000002020000020200000f0
:101ff800202000004e6f000020200000202000005c
:1020080020200000202000002020000020200000c8
:102018002020000020590000657300000000000027
:10202800454e0000440000005365000074000000a5
:10203800546900006d650000004300006f6e0000e9
:1020480066000000456e0000416c00000041000081
:102058006c610000726d00000050000061730000a8
:1020680073000000456d000065720000005200001a
:1020780073740000546900006d0000005265000090
:102088006c61000079000000537400006174000066
:102098000043000042760000657200000050000016
:1020a8007772000046610000696c00000050000073
:1020b8007772000044610000746100000043000072
:1020c800616c0000696200007261000074650000c4
:1020d800004500006e5500007365000064000000b4
:1020e8005265000061640000004400006174000053
:1020f800610000004c45000044420000004f000011
:102108006e0000004f660000660000005761000086
:102118007474000073000000566f00006c740000b7
:1021280073000000416d0000707300000050000053
:102138005356000065720000736900006f6e00005e
:102148000073000065740000000000002e0000000d
:10215800496e000069740000696100006c69000044
:102168007a6900006e670000005300007973000070
:10217800746500006d200000776900006c6c000039
:102188002072000065730000746100007274000022
:10219800206900006e200000313500002073000027
:1021a800656300006f6e0000647300002064000027
:1021b80075650000207400006f6100002063000056
:1021c8006f6d00006d7500006e69000063610000ae
:1021d800746900006f6e0000206c0000696e0000da
:1021e8006b700000726f0000626c0000656d00008b
:0421f8002e000000b5
:020000040000fa
:1021fc000400fa00204798002e4090006f4f6000ba
:10220c002e4090000080fb004400de001047980038
:10221c001e4090006c000700cb02a90027000700ad
:10222c001e407800680007002400070020002000f2
:10223c00951a07000080fa00000006000400fa005e
:10224c00204798002e4090006f4f60002e40900069
:10225c000080fb004400de00104798001e409000f8
:10226c0059000700cb02a800140007001e4078009c
:10227c0055000700110007000080fa00000006005e
:10228c000400fa00100798009e009000010f7800df
:10229c00040037001e007800104078001e0fe80084
:1022ac00e6ff07001e007800104078000004e000f4
:1022bc00f8ff3a000080fa00000006000000fa0067
:1022cc00cb22a80010002000631a0700cb22a90023
:1022dc000080fa00000006000200fa000040eb004b
:1022ec003900070040062000671a070030c0b30011
:1022fc0035000700e0012000631a0700efff07001c
:10230c00a0002000601a0700ecff0700a0002000ce
:10231c005d1a0700e9ff0700a00020005a1a070009
:10232c0020c0b30028000700e4ff070080c2b30000
:10233c00afff070000c1b300adff0700c0c0b30082
:10234c00abff070060c0b300a9ff0700c0c0b3001b
:10235c00a7ff070010c0b300a5ff07002000200056
:10236c00491a070020c0b300a1ff0700e0c7b30063
:10237c003ce9b7003d69ef000040eb00004f7800ee
:10238c000b0037009e80fb0030892000008040004d
:10239c0001c2b300014878009e80fb00408e2000f3
:1023ac000080400001c2b300014878001e4fe800d5
:1023bc00f0c4b3009e40780080cf5000f1ff36008f
:1023cc000080fa00000006000200fa00004f7800be
:1023dc009e40780061c06000614060006140600018
:1023ec000080fb00610060004c00dd005216800094
:1023fc00f1ff2e0081006100010070005016880072
:10240c001e80fb000000d100004f78009e40780039
:10241c0061c0600061406000614060000080fb00b2
:10242c00610060004d00dd0052168000f1ff2d00b0
:10243c008100610001007000501688001e80fb00b6
:10244c000000d100004f78009e40780061c0600011
:10245c0061406000614060000080fb006100600032
:10246c004e00dd0052168000f1ff2b008100610050
:10247c0001007000501688001e80fb000000d10087
:10248c00004f78009e40780061c0600061406000a1
:10249c00614060000080fb004f00dd0052168000a0
:1024ac00f1ff2700810061000100700050168800c8
:1024bc000080fa00000006000a00fa0030079800bd
:1024cc00014f9800124f9800be009000010f780049
:1024dc00be009000110798000040eb0040479800a8
:1024ec000040eb00504798001e4890000004e000ac
:1024fc0050003d001e4890000040ea00104f98002c
:10250c00030037005e4090000040e8005047980000
:10251c001e009000104078000080fb000000ea00d4
:10252c004f00de00004078009e0090008100e80023
:10253c00110798000004e000f2ff3a000040eb00a5
:10254c00404798000c0037000e4890008080fb003c
:10255c004e4090000000fb0080804000408e200028
:10256c000080400001c2b300014878004e4090004a
:10257c000040e800404798004e4090008000fb006f
:10258c001e4890000001fb005e4090000000fb0024
:10259c0000005100808f5000ebff35000e0037001b
:1025ac000e4890008080fb004e4090000000fb0025
:1025bc00008140001e00780090407800408e200082
:1025cc0000004100014878004e4090000040e800b7
:1025dc00404798001e0fe8001e007800104078005d
:1025ec000004e000eeff3a00350037000e48900082
:1025fc008080fb004e4090000000fb0000814000fa
:10260c001e00780090407800408e200000004100b1
:10261c00014878004e4090000040e8004047980088
:10262c001e0fe8005e4090000040e8005047980004
:10263c0001003700000000001e00780010407800f8
:10264c000004e000e9ff3a001e4890000004e0009e
:10265c001b0034000040eb00404798000f0037008f
:10266c000e4890008080fb005e4090000000fb0054
:10267c00808040004e4090000000fb0080804000b5
:10268c00408e20000080400001c2b3000148780059
:10269c004e4090000040e800404798004e409000ab
:1026ac008000fb001e4890000001fb005e40900083
:1026bc000000fb0000005100808f5000e8ff350047
:1026cc000080fa00000006000000fa0035c9bf00c7
:1026dc000080fb006101b9000080eb008080eb0002
:1026ec000200400083804800720c20000300200090
:1026fc00820f5000838f580015013e0000600100ce
:10270c00c9003700ca003700cb003700c4003700bf
:10271c00cb003700cc003700cd003700ce0037009f
:10272c00cf003700d0003700d1003700d20037007f
:10273c00d3003700d4003700d50037000401370030
:10274c0003013700d4003700d5003700d60037001e
:10275c00d7003700d8003700d9003700da0037002f
:10276c00db003700dc003700dd003700de0037000f
:10277c00df003700e0003700e1003700e2003700ef
:10278c00ef003700e2003700e3003700e4003700c9
:10279c00e5003700ee003700ed003700ec003700a5
:1027ac00eb003700ea003700e9003700e80037009b
:1027bc00e7003700e6003700e5003700e40037009b
:1027cc00e3003700e2003700e1003700e00037009b
:1027dc00df003700de003700dd003700dc0037009b
:1027ec00db003700da003700d9003700d80037009b
:1027fc00d7003700d6003700d5003700d40037009b
:10280c00d3003700d2003700d1003700d00037009a
:10281c00cf003700ce003700cd003700cc0037009a
:10282c00cb003700ca003700c9003700c80037009a
:10283c00c7003700c6003700c5003700c40037009a
:10284c00c3003700c2003700c1003700c00037009a
:10285c00bf003700be003700bd003700bc0037009a
:10286c00bb003700ba003700b9003700b80037009a
:10287c00b7003700b6003700b5003700b40037009a
:10288c00b3003700b2003700b1003700a8003700a2
:10289c00a9003700ae003700ad003700ac003700a0
:1028ac00ab003700aa003700a9003700a80037009a
:1028bc00a7003700a6003700a5003700a40037009a
:1028cc00a3003700a2003700a1003700a00037009a
:1028dc009f0037009e0037009d0037009c0037009a
:1028ec009b0037009a00370099003700980037009a
:1028fc00970037009600370095003700940037009a
:10290c009300370092003700910037009000370099
:10291c008f0037008e0037008d0037008c00370099
:10292c008b0037008a003700890037008800370099
:10293c008700370086003700850037008400370099
:10294c008300370082003700810037008000370099
:10295c007f0037007e0037007d0037007c00370099
:10296c007b0037007a003700790037007800370099
:10297c007700370076003700750037007400370099
:10298c007300370072003700710037007000370099
:10299c006f0037006e0037006d0037006c00370099
:1029ac006b0037006a003700690037006800370099
:1029bc006700370066003700650037006400370099
:1029cc006300370062003700610037006000370099
:1029dc005f0037005e0037005d0037005c00370099
:1029ec005b0037005a003700590037005800370099
:1029fc005700370056003700550037005400370099
:102a0c005300370052003700510037005000370098
:102a1c004f0037004e0037004d0037004a0037009a
:102a2c00ae0007004b003700b80007004900370024
:102a3c00a101070047003700f601070045003700e9
:102a4c0023020700430037003b0207004100370018
:102a5c00550207003f003700920207003d00370087
:102a6c00a80207003b003700bf02070039003700ff
:102a7c00d60207003700370018030700350037006f
:102a8c005f03070033003700dd0307003100370018
:102a9c00240407002f003700e80407002d0037003e
:102aac00020507002b0037009805070029003700a6
:102abc00be05070027003700e40507002500370096
:102acc00f605070023003700270607002100370012
:102adc00410607001f0037005c0607001d00370089
:102aec004f0707001b003700360807001900370096
:102afc009808070017003700cb08070015003700af
:102b0c00f9080700130037005909070011003700b6
:102b1c00a80907000f003700fe0907000d00370059
:102b2c00800407000b003700a404070009003700dd
:102b3c00370a0700070037004a0a0700050037006c
:102b4c00680a070003003700100b0700010037006c
:102b5c00460007000080fa00000006000400fa009e
:102b6c00004f78001147980022479800334798008f
:102b7c001e4078000004e00002003a0035c9bf0096
:102b8c00004f78001e4090000004e00002003a0064
:102b9c0035c9bf00104798002e4090000004e0009b
:102bac0002003a0035c9bf00204798003e40900013
:102bbc000004e00002003a0035c9bf00304798001d
:102bcc005bc9bf00e14f500007003a001e4078007f
:102bdc0035e9b7005bc9bf000040e8005be9b7000e
:102bec000040eb001f0037005cc9bf00e14f5000f4
:102bfc0007003a001e40900035e9b7005cc9bf00e1
:102c0c000040e8005ce9b70010c0b30015003700c5
:102c1c005dc9bf00e14f500007003a002e40900004
:102c2c0035e9b7005dc9bf000040e8005de9b700b9
:102c3c0020c0b3000b0037005ec9bf00e14f50004d
:102c4c0007003a003e40900035e9b7005ec9bf006e
:102c5c000040e8005ee9b70030c0b3000100370067
:102c6c0000c0eb000080fa00000006000a00fa0029
:102c7c0013c0b30012c0b30011c0b30010c0b30036
:102c8c00b6ff070035c9bf000080fb00000f7800bd
:102c9c0035c9bf008080fb000e80e800a200200038
:102cac006cf8070042c1b3008040eb003080280074
:102cbc0001fe070092c3b30041c1b300e0802800bd
:102ccc00fdfd07000e80e800d2cfb300d1c4b300e5
:102cdc00f9fd07000080fa00000006000000fa0071
:102cec0013c0b3000041eb008040eb000040eb0050
:102cfc009aff070042c1b3008040eb00d08128004e
:102d0c00edfd07000080fa00000006002800fa0024
:102d1c0023c0b3000041eb008040eb0050c0b30077
:102d2c008eff07000000fb000000e00005003200f1
:102d3c000000e00008003500e20f500006003c00e7
:102d4c0002003700391207000300370056c8bf00d5
:102d5c000040e80056e8b7005016800064006000a0
:102d6c000000e00008003a00d2c9bf008080fb00e0
:102d7c00d0cc2c000008b8004308de0000407800de
:102d8c006140600056e8b700ec160700bb15070061
:102d9c0056c8bf00e14f5000010034005668ef00e8
:102dac0000c2b300004f7800d0c9bf008080fb0088
:102dbc00d0cc2c000008b8004308de00004078009e
:102dcc000043b00010479800d0c9bf000081fb0041
:102ddc00d0cc2c000010b8004308de006a00b9000b
:102dec000000780000005100004078000043b00063
:102dfc0020479800a0c3b30030479800d1c9bf004a
:102e0c008080fb00d0cc2c000008b8004308de000a
:102e1c00004078000043b00040479800d1c9bf0083
:102e2c000081fb00d0cc2c000010b8004308de0061
:102e3c006a00b900000078000000510000407800e2
:102e4c000043b00050479800a0c3b30060479800ff
:102e5c00d2c9bf008080fb00d0cc2c000008b80089
:102e6c004308de00004078000043b0007047980033
:102e7c00d2c9bf000081fb00d0cc2c000010b800e0
:102e8c004308de006a00b900000078000000510021
:102e9c00004078000043b000004f980000c2b3001f
:102eac00104f980000c2b300204f9800cec9bf004d
:102ebc008080fb00d0cc2c000008b8004308de005a
:102ecc00004078000043b000304f9800cec9bf00de
:102edc000081fb00d0cc2c000010b8004308de00b1
:102eec006a00b90000007800000051000040780032
:102efc000043b000404f9800f0c2b300504f980010
:102f0c00cdc9bf008080fb00d0cc2c000008b800dd
:102f1c004308de00004078000043b000604f98008a
:102f2c00cdc9bf000081fb00d0cc2c000010b80034
:102f3c004308de006a00b900000078000000510070
:102f4c00004078000043b000704f9800f0c2b3000e
:102f5c0000579800ccc9bf008080fb00d0cc2c005f
:102f6c000008b8004308de00004078000043b000c1
:102f7c0010579800ccc9bf000081fb00d0cc2c00ae
:102f8c000010b8004308de006a00b90000007800a9
:102f9c0000005100004078000043b000205798001a
:102fac0000c2b300305798000040eb004057980027
:102fbc000041eb008040eb000e0078003efd070066
:102fcc0056c8bf000004e00017003a005ac9bf0001
:102fdc008000fb0075004700a20020009df7070051
:102fec00f2c0b30041c1b3008082280032fd07005b
:102ffc0075004700d2cfb30031c2b3002efd0700dd
:10300c000041eb0061c2b300308328002afd0700a9
:10301c001f0a07000041eb0081c2b300708520003d
:10302c0025fd070019003700124a8000234a800052
:10303c007c004700a100200094f707000041eb0042
:10304c0041c1b300608328001bfd07007c004700d2
:10305c00b2cfb30011c2b30017fd07000041eb0063
:10306c0061c2b3004084280013fd0700c2c0b30046
:10307c0081c2b300708428000ffd07000041eb00f3
:10308c0041c3b300a08820000bfd07000041eb00fa
:10309c00c1c3b3002085280007fd070039c9bf0054
:1030ac000004e00002003a0010c0b30039e9b70098
:1030bc000080fa00000006002800fa0013c0b300dc
:1030cc000041eb008040eb0050c0b300a3fe0700b2
:1030dc000000fb000000e00001003a005311070063
:1030ec0016160700e5140700504a8000614a80005c
:1030fc0000017800304a8000414a800000007800ce
:10310c0000005100000f78001e0078000000e00065
:10311c0002003d000000eb00000f78000041eb00c6
:10312c008040eb0070862800e3fc07000e80e8006e
:10313c00a20020009e00780046f70700524a80004b
:10314c00634a800069004700a100200075f7070062
:10315c005ac9bf008000fb0075004700a200200088
:10316c003cf70700124a8000234a80007c0047008d
:10317c00a100200045f707000e80e800b2cfb30095
:10318c0061c0b300ccfc07000041eb00b1c0b30040
:10319c00e0862800c8fc070069004700b2cfb300e6
:1031ac00c1c0b300c4fc07000041eb0011c1b30067
:1031bc0000872800c0fc070075004700d2cfb30081
:1031cc0031c2b300bcfc07000041eb0061c2b3008c
:1031dc0030882800b8fc07007c004700b2cfb30051
:1031ec0041c3b300b4fc07000041eb0091c3b30032
:1031fc0020892800b0fc070039c9bf000004e0009a
:10320c0002003a0010c0b30039e9b7000080fa00a0
:10321c00000006000800fa008041eb000041eb00c2
:10322c008040eb000040eb004cfe07000000fb0070
:10323c0060004000e30f500011003e0036c9bf0093
:10324c0035e9b7003ac9bf00e14f500002003a001f
:10325c0010c0b3003fe9b7003ac9bf00e24f5000bd
:10326c0002003a0010c0b30040e9b7004169ef001a
:10327c0041c9bf003ae9b7003ac9bf003be9b70002
:10328c005ac9bf000000fb00a2002000800078009b
:10329c000e007800eff607000041eb008040eb00d9
:1032ac00a08a280084fc0700e2cfb30091c1b300d0
:1032bc000e00780080fc07000041eb00b1c1b300a8
:1032cc00408c28007cfc07000080fa0000000600ff
:1032dc000000fa00b3c0b30062c0b300a1c0b300d9
:1032ec0010c0b3001dfe07000000fb00e10f5000f2
:1032fc0003003200e20f50000300320003003700dd
:10330c00de110700010037000e110700c2c3b30025
:10331c008040eb00a08f280067fc07000041eb0009
:10332c00c1c3b300407c280063fc07003969ef007f
:10333c000080fa00000006000000fa0033c1b30060
:10334c0072c0b30051c0b30010c0b30003fe07003d
:10335c000000fb00e20f500008003200e30f5000a9
:10336c0004003200e10f500005003a00af100700d6
:10337c00030037005568ef00010037000000000023
:10338c00c2c3b3008040eb00f09228004afc070057
:10339c000041eb00c1c3b300407c280046fc070091
:1033ac000080fa00000006000000fa00889fbe00b2
:1033bc0023c2b30082c0b30061c0b30010c0b3001d
:1033cc00e6fd07000000fb00e20f50000600320093
:1033dc00e30f500006003200e10f500026003a00c7
:1033ec00d810070024003700931107002200370083
:1033fc0014cabf0018e8b700904a8000a14a8000a8
:10340c00e00f5000e08f58001b003a00504a80003b
:10341c00614a8000904a8800a14a8800504a800086
:10342c00614a80006309b900020178006002b900aa
:10343c008401780003014100330020000300b80030
:10344c000101410082007800e00f5000e08f58002d
:10345c0002003d0063004000e08048004e09dd00a2
:10346c004204de0008047100c28cde000800be00bd
:10347c00704a8800814a8800c2c3b3008040eb00c8
:10348c00209628000cfc07000041eb00c1c3b300e0
:10349c00407c280008fc07004f04be000080fa00a6
:1034ac00000006000000fa0043c2b30092c0b30053
:1034bc0071c0b30010c0b300a8fd07000000fb00f2
:1034cc00e10f500004003200e20f500003003a00fc
:1034dc007b1107000100370000000000c2c3b300dd
:1034ec008040eb0070992800f3fb07000041eb00d3
:1034fc00c1c3b300407c2800effb07000080fa003a
:10350c00000006000000fa0053c2b300a2c0b300d2
:10351c0081c0b30010c0b30090fd07000000fb0099
:10352c00e10f500003003200e20f500003003200a4
:10353c000300370040110700010037004f1107004e
:10354c00c2c3b3008040eb00409d2800dafb0700ab
:10355c000041eb00c1c3b300407c2800d6fb070040
:10356c000080fa00000006000000fa0023c1b3003e
:10357c0052c0b30091c0b30010c0b30077fd070078
:10358c000000fb00e10f500003003200e20f50007e
:10359c000300320003003700491107000100370017
:1035ac0022100700c2c3b3008040eb0040a02800eb
:1035bc00c1fb07000041eb00c1c3b300907d2800a4
:1035cc00bdfb07000080fa00000006000800fa00ae
:1035dc008041eb00c2c0b300e1c0b30050c0b300e7
:1035ec005efd07000000fb000000e000030032005d
:1035fc00e30f500003003200050037001c100700d9
:10360c00030037000ec8bf000040e8000ee8b7000a
:10361c000041eb008040eb0040a32800a6fb070014
:10362c000ec8bf00e14f500007003a000041eb000c
:10363c0051c2b300a0a528009ffb070010c0b30027
:10364c000ee8b700050037000041eb0051c2b30093
:10365c00e0a5280098fb07000e68ef000041eb0086
:10366c0081c2b30020a6280093fb07000fc8bf003f
:10367c000004e0000f00320011c8bf000000fb0086
:10368c00a2002000800078000e007800f1f5070001
:10369c00e2cfb30091c3b3000e00780086fb0700a5
:1036ac000041eb00b1c3b30040a7280082fb070028
:1036bc00040037000041eb0091c3b300e0a52800e3
:1036cc007dfb07000041eb00c1c3b300407c280028
:1036dc0079fb07000080fa00000006001400fa00d5
:1036ec00d3c0b300e2c0b300b1c0b30050c0b3004c
:1036fc001afd07000000fb000000e0000300320090
:10370c00e30f50000300320004003700d80f07000d
:10371c000200370011c8bf003ee9b7000041eb00c2
:10372c008040eb0060a7280063fb07000fc8bf00b8
:10373c000004e0000f00320011c8bf000000fb00c5
:10374c00a2002000800078000e007800c1f5070070
:10375c00e2cfb30051c2b3000e00780056fb070055
:10376c000041eb0071c2b30040a7280052fb0700d8
:10377c00040037000041eb0051c2b300e0a5280063
:10378c004dfb07000041eb0081c2b300c0a928002b
:10379c0049fb070010c8bf000004e0000e00320017
:1037ac0012c8bf008000fb006c004700a200200084
:1037bc00a8f507006c004700e2cfb30091c3b3003b
:1037cc003dfb07000041eb00b1c3b30040a728004c
:1037dc0039fb0700040037000041eb0091c3b30034
:1037ec00e0a5280034fb07000041eb00c1c3b30087
:1037fc00407c280030fb07000080fa000000060027
:10380c000e00fa00c3c0b3000041eb008040eb0097
:10381c00c0c0b300d1fc07000000fb00e20f500059
:10382c001a003200e30f50002e003200e10f50005e
:10383c0036003a000fc8bf000004e00003003a0055
:10384c0010c0b3000fe8b700300037003ec9bf000e
:10385c00f34f500004003c003ec9bf000040e8009c
:10386c003ee9b70029003700e19320009140780031
:10387c00e0c5b30080cf50001f003c003ec9bf0024
:10388c00654040003ee9b700200037000fc8bf007c
:10389c000004e0001a0032003ec9bf00f44f500093
:1038ac00040034003ec9bf00654050003ee9b7003b
:1038bc00160037003ec9bf00e14f50000400340031
:1038cc003ec9bf000040e9003ee9b7000f003700d9
:1038dc003ec9bf00e14f50000b003c000f68ef00e9
:1038ec000a0037003ec9bf0011e8b7006269ef005b
:1038fc005f0f0700050037000000000003003700d1
:10390c000000000001003700000000000041eb0047
:10391c008040eb00e0aa2800e7fa07000041eb002a
:10392c0041c2b300c0932000e3fa07000fc8bf00e8
:10393c000004e0000f0032003ec9bf000000fb0095
:10394c00a2002000800078000e00780041f50700ee
:10395c00e2cfb30051c2b3000e007800d6fa0700d4
:10396c000041eb0071c2b30040a72800d2fa070057
:10397c00040037000041eb0051c2b300e0a5280061
:10398c00cdfa07000041eb0081c2b300c0a92800aa
:10399c00c9fa070010c8bf000004e0000e00320096
:1039ac0012c8bf008000fb0067004700a200200087
:1039bc0028f5070067004700e2cfb30091c3b300be
:1039cc00bdfa07000041eb00b1c3b30040a72800cb
:1039dc00b9fa0700040037000041eb0091c3b300b3
:1039ec00e0a52800b4fa07000041eb00c1c3b30006
:1039fc00e07e2800b0fa07000080fa000000060004
:103a0c000e00fa00f3c0b300b2c0b300c1c0b300e3
:103a1c0050c0b30051fc07000000fb000000e000a8
:103a2c0003003200e30f50000300320004003700a3
:103a3c000f0f07000200370012c8bf003ee9b700a5
:103a4c000041eb008040eb0030ad28009afa0700f3
:103a5c000fc8bf000004e0000f00320011c8bf0007
:103a6c000000fb00a2002000800078000e0078000f
:103a7c00f8f40700e2cfb30051c2b3000e00780097
:103a8c008dfa07000041eb0071c2b30040a728007b
:103a9c0089fa0700040037000041eb0051c2b30063
:103aac00e0a5280084fa07000041eb0081c2b300b6
:103abc0090af280080fa070010c8bf000004e00097
:103acc000e00320012c8bf008000fb0067004700e8
:103adc00a2002000dff4070067004700e2cfb3002c
:103aec0091c3b30074fa07000041eb00b1c3b300fb
:103afc0040a7280070fa0700040037000041eb00d3
:103b0c0091c3b300e0a528006bfa07000041eb005d
:103b1c00c1c3b300907d280067fa07000080fa004b
:103b2c00000006000e00fa00e3c0b3000041eb00f9
:103b3c008040eb00e0c0b30008fc07000000fb0075
:103b4c00e20f50001a003200e30f50002e0032003a
:103b5c00e10f500036003a0010c8bf000004e0002e
:103b6c0003003a0010c0b30010e8b7003000370073
:103b7c003ec9bf00f34f500004003c003ec9bf00db
:103b8c000040e8003ee9b70029003700e19320002f
:103b9c0091407800e0c5b30080cf50001f003c007e
:103bac003ec9bf00654040003ee9b7002000370029
:103bbc0010c8bf000004e0001a0032003ec9bf006c
:103bcc00f44f5000040034003ec9bf006540500063
:103bdc003ee9b700160037003ec9bf00e14f500068
:103bec00040034003ec9bf000040e9003ee9b700c4
:103bfc000f0037003ec9bf00e14f50000b003c00e6
:103c0c001068ef000a0037003ec9bf0012e8b70089
:103c1c006369ef00960e07000500370000000000f6
:103c2c000300370000000000010037000000000016
:103c3c000041eb008040eb0030ad28001efa07007d
:103c4c000fc8bf000004e0000f00320011c8bf0015
:103c5c000000fb00a2002000800078000e0078001d
:103c6c007cf40700e2cfb30051c2b3000e00780021
:103c7c0011fa07000041eb0071c2b30040a7280005
:103c8c000dfa0700040037000041eb0051c2b300ed
:103c9c00e0a5280008fa07000041eb0081c2b30040
:103cac00b0b0280004fa07000041eb0081c3b30058
:103cbc00c093200000fa070010c8bf000004e00009
:103ccc000e0032003ec9bf008000fb0067004700b9
:103cdc00a20020005ff4070067004700e2cfb300aa
:103cec0091c3b300f4f907000041eb00b1c3b3007a
:103cfc0040a72800f0f90700040037000041eb0052
:103d0c0091c3b300e0a52800ebf907000041eb00dc
:103d1c00c1c3b300e07e2800e7f907000080fa0079
:103d2c00000006001800fa0083c0b30082c0b30084
:103d3c0081c0b30080c0b30088fb07003240800014
:103d4c0043408000a10020000e00780075f40700ad
:103d5c0052408000634080006c004700a1002000ae
:103d6c0070f407000041eb008040eb00c0b128006c
:103d7c00d1f90700f2ceb30041c1b3000e007800b8
:103d8c00cdf9070072c1b30051c2b30010b32800c3
:103d9c00c9f907006c00470002cfb300c1c3b300e0
:103dac00c5f907000041eb00c1c4b30010b42800f2
:103dbc00c1f907000080fa00000006000000fa00bc
:103dcc0093c0b30092c0b30091c0b30090c0b300d5
:103ddc0062fb07000041eb008040eb0060b4280060
:103dec00b5f907000041eb0041c1b300b0b52800a4
:103dfc00b1f907000041eb00d1c1b30020822000d3
:103e0c00adf907000041eb0081c2b30050b62800a9
:103e1c00a9f907000041eb0011c3b300e0822000b8
:103e2c00a5f9070042c1b300c1c3b300f0b6280026
:103e3c00a1f907000080fa00000006000000fa005b
:103e4c00a3c0b300a2c0b300a1c0b300a0c0b30014
:103e5c0042fb07000041eb008040eb0040b728001c
:103e6c0095f9070082c0b300c1c0b300a083200045
:103e7c0091f907000041eb0041c1b30010b82800d4
:103e8c008df9070082c0b30001c2b300e0b828006e
:103e9c0089f907000041eb0081c2b30070b928001a
:103eac0085f907000080fa00000006000000fa0007
:103ebc0055c8bf00e64f50004b0032008041eb006c
:103ecc000041eb008040eb000040eb0023fb0700bf
:103edc000000fb00e10f500013003200e10f500016
:103eec0003003c000000e000060032002800370010
:103efc00e20f500015003200e30f50001c0032009e
:103f0c002300370055c8bf000081fb00318420001e
:103f1c008100410012c3b300824878000040e800e1
:103f2c0055e8b7001a00370055c8bf000081fb00e8
:103f3c00318420008100410022c3b3008248780004
:103f4c000040e80055e8b7001100370055c8bf0025
:103f5c000081fb00318420008100410032c3b3009a
:103f6c00824878000040e80055e8b70008003700a8
:103f7c0055c8bf000081fb00318420008100410046
:103f8c0042c3b300824878000040e80055e8b7000f
:103f9c00c2c2b3008040eb0000bc280046f9070009
:103fac0055c8bf000080fb00e20f50003d003200fe
:103fbc00e20f500005003c000000e0002f00320032
:103fcc00e10f5000320032004a003700e40f50007d
:103fdc003e003200e40f500037003500e50f500072
:103fec003f003200430037003184200091407800bc
:103ffc0000c8bf0080cf50001d003a004184200053
:10400c009140780001c8bf0080cf500018003a00e2
:10401c00518420009140780002c8bf0080cf50002e
:10402c0013003a00618420009140780003c8bf005f
:10403c0080cf50000e003a0071842000914078002f
:10404c0004c8bf0080cf500009003a0081842000d2
:10405c009140780005c8bf0080cf500004003a00a2
:10406c0040c1b30035e9b700dd0c0700250037006f
:10407c0010c0b30035e9b700220037000041eb0057
:10408c00c1c2b30040bd28000bf90700190037006e
:10409c000041eb00c1c2b30000be280006f90700c6
:1040ac00140037000041eb00c1c2b300c0be2800b1
:1040bc0001f907000f0037000041eb00c1c2b3004b
:1040cc0080bf2800fcf807000a0037000041eb0015
:1040dc00c1c2b30040c02800f7f807000500370044
:1040ec000041eb00c1c2b30000c12800f2f8070088
:1040fc00000000000041eb0071c3b300c0c12800f8
:10410c00edf807000080fa00000006000000fa003d
:10411c00a3c1b30052c1b30091c1b30060c0b300de
:10412c008efa07000000fb00e20f50000600320080
:10413c00e30f500006003200e10f500011003a006e
:10414c00150e07000f003700100d07000d0037008b
:10415c0010c0b300e3e9b700f8110700d0c9bf00e5
:10416c00e4e9b700d1c9bf00e5e9b700cdc9bf008c
:10417c00e6e9b700cec9bf00e7e9b700ccc9bf007c
:10418c00e8e9b700c2c3b3008040eb0060c328006d
:10419c00c9f807000041eb00c1c3b300407c280004
:1041ac00c5f807000080fa00000006000000fa00c5
:1041bc00b3c1b30062c1b30041c1b30060c0b3006e
:1041cc0066fa07000000fb00e20f50000600320008
:1041dc00e30f500006003200e10f500011003a00ce
:1041ec007f0c07000f003700570e07000d0037003b
:1041fc00904a8000a14a8000e00f5000e08f5800e8
:10420c0004003a00504a8000614a8000904a8800bd
:10421c00a14a8800904a8000a14a8000b04a8800d8
:10422c00c14a8800c2c3b3008040eb0000c728001d
:10423c00a1f807000041eb00c1c3b300407c28008b
:10424c009df807000080fa00000006000000fa004c
:10425c00d3c1b30072c1b30051c1b30060c0b3008d
:10426c003efa07000000fb00e10f500001003a008d
:10427c00c60c0700c2c3b3008040eb00c0ca2800c4
:10428c008df807000041eb00c1c3b300407c28004f
:10429c0089f807000080fa00000006000000fa0010
:1042ac0013c2b30082c1b30061c1b30060c0b300dc
:1042bc002afa07000000fb00e20f50000600320053
:1042cc00e30f500006003200e10f50001c003a00d2
:1042dc001d0e07001a003700790d07001800370073
:1042ec005568ef00f0c5b30053e8b70053c8bf00e2
:1042fc0051e8b70051c8bf004fe8b7004fc8bf0026
:10430c004de8b7004dc8bf004be8b7004bc8bf0025
:10431c0049e8b70000c2b30052e8b70052c8bf006a
:10432c0050e8b70050c8bf004ee8b7004ec8bf00f9
:10433c004ce8b7004cc8bf004ae8b7005468ef001f
:10434c00c2c3b3008040eb0060ce28005af80700cf
:10435c000041eb00c1c3b300407c280056f80700b5
:10436c000080fa00000006000000fa00c3c1b30090
:10437c0092c1b30071c1b30060c0b300f7f907007c
:10438c000000fb00e20f500003003200e30f50006e
:10439c0003003200060037007f0d070004003700d1
:1043ac0014c8bf0016e8b70015c8bf0017e8b7005f
:1043bc00c2c3b3008040eb0020d228003ef80700b7
:1043cc000041eb00c1c3b300407c28003af8070061
:1043dc000080fa00000006000000fa0033c2b300af
:1043ec0042c1b30081c1b30060c0b300dbf9070068
:1043fc000000fb00e20f500006003200e30f5000fb
:10440c0006003200e10f500006003a002c0d0700a8
:10441c0004003700f20b0700020037005fc9bf0031
:10442c0060e9b700c2c3b3008040eb00a0d5280000
:10443c0021f807000041eb00c1c3b300907d2800b8
:10444c001df807000080fa00000006000000fa00ca
:10445c008041eb000041eb008040eb000040eb00a2
:10446c00bef907000000fb00e10f500019003200fc
:10447c00e10f500003003c000000e0000600320099
:10448c00cc003700e20f500066003200e30f500002
:10449c00a2003200c7003700e3c9bf000040e900aa
:1044ac00e3e9b700e3c9bf000004e000bc003a0038
:1044bc0061c9bf000004e0000300320010c0b3006b
:1044cc00e3e9b700bb00370040c1b30035e9b700e2
:1044dc00b8003700e3c9bf000000fb00e30f500039
:1044ec0022003200e30f500005003c00e10f5000a9
:1044fc0008003200e20f500011003200ad0037000e
:10450c00e40f50002a003200e50f50003900320051
:10451c00a8003700e4c9bf000000fb008000e800e1
:10452c008001200000017800110009008200d800f1
:10453c008000fd0000407800e4e9b7003800370047
:10454c00e5c9bf000000fb008000e800c0032000ac
:10455c0000017800110009008200d8008000fd00e5
:10456c0000407800e5e9b7002d003700e7c9bf002f
:10457c000040e900e7e9b700e7c9bf000000fb0015
:10458c008000e800f0012000000178001100090013
:10459c008200d8008000fd0000407800e7e9b700f9
:1045ac00e7c9bf000040e800e7e9b7001c0037008e
:1045bc00e6c9bf000040e900e6e9b700e6c9bf0064
:1045cc000000fb008000e800c00020000001780023
:1045dc00110009008200d8008000fd000040780026
:1045ec00e6e9b700e6c9bf000040e800e6e9b7001d
:1045fc000b003700e8c9bf000040e800e8e9b7004d
:10460c00819e20009140780030c6b30080cf5000ce
:10461c0065003400e0c0b300e8e9b700650037007e
:10462c0064003700e3c9bf000000fb00e30f50003b
:10463c001e003200e30f500005003c00e10f50005b
:10464c0008003200e20f50000f0032005900370012
:10465c00e40f50001e003200e50f50002500320020
:10466c0054003700e4c9bf000040e900e4e9b7009a
:10467c00e4c9bf000004e00002003d0070c1b300bb
:10468c00e4e9b70024003700e5c9bf000040e900a9
:10469c00e5e9b700e5c9bf000004e00002003d00f9
:1046ac00b0c3b300e5e9b7001b003700e7c9bf0092
:1046bc000040e900e7e9b700e7c9bf000004e000eb
:1046cc0002003c00f0c1b300e7e9b700120037006c
:1046dc00e6c9bf000040e900e6e9b700e6c9bf0043
:1046ec000004e00002003c00c0c0b300e6e9b700e3
:1046fc0009003700e8c9bf000040e900e8e9b7004d
:10470c00e8c9bf00ed4f500029003c0030c6b30093
:10471c00e8e9b7002700370026003700e3c9bf00df
:10472c000040e800e3e9b700e3c9bf00e64f5000e2
:10473c0020003a00549e200014427800439e200032
:10474c0093417800729e200012417800619e2000f7
:10475c0091407800e8c9bf008042eb00a810070028
:10476c00e14f50000b003a002e0b070061c9bf004f
:10477c000004e0000400320080ccb30035e9b7003f
:10478c004f0c07000b00370040c1b30035e9b700f0
:10479c000800370040c6b30035e9b7000500370004
:1047ac00000000000300370000000000010037008b
:1047bc00000000009c0f070092c1b3008040eb008a
:1047cc0020d928003cf7070022c1b30091c1b300e7
:1047dc00909e200038f7070012c1b300b1c2b3009d
:1047ec00309f200034f70700e3c9bf00e54f5000ad
:1047fc00050032000041eb00c1c3b30000da280011
:10480c002df70700040037000041eb00c1c3b300d3
:10481c00e07e280028f707000080fa000000060060
:10482c000800fa008041eb000041eb008040eb00f7
:10483c0050c1b300c9f807000000fb00e20f5000a4
:10484c004a003200e30f500095003200e10f500097
:10485c00c3003a00b24a8000c34a800040002000e6
:10486c0001002000800f5100818f590007003e008d
:10487c00b04a8000c14a800061004000e0804800de
:10488c00b04a8800c14a8800b5003700b24a80009f
:10489c00c34a80001003200001002000800f51004b
:1048ac00818f590007003e00b04a8000c14a800049
:1048bc0065004000e0804800b04a8800c14a88008a
:1048cc00a7003700b24a8000c34a8000703821002c
:1048dc0001002000800f5100818f590007003e001d
:1048ec00b04a8000c14a80002003b0000180b000b3
:1048fc00b04a8800c14a880099003700b24a80004b
:10490c00c34a8000f070220001002000800f51008b
:10491c00818f590007003e00b04a8000c14a8000d8
:10492c004006b0000180b000b04a8800c14a88003f
:10493c008b003700b24a8000c34a8000e0cf2700ca
:10494c0001002000800f5100818f590081003e0032
:10495c00b04a8000c14a8000a00fb0000180b000b6
:10496c00b04a8800c14a88007d003700b24a8000f6
:10497c00c34a80000071220001002000800f51000a
:10498c00818f590007003600b04a8000c14a800070
:10499c00a00fb1000180b100b04a8800c14a880064
:1049ac0035003700b24a8000c34a800080382100ad
:1049bc0001002000800f5100818f59000700360044
:1049cc00b04a8000c14a80004006b1000180b100ad
:1049dc00b04a8800c14a880027003700b24a8000dc
:1049ec00c34a80002003200001002000800f5100ea
:1049fc00818f590007003600b04a8000c14a800000
:104a0c002003b1000180b100b04a8800c14a88007f
:104a1c0019003700b24a8000c34a800050002000c1
:104a2c0001002000800f5100818f590007003600d3
:104a3c00b04a8000c14a800065005000e0805800f8
:104a4c00b04a8800c14a88000b003700b04a800089
:104a5c00c14a8000e00f5000e08f58000600320081
:104a6c00b04a8000c14a800061005000e0805800cc
:104a7c00b04a8800c14a8800b24a8000c34a80000c
:104a8c0000d0270001002000800f5100818f5900b9
:104a9c00320036005629ef005829ef00300037005d
:104aac0000c0eb0014eab700324a8000434a800091
:104abc00b04a8000c14a8000800f5100818f59009c
:104acc001c00310050c1b30035e9b700b04a80007a
:104adc00c14a8000504a8800614a8800b04a800070
:104aec00c14a8000904a8800a14a8800904a800000
:104afc00a14a80006309b900020178006002b90084
:104b0c008401780003014100330020000300b80049
:104b1c0001014100820078004e09dd004200de00f8
:104b2c0000007100c208de00704a8800814a8800cb
:104b3c000400370050c6b30035e9b700b0c1b3006c
:104b4c0019e8b70000c0eb0014eab700a00a070090
:104b5c0003003700000000000100370000000000d7
:104b6c00b04a8000c14a800000007800a2002000fa
:104b7c00800078000e007800b6f007000041eb00d2
:104b8c008040eb0050db28004bf60700b2cfb3009f
:104b9c0061c1b3000e00780047f6070012c2b300e3
:104bac00b1c1b300c0dc280043f607000041eb00a4
:104bbc00c1c3b300e07e28003ff607000080fa0076
:104bcc00000006000000fa0083c1b3000041eb00b6
:104bdc008040eb0080c1b300e0f707000000fb0051
:104bec00e20f500016003200e30f50002400320098
:104bfc00e10f500029003a0017c8bf000004e00084
:104c0c0003003a00e0c1b30017e8b70023003700f7
:104c1c001768ef0016c8bf000080fb008000e8009a
:104c2c008001200000017800110009008200d800ea
:104c3c008000fd000040780016e8b7001700370030
:104c4c0017c8bf00fe4f500002003a001768ef0073
:104c5c0012003700e0c1b30017e8b70016c8bf0058
:104c6c000040e90016e8b70016c8bf00f74f500027
:104c7c000900360070c1b30016e8b7000700370012
:104c8c0016c8bf0014e8b70017c8bf0015e8b70076
:104c9c001c0b0700010037000000000016c8bf0005
:104cac008080fb00d0cc2c000008b8004308de004c
:104cbc00004078000043b0006ce8b70016c8bf0095
:104ccc000081fb00d0cc2c000010b8004308de00a3
:104cdc006a00b90000007800000051000040780024
:104cec000043b0006de8b700a0c3b3006ee8b70096
:104cfc0017c8bf000004e00003003a0000c3b30073
:104d0c006fe8b7000200370030c3b3006fe8b7009c
:104d1c0000c3b30070e8b7007168ef00b2c1b30014
:104d2c008040eb0080dd2800e3f5070012c2b300e1
:104d3c00b1c1b300c0862000dff507000041eb00d5
:104d4c00c1c3b300e07e2800dbf507000080fa0049
:104d5c00000006000e00fa00f3c1b300e2c1b3007c
:104d6c00e1c1b30060c1b3007cf707000000fb0099
:104d7c00e30f500002003a00d0408000e040880071
:104d8c000041eb008040eb0070de2800caf5070004
:104d9c0013c8bf000004e0000b003400d1408000b9
:104dac0067004700a20020002af0070067004700b8
:104dbc00d2cfb30051c2b300bff5070010c0b3008f
:104dcc0013e8b700050037000041eb0051c2b300f7
:104ddc00e0a52800b8f507001368ef00f04080004c
:104dec00a2002000800078000e00780019f0070067
:104dfc000041eb0081c2b300d0e02800aef5070003
:104e0c00d2cfb30091c3b3000e007800aaf507000f
:104e1c000041eb00c1c3b300407c2800a6f507009d
:104e2c000080fa00000006000e00fa0003c2b30076
:104e3c00d2c1b300d1c1b30060c1b30047f70700c2
:104e4c000041eb008040eb0000e228009af50700df
:104e5c0013c8bf00e14f50000b003a00d140800056
:104e6c0067004700a2002000faef07006700470028
:104e7c00d2cfb30051c2b3008ff5070010c0b300fe
:104e8c0013e8b700050037000041eb0051c2b30036
:104e9c00e0a5280088f507001368ef00f0408000bb
:104eac00a2002000800078000e007800e9ef0700d7
:104ebc000041eb0081c2b30060e428007ef50700de
:104ecc00d2cfb30091c3b3000e0078007af507007f
:104edc000041eb00c1c3b300407c280076f507000d
:104eec000080fa00000006000e00fa00d3c1b300e7
:104efc000041eb008040eb00d0c1b30017f7070076
:104f0c000000fb00e20f500014003200e30f5000d1
:104f1c0021003200e10f500027003a0013c8bf00f7
:104f2c000004e00005003a0010c0b30013e8b7001d
:104f3c0020032000e04088001f003700e140800083
:104f4c00503b2000808f500018003c00e040800057
:104f5c002003b000e04088001700370013c8bf00e2
:104f6c000004e00013003200e14080003006200015
:104f7c00808f500004003c001368ef0020032000d9
:104f8c00e04088000c003700e04080002003b100b6
:104f9c00e040880008003700e0408000d0408800e6
:104fac002028ef00290a070003003700000000004a
:104fbc0001003700000000000041eb008040eb00d6
:104fcc0080e528003cf507000041eb0041c2b3002e
:104fdc00c093200038f5070013c8bf000004e000a0
:104fec000b003400e140800067004700a200200065
:104ffc0098ef070067004700d2cfb30051c2b3004f
:10500c002df5070010c0b30013e8b70005003700fa
:10501c000041eb0051c2b300e0a5280026f50700c3
:10502c001368ef00f0408000a200200080007800a0
:10503c000e00780087ef07000041eb0081c2b3003f
:10504c00d0e728001cf50700d2cfb30091c3b30002
:10505c000e00780018f507000041eb00c1c3b30047
:10506c00e07e280014f507000080fa00000006001e
:10507c000e00fa00e3c1b3000041eb008040eb00ee
:10508c00e0c1b300b5f607000000fb00e20f5000d2
:10509c000c003200e30f500012003200e10f500000
:1050ac0018003a00f1408000503b2000808f5000e7
:1050bc0011003c00f04080002003b000f04088005c
:1050cc0010003700f140800030062000808f500027
:1050dc000b003400f04080002003b100f040880049
:1050ec0008003700f040800000418800d709070015
:1050fc002028ef00030037000000000001003700fb
:10510c00000000000041eb008040eb0000e22800b2
:10511c00e9f4070013c8bf00e14f500009003a0042
:10512c00d140800067004700a200200049ef070033
:10513c0067004700d2cfb30051c2b300def40700c2
:10514c00050037000041eb0051c2b300e0a5280078
:10515c00d9f407001368ef00f0408000a200200093
:10516c00800078000e0078003aef07000041eb0059
:10517c0081c2b300f0e82800cff407000041eb0037
:10518c0081c3b300c0932000cbf40700d2cfb3008f
:10519c0091c3b3000e007800c7f407000041eb0088
:1051ac00c1c3b300e07e2800c3f407000080fa00fe
:1051bc00000006000000fa008041eb000041eb000b
:1051cc008040eb0070c0b30064f607000000fb00e9
:1051dc00e20f500007003200e30f500007003200ce
:1051ec00e10f500025003a0000c0eb0018e8b700b2
:1051fc00220037001868ef002000370018c8bf00e5
:10520c000004e00005003200904a8000a14a8000b2
:10521c00b04a8800c14a880004003700704a8000f8
:10522c00814a8000b04a8800c14a8800324a800016
:10523c00434a8000b04a8000c14a8000800f510070
:10524c00818f59000900310070c0b30035e9b700f7
:10525c0018c8bf0014eab700b04a8000c14a8000e9
:10526c00504a8800614a88000400370050c6b300d9
:10527c0035e9b70020c2b30019e8b7000041eb00d4
:10528c008040eb0000ea28008bf4070018c8bf0030
:10529c000004e000050032000041eb0071c1b300d6
:1052ac00c093200084f40700040037000041eb0099
:1052bc0071c1b30080eb28007ff407000041eb00c4
:1052cc0081c1b300a0eb28007bf4070018c8bf0015
:1052dc000004e000050032000041eb00b1c2b30055
:1052ec0080eb280074f40700040037000041eb0049
:1052fc00b1c2b300c09320006ff407000041eb0073
:10530c00c1c2b300e0ec28006bf407000080fa0087
:10531c00000006000000fa0093c1b3000041eb004e
:10532c008040eb0090c1b3000cf607000000fb00be
:10533c00e20f500007003200e30f5000070032006c
:10534c00e10f500008003a0000c0eb0060e9b70024
:10535c00050037006069ef000300370060c9bf002b
:10536c005fe9b7009d09070072c1b3008040eb00f4
:10537c0030ef280050f4070060c9bf000004e000c3
:10538c00050032000041eb0071c1b300c093200056
:10539c0049f40700040037000041eb0071c1b30071
:1053ac0080eb280044f4070032c1b30081c1b30084
:1053bc0070f0280040f4070060c9bf000004e00052
:1053cc00050032000041eb00b1c2b30080eb2800b5
:1053dc0039f40700040037000041eb00b1c2b30000
:1053ec00c093200034f4070002c1b300c1c2b30063
:1053fc00e0a5280030f407000041eb00c1c3b30066
:10540c00a0f028002cf407000080fa000000060031
:10541c000000fa00a3c1b300a2c1b300a1c1b30044
:10542c00a0c1b300cdf50700e14f400003003200ee
:10543c00e3c9bf000040e900e3e9b700c2c3b30011
:10544c008040eb00f0f128001bf4070042c1b300d0
:10545c00c1c3b30040f3280017f407000080fa0022
:10546c00000006000000fa009181200091407800b5
:10547c0019c8bf008041eb000041eb00b7f50700f5
:10548c000000fb000080e900e10f50000f003e001f
:10549c0019c8bf00fb4f500003003a0050c1b300c5
:1054ac0035e9b7000400370070c0b30035e9b70028
:1054bc0018c8bf0014eab700b04a8000c14a800087
:1054cc00504a8800614a8800410807000041eb00ff
:1054dc008040eb00b0f32800f7f307000080fa00df
:1054ec00000006000000fa0055c8bf00e54f500050
:1054fc0057003e008041eb000041eb008040eb0088
:10550c000040eb0095f507000000fb00e10f500098
:10551c001b003200e10f500003003c000000e000d3
:10552c000600320083003700e20f500025003200e5
:10553c00e30f5000350032007e00370055c8bf0025
:10554c000080fb0000004000800078009084200068
:10555c000080400011c3b3000148780055c8bf005b
:10556c000081fb00318420008100410012c3b30094
:10557c00824878000040e80055e8b7006d0037001d
:10558c0055c8bf000080fb00000040008000780080
