:020000040000fa
:080000000002040000000000f2
:020000040000fa
:100008009a0200009a0200009a0200009a02000078
:100018009a0200009a0200009a0200009a02000068
:100028009a0200009a0200009a020000e82f0000dd
:100038009a0200009a0200009a0200007648000026
:100048009a0200009a0200009a0200009a02000038
:100058009a0200009a0200009a0200009a02000028
:100068009a0200009a0200009a0200009a02000018
:100078009a0200009a0200009a0200009a02000008
:100088009a0200009a0200009a0200009a020000f8
:100098009a0200009a020000ac4c00009a0200008c
:1000a8009a0200009a0200009a0200009a020000d8
:1000b8009a0200009a0200009a0200009a020000c8
:1000c8009a0200009a0200009a0200009a020000b8
:1000d8009a0200009a0200009a0200009a020000a8
:1000e8009a0200009a0200009a0200009a02000098
:1000f8009a0200009a0200009a0200009a02000088
:100108009a0200009a0200009a0200009a02000077
:100118009a0200009a0200009a0200009a02000067
:100128009a0200009a020000544d00009a02000052
:100138009a0200009a0200009a0200009a02000047
:100148009a0200009a0200009a0200009a02000037
:100158009a0200009a0200009a0200009a02000027
:100168009a0200009a0200009a0200009a02000017
:100178009a0200009a0200009a0200009a02000007
:100188009a0200009a0200009a0200009a020000f7
:100198009a0200009a0200009a0200009a020000e7
:1001a8009a0200009a0200009a0200009a020000d7
:1001b8009a0200009a0200009a0200009a020000c7
:1001c8009a0200009a0200009a0200009a020000b7
:1001d8009a0200009a0200009a0200009a020000a7
:1001e8009a0200009a0200009a0200009a02000097
:0801f8009a0200009a020000c7
:020000040000fa
:100208009a0200009a0200009a0200009a02000076
:100218009a0200009a0200009a0200009a02000066
:100228009a0200009a0200009a020000e82f0000db
:100238009a0200009a0200009a0200007648000024
:100248009a0200009a0200009a0200009a02000036
:100258009a0200009a0200009a0200009a02000026
:100268009a0200009a0200009a0200009a02000016
:100278009a0200009a0200009a0200009a02000006
:100288009a0200009a0200009a0200009a020000f6
:100298009a0200009a020000ac4c00009a0200008a
:1002a8009a0200009a0200009a0200009a020000d6
:1002b8009a0200009a0200009a0200009a020000c6
:1002c8009a0200009a0200009a0200009a020000b6
:1002d8009a0200009a0200009a0200009a020000a6
:1002e8009a0200009a0200009a0200009a02000096
:1002f8009a0200009a0200009a0200009a02000086
:100308009a0200009a0200009a0200009a02000075
:100318009a0200009a0200009a0200009a02000065
:100328009a0200009a020000544d00009a02000050
:100338009a0200009a0200009a0200009a02000045
:100348009a0200009a0200009a0200009a02000035
:100358009a0200009a0200009a0200009a02000025
:100368009a0200009a0200009a0200009a02000015
:100378009a0200009a0200009a0200009a02000005
:100388009a0200009a0200009a0200009a020000f5
:100398009a0200009a0200009a0200009a020000e5
:1003a8009a0200009a0200009a0200009a020000d5
:1003b8009a0200009a0200009a0200009a020000c5
:1003c8009a0200009a0200009a0200009a020000b5
:1003d8009a0200009a0200009a0200009a020000a5
:1003e8009a0200009a0200009a0200009a02000095
:0803f8009a0200009a020000c5
:020000040000fa
:100400002fd620000eff20000e0188000000000003
:10041000000020000000e000020032000001200087
:10042000200288000c00070080dc2400010020006e
:1004300011000700000020000000e0000200320070
:100440000000020000000000be40020000000000aa
:100450000040da000000fe004440a900e0992000be
:100460000000e0000300320000002000a00188002e
:100470004440a80000000600910188008000780038
:100480000000eb0015003700e280400032a0b4000d
:100490009101ba00e280400032a0b4009102ba009b
:1004a000e280400032a0b4000002eb00472bde00e7
:1004b000f507b200602ce10004003a000059eb009f
:1004c0008301e900fdff3e00040037006128e100e0
:1004d000010032000082eb00040007001101ba00a5
:1004e0000200e000e8ff3a00000006003159ba00bf
:1004f0008301e9000c0032002159ba008301e900b0
:10050000080032000400e00003003a00e2804000ee
:1005100032a0b400f5ff370011d9ba008301e90019
:10052000faff3a008100e800e180400032a0b40008
:10053000000006000040da000000fe006022b80063
:10054000060220000000d0008180d2000482d20088
:100550008582d2000000a0000202520083825a006d
:10056000030031000202420083824a000000a10021
:100570000603e900f3ff3a0000000600efff070062
:100580000400be000000060006c2b30000027800ae
:1005900004007800b042780086cf5200fbff3200a2
:1005a000e9cf5200f9ff3200d6c2b30086cf520025
:1005b00003003a000002780016c0b30005003700bf
:1005c0000043eb00b7c2b30087cf520001003a00ee
:1005d000000278000000eb00020037006a00b9005a
:1005e00000804200b402fb000503b100e98f520015
:1005f000faff3600e04f5300010032000000ea002d
:10060000000006008103780080017800070278006e
:100610000100370085017800110009000282d8002e
:100620008302e80000027800e00f5200f9ff3a0070
:10063000844a7800110009008283d8008002780083
:100640000142780085037800e94f52000100340030
:100650006742420001c3b30081514200e08f520063
:10066000f4ff3a000300780000000600881f7800bd
:1006700000047800e08f500005003d00080078007d
:10068000d4c2b3008100ea000458780001003700aa
:1006900008007800dbff0700080078004f047800ae
:1006a00000000600889fbe000204be008a9fbe00b4
:1006b000800578008c9fbe00010678000200be0015
:1006c000cfe6de0001003700840578000c01be0093
:1006d0009aff07000b02e800e00f5000e08f58007f
:1006e000f9ff3a00004aeb000c01be000800be0012
:1006f000a2ff07000c01be00004578000800be0004
:100700008eff07000004be00e94f550001003400d1
:100710006745450004c3b30084554500e00f54000d
:10072000e08f5c00f0ff3a004f06be000b0078003f
:100730004f05be004f04be0000000600881f780071
:1007400000047800e00f5100e08f590006003d00e2
:1007500008007800d4c2b30060011100e0811900e4
:10076000045878000100370008007800cdff07002a
:0c077000080078004f047800000006002c
:020000040000fa
:10077c0042610000636b00002020000055700000f7
:10078c0020200000446f0000776e00002020000045
:10079c00202000004f4b000000420000616300006d
:1007ac006b20000020550000702000002054000039
:1007bc006f7000002020000020200000204f00005f
:1007cc004b00000042610000636b00002020000021
:1007dc005570000020200000446f0000776e000070
:1007ec0020200000536100007665000000450000e9
:1007fc00525200004f5200002034000030340000f0
:10080c003a0000004d6500006e750000206e00007f
:10081c006f740000206600006f7500006e640000ad
:10082c00004400006562000075670000204d000068
:10083c00656e000075000000526500006d610000df
:10084c00696e0000696e0000673a00000025000028
:10085c00200000004375000072720000656e0000fd
:10086c00742000004c6f0000616400003a0000002e
:10087c002057000000540000696d00006520000046
:10088c006c650000667400003a0000004d650000c5
:10089c006e750000202000002053000077610000de
:1008ac0070200000202000004465000074610000ee
:1008bc00696c0000004c000065660000743a000092
:1008cc00200000002f00000057680000205200009c
:1008dc00656d0000616900006e6900006e670000c4
:1008ec003a200000202000002020000000250000fd
:1008fc00204c00006f610000643a000020200000d2
:10090c0020200000202000002000000020570000c4
:10091c00204d0000656e00007520000020200000b6
:10092c0020200000202000002020000020200000bb
:10093c004261000073690000630000005761000011
:10094c00726e0000696e0000673a0000204c0000d7
:10095c006f770000207000006f7700006572000058
:10096c00212000004f6e00006c7900002000000078
:10097c0025200000726500006d610000696e0000aa
:10098c00696e0000672e000020200000202000006f
:10099c00202000002020000020200000202000004b
:1009ac00202000002020000020200000202000003b
:1009bc002020000020200000204300006c65000077
:1009cc0061720000204100006c610000726d00003b
:1009dc002020000020200000200000004d610000bd
:1009ec00696e0000204d0000656e0000752000004f
:1009fc002020000020200000312000006f66000045
:100a0c00203600002a200000416c000061720000ba
:100a1c006d2000004f700000746900006f6e0000c4
:100a2c007320000020200000202000002020000067
:100a3c00416400006d6900006e2000004d650000ef
:100a4c006e750000004d0000616900006e20000012
:100a5c004d6500006e750000202000002020000075
:100a6c0020320000206f000066200000362a0000b3
:100a7c0020410000646d0000696e0000204d0000f4
:100a8c00656e000075200000202000002020000072
:100a9c002020000020200000204800006967000092
:100aac00682f00004c6f0000770000004d610000c3
:100abc00696e0000204d0000656e0000752000007e
:100acc002020000020200000332000006f66000072
:100adc00203600002a2000004869000067680000ea
:100aec002f4c00006f770000202000002020000019
:100afc0020200000202000002020000020200000ea
:100b0c005374000061740000697300007469000084
:100b1c0063730000004d0000616900006e2000004e
:100b2c004d6500006e7500002020000020200000a4
:100b3c0020340000206f000066200000362a0000e0
:100b4c00205300007461000074690000737400008d
:100b5c0069630000732000002020000020200000aa
:100b6c002020000020200000204c000061730000b9
:100b7c0074200000506f00007765000072200000a8
:100b8c0046610000696c0000757200006500000091
:100b9c004d610000696e0000204d0000656e000084
:100bac0075200000202000002020000035200000cf
:100bbc006f660000203600002a2000004c61000007
:100bcc0073740000205000006f7700006572000005
:100bdc0020460000616900006c7500007265000021
:100bec0020200000416200006f75000074000000be
:100bfc004d610000696e0000204d0000656e000024
:100c0c00752000002020000020200000362000006d
:100c1c006f66000020360000202000004c610000b0
:100c2c0073740000205000006f77000065720000a4
:100c3c0020460000616900006c75000072650000c0
:100c4c002a200000416200006f7500007400000053
:100c5c00416c0000617200006d2000004f700000bc
:100c6c00746900006f6e00007320000031200000da
:100c7c006f660000203300002a2000004175000040
:100c8c0064690000626c000065200000416c00008b
:100c9c00617200006d200000200000004f6e00000b
:100cac00200000004f6600006600000020200000bd
:100cbc00416c0000617200006d20000031200000ca
:100ccc00506f0000776500007220000020000000cb
:100cdc0025000000416c0000617200006d200000d6
:100cec004f700000746900006f6e000073200000ec
:100cfc00322000006f660000203300002a20000024
:100d0c00416c0000617200006d2000003120000079
:100d1c00506f00007765000072200000200000007a
:100d2c0020200000416c0000617200006d2000006a
:100d3c0032200000506f0000776500007220000028
:100d4c0020000000416c0000617200006d2000006a
:100d5c004f700000746900006f6e0000732000007b
:100d6c00322000006f660000203300002a200000b3
:100d7c00416c0000617200006d2000003120000009
:100d8c00506f0000776500007220000000410000e9
:100d9c006c610000726d0000204f00007074000048
:100dac00696f00006e73000020330000206f00009c
:100dbc006620000033200000204100006c61000020
:100dcc00726d000020310000205000006f77000091
:100ddc006572000020200000002a00002041000065
:100dec006c610000726d0000203200002050000089
:100dfc006f7700006572000020200000002a0000c0
:100e0c00204100006c610000726d00002032000077
:100e1c00205000006f770000657200002000000079
:100e2c005965000073740000657200006461000075
:100e3c0079270000732000007573000061670000c3
:100e4c00653a0000202000000020000057680000d8
:100e5c00546f0000746100006c200000757300007a
:100e6c0061670000653a0000002000006b5700002d
:100e7c00680000004c6100007374000020500000fa
:100e8c006f77000065720000204600006169000069
:100e9c006c7500007265000020200000004c000002
:100eac006f73000074200000202000002020000040
:100ebc000052000065730000746f00007265000042
:100ecc006420000000420000616300006b00000021
:100edc00506f00007765000072200000436f000027
:100eec00646500003a2000000044000069730000b3
:100efc0070200000436f0000646500003a20000081
:100f0c0020000000202000004d65000073730000dd
:100f1c006961000068200000436f00006c6c0000e9
:100f2c0065670000652000002020000020200000e4
:100f3c00204300006f6c00006c610000626f0000c9
:100f4c0072610000746f00007279000020200000b4
:100f5c002020000000410000646d0000696e00005c
:100f6c006973000074720000617400006f720000fd
:100f7c00204c00006f670000696e0000005f0000ed
:100f8c00205f0000205f0000205f0000205f000059
:100f9c00205f0000002a0000205f0000205f00009e
:100fac00205f0000205f0000205f0000002a00008e
:100fbc00202a0000205f0000205f0000205f00005e
:100fcc00205f0000002a0000202a0000202a0000d8
:100fdc00205f0000205f0000205f0000002a00005e
:100fec00202a0000202a0000202a0000205f000098
:100ffc00205f0000002a0000202a0000202a0000a8
:10100c00202a0000202a0000205f000000200000a1
:10101c0020200000202000003120000020200000b3
:10102c0020200000322000002020000020200000a2
:10103c00203300002020000020200000203400007d
:10104c0000410000646d0000696e0000204d00003e
:10105c00656e00007520000020200000203100008b
:10106c00206f000066200000362a0000205300008c
:10107c006574000020540000696d0000652f0000ad
:10108c004461000074650000202000002020000056
:10109c002020000020530000657400002050000048
:1010ac006f77000065720000204100006c6c00003e
:1010bc006f63000000410000646d0000696e000069
:1010cc00204d0000656e00007520000020200000ff
:1010dc0020320000206f000066200000362a00003d
:1010ec002053000065740000205000006f77000052
:1010fc0065720000204100006c6c00006f63000002
:10110c002020000020200000204500006d6500001c
:10111c0072670000656e000063790000204f0000cc
:10112c0070740000696f00006e73000000410000d5
:10113c00646d0000696e0000204d0000656e0000bb
:10114c00752000002020000020330000206f0000dc
:10115c0066200000362a0000204500006d65000066
:10116c0072670000656e000063790000204f00007c
:10117c0070740000696f00006e7300002020000086
:10118c0020430000686100006e67000065200000cd
:10119c005061000073730000776f000072640000f0
:1011ac0000410000646d0000696e0000204d0000dd
:1011bc00656e000075200000202000002034000027
:1011cc00206f000066200000362a0000204300003b
:1011dc00686100006e67000065200000506100002f
:1011ec0073730000776f0000726400002020000011
:1011fc002020000020430000686100006e670000a2
:10120c00652000005265000073650000742000002a
:10121c00546900006d65000000410000646d000021
:10122c00696e0000204d0000656e00007520000006
:10123c002020000020350000206f000066200000f8
:10124c00362a000020430000686100006e67000031
:10125c0065200000526500007365000074200000da
:10126c00546900006d650000202000002052000031
:10127c00656c000061790000204300006f6e000077
:10128c00747200006f6c000000410000646d00007f
:10129c00696e0000204d0000656e00007520000096
:1012ac002020000020360000206f00006620000087
:1012bc003620000020430000686100006e670000cb
:1012cc00652000005265000073650000742000006a
:1012dc00546900006d650000202a000020520000b7
:1012ec00656c000061790000204300006f6e000007
:1012fc00747200006f6c00000053000065740000f5
:10130c0020540000696d0000652f0000446100004e
:10131c007465000000420000616300006b20000057
:10132c002055000070200000204400006f77000062
:10133c006e200000204e0000657800007400000054
:10134c005365000074200000506f000077650000aa
:10135c0072200000416c00006c6f000063610000a3
:10136c00746900006f6e0000202000000020000057
:10137c0057680000207000006572000020640000b7
:10138c0061790000005300006574000020520000d9
:10139c00657300006574000020540000696d000046
:1013ac0065000000456d0000657200006765000077
:1013bc006e630000792000004f700000746900001b
:1013cc006f6e000073200000202000002a20000017
:1013dc00456d00006572000020420000757400002d
:1013ec00746f00006e200000202000002000000020
:1013fc0020200000456d00006572000020410000b7
:10140c006c6c00006f630000204e00006f770000d2
:10141c0020200000004500006d6500007267000090
:10142c00656e000063790000204f000070740000ae
:10143c00696f00006e730000202000002020000067
:10144c00204500006d650000722000004275000010
:10145c00747400006f6e000020200000202000003b
:10146c00002a0000204500006d650000722000007d
:10147c00416c00006c6f0000632000004e6f000098
:10148c0077200000004500006d65000072670000c9
:10149c00656e000063790000204f0000707400003e
:1014ac00696f00006e73000020200000202a0000ed
:1014bc00204500006d6500007220000042750000a0
:1014cc00747400006f6e00002020000020000000eb
:1014dc0020200000456d00006572000020410000d6
:1014ec006c6c00006f630000204e00006f770000f2
:1014fc00200000002a200000456d000065720000ed
:10150c00204100006c6c00006f630000204e000056
:10151c006f7700000048000069670000682f00002a
:10152c004c6f000077200000416c00006c6f0000d5
:10153c0063610000746900006f6e000020200000e1
:10154c002020000000200000004800006967000017
:10155c006820000020200000202000002020000037
:10156c00202000002020000020200000202000006f
:10157c00004c00006f7700002020000020200000ad
:10158c00202000002020000020200000202000004f
:10159c0020420000616300006b2000002048000026
:1015ac006967000068200000204c00006f77000085
:1015bc0020200000204f00004b000000526500006e
:1015cc006c61000079200000467500006e6300001d
:1015dc00746900006f6e0000616c0000697400009b
:1015ec00790000004f6e00000042000061630000b3
:1015fc006b200000202000004f6e00002020000017
:10160c00204f00006666000020200000204f0000e4
:10161c004b000000496e0000766100006c69000010
:10162c006420000064610000746500002065000007
:10163c006e740000657200006564000000520000ca
:10164c0065740000757200006e000000436f0000ae
:10165c006e740000696e0000756900006e67000012
:10166c0020770000696c00006c2000002020000036
:10167c0020200000636100007573000065200000ed
:10168c00706f00007765000072200000746f00001e
:10169c002073000068750000742000006f66000065
:1016ac0066200000696d00006d6500006469000033
:1016bc0061740000656c000079210000202000009e
:1016cc00202000005265000074750000726e00004e
:1016dc00202000002020000020200000436f00008c
:1016ec006e740000696e0000756500000045000016
:1016fc006e74000065720000206e000065770000bb
:10170c002070000061730000737700006f7200009e
:10171c00643a00000031000020200000202000006e
:10172c00203200002020000020200000202000009b
:10173c003320000020200000202000003400000096
:10174c00436c000065610000722000002020000046
:10175c00202000002020000020200000202000007d
:10176c005361000076650000004900007320000002
:10177c00697400002061000066740000657200004e
:10178c00207400006865000020200000202000006c
:10179c002072000065730000657400002074000066
:1017ac00696d0000653f000000200000280000006b
:1017bc00280000003a000000330000003000000058
:1017cc0030290000202000002020000020200000f4
:1017dc00204e00006f200000202000002020000080
:1017ec0020200000202000002020000020200000ed
:1017fc00202000005965000073000000200000004c
:10180c002e0d00000a0000003a0000007365000075
:10181c0074000000746900006d6500000070000029
:10182c006f77000065720000006100006c610000c1
:10183c00726d00000070000077640000006500000d
:10184c006d65000072000000766500007273000088
:10185c000070000077720000646f0000776e00006b
:10186c00746900006d650000007000007772000064
:10187c0075700000746900006d6500000072000056
:10188c00657300006574000000720000656c000058
:10189c0061790000007300007461000074000000a6
:1018ac00686c0000006800006967000068000000b8
:1018bc007265000061640000007200006562000047
:1018cc006f6f000074000000506f0000776500001f
:1018dc0072200000636f00006e740000726f0000d5
:1018ec006c2000007379000073740000656d0000bb
:1018fc002020000068610000732000007265000069
:10190c0071750000657300007465000064200000b0
:10191c0061200000202000002020000073790000ce
:10192c0073740000656d0000207200006573000088
:10193c0074610000727400002e00000054690000f5
:10194c006d6500000053000065740000005000003d
:10195c006f77000065720000004100006c610000b0
:10196c00726d00000050000077640000004500001c
:10197c006d65000072000000526500007365000088
:10198c00740000004f6e000000520000656c0000f7
:10199c0061790000004600000053000074610000f3
:1019ac0074000000486900006768000000480000ef
:1019bc004c0000004c6f000077000000300000006d
:1019cc005265000061640000005600006572000062
:1019dc00730000005077000072460000616900003f
:1019ec006c0000005570000064610000746500001c
:1019fc00005500006e6b00006e6f0000776e0000eb
:101a0c00200000002e000000496e000069740000e8
:101a1c00696100006c6900007a6900006e67000063
:101a2c000053000079730000746500006d20000005
:101a3c00776900006c6c0000207200006573000078
:101a4c007461000072740000206900006e200000b8
:101a5c003135000020730000656300006f6e0000dc
:101a6c0064730000206400007565000020740000a1
:101a7c006f610000206300006f6d00006d75000049
:101a8c006e69000063610000746900006f6e0000f5
:101a9c00206c0000696e00006b700000726f00001b
:0c1aac00626c0000656d00002e00000060
:020000040000fa
:101ab8000200fa00004f78009e4278006fc2620070
:101ac8000400780008e8b7009e4278000582fb0011
:101ad8004422de00044278000400780009e8b700d8
:101ae8009480200014427800044078007f000700aa
:101af800cb02a9003200070084802000144278003d
:101b080004407800790007002d000700200020001d
:101b1800fa1f07000080fa00000006000200fa0021
:101b2800004f78009e4278006fc26200040078007f
:101b380008e8b7009e4278000582fb004422de00d8
:101b4800044278000400780009e8b7009480200077
:101b5800144278000440780064000700cb02a80013
:101b680017000700848020001442780004407800a1
:101b78005e000700120007000080fa00000006005f
:101b88000400fa00100798001e029000040f780065
:101b9800050037001e027800144278001e0fe80086
:101ba80004407800ddff07001e0278001442780028
:101bb800e04f5200f7ff3a000080fa0000000600ec
:101bc8000000fa00cb22a80010002000bf1f070069
:101bd800cb22a9000080fa00000006000200fa00eb
:101be8000040eb004100070040062000c31f07002b
:101bf80030c0b3003d000700e0012000bf1f070010
:101c0800efff0700a0002000bc1f0700ecff070043
:101c1800a0002000b91f0700e9ff0700a00020006e
:101c2800b61f070020c0b30030000700e4ff07001c
:101c380080c2b3009eff070000c1b3009cff0700ed
:101c4800c0c0b3009aff070060c0b30098ff070048
:101c5800c0c0b30096ff070010c0b30094ff070090
:101c680020002000a51f070020c0b30090ff070038
:101c7800e4c7b3000002fd00dee8b7000002fd0083
:101c88000042eb000002fd00dfe8b7000002fd00a3
:101c9800ca42a8000042eb00044f78000d0037004c
:101ca8001e4278008482fb00a480200084824200c7
:101cb80004c2b300844a78001e4278008482fb0084
:101cc800b48520008482420004c2b300844a7800ac
:101cd8001e4fe800f4c4b3009e42780084cf52003f
:101ce800efff36000080fa00000006000200fa004c
:101cf800004f78009e42780061c262006142620033
:101d0800614262000482fb00610262004c22dd0035
:101d180056168000f5ff2e0085026300050272004a
:101d2800541688009e4278000582fb000402d10008
:101d3800044f78009e42780061c2620061426200ee
:101d4800614262000482fb00610262004d22dd00f4
:101d580056168000f5ff2d0085026300050272000b
:101d6800541688009e4278000582fb000402d100c8
:101d7800044f78009e42780061c2620061426200ae
:101d8800614262000482fb00610262004e22dd00b3
:101d980056168000f5ff2b008502630005027200cd
:101da800541688009e4278000582fb000402d10088
:101db800044f78009e42780061c26200614262006e
:101dc800614262000482fb004f22dd00561680004b
:101dd800f5ff27008502630005027200541688008b
:101de8000080fa00000006000a00fa003007980098
:101df800014f9800124f98003e029000040f78009f
:101e08003e029000140798000042eb0044479800f7
:101e18000042eb00544798001e4a9000e04f5200e1
:101e280050003d001e4a90000442ea00144f9800fa
:101e3800030037005e4290000442e80054479800cf
:101e48001e029000144278000482fb000402ea009b
:101e58004f22de00044278009e0290008502e800ce
:101e680015079800e04f5200f2ff3a000042eb00dd
:101e7800444798000c0037000e4a90008482fb000b
:101e88004e4290000402fb0084824200b485200088
:101e98008482420004c2b300844a78004e42900013
:101ea8000442e800444798004e4290008402fb0038
:101eb8001e4a90000403fb005e4290000402fb00ef
:101ec80004025300848f5200ebff35000e003700e8
:101ed8000e4a90008482fb004e4290000402fb00f0
:101ee800048342001e02780014427800b585200061
:101ef80085024300844a78004e4290000442e8007c
:101f0800444798001e0fe8001e027800144278002b
:101f1800e04f5200eeff3a00350037000e4a9000bd
:101f28008482fb004e4290000402fb0004834200be
:101f38001e02780014427800b5852000850243000f
:101f4800844a78004e4290000442e80044479800d2
:101f58001e0fe8005e4290000442e80054479800d3
:101f680001003700000000001e02780014427800cb
:101f7800e04f5200e9ff3a001e4a9000e04f52003d
:101f88001b0034000042eb00444798000f00370064
:101f98000e4a90008482fb005e4290000402fb001f
:101fa800848242004e4290000402fb008482420078
:101fb800b48520008482420004c2b300844a7800b9
:101fc8004e4290000442e800444798004e42900078
:101fd8008402fb001e4a90000403fb005e4290004e
:101fe8000402fb0004025300848f5200e8ff35000e
:101ff8000080fa00000006000000fa0004802000bb
:10200800144278000482fb006123b9000082eb00cf
:102018008082eb000602420087824a00760c20008c
:1020280007002000860f5200878f5a0015013e00d6
:1020380004600100c9003700ca003700cb00370030
:10204800c4003700cb003700cc003700cd00370084
:10205800ce003700cf003700d0003700d10037005e
:10206800d2003700d3003700d4003700d50037003e
:102078000401370003013700d4003700d5003700ca
:10208800d6003700d7003700d8003700d90037000e
:10209800da003700db003700dc003700dd003700ee
:1020a800de003700df003700e0003700e1003700ce
:1020b800e2003700ef003700e2003700e3003700a6
:1020c800e4003700e5003700ee003700ed00370088
:1020d800ec003700eb003700ea003700e900370072
:1020e800e8003700e7003700e6003700e500370072
:1020f800e4003700e3003700e2003700e100370072
:10210800e0003700df003700de003700dd00370071
:10211800dc003700db003700da003700d900370071
:10212800d8003700d7003700d6003700d500370071
:10213800d4003700d3003700d2003700d100370071
:10214800d0003700cf003700ce003700cd00370071
:10215800cc003700cb003700ca003700c900370071
:10216800c8003700c7003700c6003700c500370071
:10217800c4003700c3003700c2003700c100370071
:10218800c0003700bf003700be003700bd00370071
:10219800bc003700bb003700ba003700b900370071
:1021a800b8003700b7003700b6003700b500370071
:1021b800b4003700b3003700b2003700b100370071
:1021c800a8003700a9003700ae003700ad0037007f
:1021d800ac003700ab003700aa003700a900370071
:1021e800a8003700a7003700a6003700a500370071
:1021f800a4003700a3003700a2003700a100370071
:10220800a00037009f0037009e0037009d00370070
:102218009c0037009b0037009a0037009900370070
:102228009800370097003700960037009500370070
:102238009400370093003700920037009100370070
:10224800900037008f0037008e0037008d00370070
:102258008c0037008b0037008a0037008900370070
:102268008800370087003700860037008500370070
:102278008400370083003700820037008100370070
:10228800800037007f0037007e0037007d00370070
:102298007c0037007b0037007a0037007900370070
:1022a8007800370077003700760037007500370070
:1022b8007400370073003700720037007100370070
:1022c800700037006f0037006e0037006d00370070
:1022d8006c0037006b0037006a0037006900370070
:1022e8006800370067003700660037006500370070
:1022f8006400370063003700620037006100370070
:10230800600037005f0037005e0037005d0037006f
:102318005c0037005b0037005a003700590037006f
:10232800580037005700370056003700550037006f
:10233800540037005300370052003700510037006f
:10234800500037004f0037004e0037004d0037006f
:102358004a003700cb0007004b003700d5000700c4
:1023680049003700d8010700470037003a02070044
:102378004500370078020700430037009302070042
:1023880041003700b00207003f003700ea020700ab
:102398003d003700020307003b0037001a0307001f
:1023a8003900370032030700370037007f03070082
:1023b80035003700d00307003300370073040700e7
:1023c80031003700c40407002f003700b1050700ab
:1023d8002d003700d20507002b0037007c060700c8
:1023e80029003700af06070027003700d606070088
:1023f80025003700e90607002300370033070700e8
:1024080021003700520707001f0037007007070038
:102418001d003700bc0807001b003700b70907007c
:1024280019003700400a0700170037007c0a070028
:1024380015003700b20a070013003700230b070006
:10244800110037007a0b07000f003700e30b070075
:102458000d003700450507000b0037006d05070024
:1024680009003700270c0700070037003d0c07005c
:1024780005003700670c070003003700280d070028
:1024880001003700630007000080fa000000060022
:102498000400fa00004f780011479800224798007e
:1024a800334798001e427800e04f520003003a007c
:1024b8000480200014427800044f78001e429000e7
:1024c800e04f520003003a000480200014427800d4
:1024d800144798002e429000e04f520003003a0043
:1024e8000480200014427800244798003e4290005f
:1024f800e04f520003003a000480200014427800a4
:10250800344798001480200014427800e14f5200ac
:102518000c003a001e4278000002fd0000e8b700f7
:102528000002fd0014802000144278000442e800f4
:102538000002fd0001e8b7000002fd000042eb00c8
:10254800310037002480200014427800e14f520007
:102558000c003a001e4290000002fd0000e8b7009f
:102568000002fd0024802000144278000442e800a4
:102578000002fd0002e8b7000002fd0014c0b3002d
:10258800210037003480200014427800e14f5200c7
:102598000c003a002e4290000002fd0000e8b7004f
:1025a8000002fd0034802000144278000442e80054
:1025b8000002fd0003e8b7000002fd0024c0b300dc
:1025c800110037004480200014427800e14f520087
:1025d8000c003a003e4290000002fd0000e8b700ff
:1025e8000002fd0044802000144278000442e80004
:1025f8000002fd0004e8b7000002fd0034c0b3008b
:102608000100370000c2eb00044078000080fa00a7
:10261800000006000000fa0013c0b30012c0b300a7
:1026280011c0b30010c0b30099ff070042c1b30046
:102638008040eb00d03f2800ebfd070092c3b300b9
:1026480041c1b30080402800e7fd07000480200056
:10265800144278000482fb00a20020008400780065
:10266800c08a2000e5f7070000027800d2cfb30047
:10267800d1c4b30004007800dbfd07000080fa0035
:10268800000006000000fa0013c0b3000041eb0090
:102698008040eb000040eb007dff070042c1b30023
:1026a8008040eb0070412800cffd07000080fa0051
:1026b800000006001600fa0023c0b3000041eb003a
:1026c8008040eb0050c0b30071ff07000042780063
:1026d8000402fb00e00f520005003200e00f520038
:1026e8000b003500e20f520009003c0002003700e1
:1026f8005a16070006003700d48f200014427800cd
:102708000442e8000002fd00fde8b7000002fd00f9
:102718005416800064026200e00f52000c003a0078
:1027280014c82000144278008482fb00a400200012
:10273800110009008482d800000278000442780061
:10274800614262000002fd00fde8b7000002fd00e2
:102758006c1b0700fa180700d48f20001442780079
:10276800e14f5200030034000042eb0004007800ff
:10277800fde8b70004c2b300044f7800f4c7200096
:10278800144278008482fb00a40020001100090094
:102798008482d80000027800044278000443b00024
:1027a80014479800f4c72000144278008482fb0084
:1027b800a4002000110009008482d80001027800da
:1027c800044278000443b00024479800a4c3b3002f
:1027d8003447980004c82000144278008482fb0023
:1027e800a4002000110009008482d80000027800ab
:1027f800044278000443b0004447980004c820000d
:10280800144278008482fb00a40020001100090013
:102818008482d80001027800044278000443b000a2
:1028280054479800a4c3b3006447980014c8200014
:10283800144278008482fb00a400200011000900e3
:102848008482d80000027800044278000443b00073
:102858007447980014c82000144278008482fb0052
:10286800a4002000110009008482d8000102780029
:10287800044278000443b000044f980004c2b30037
:10288800144f980004c2b300244f9800d4c7200006
:10289800144278008482fb00a40020001100090083
:1028a8008482d80000027800044278000443b00013
:1028b800344f9800d4c72000144278008482fb006b
:1028c800a4002000110009008482d80001027800c9
:1028d800044278000443b000444f9800f4c2b300a7
:1028e800544f9800c4c72000144278008482fb002b
:1028f800a4002000110009008482d800000278009a
:10290800044278000443b000644f9800c4c7200014
:10291800144278008482fb00a40020001100090002
:102928008482d80001027800044278000443b00091
:10293800744f9800f4c2b30004579800b4c720003d
:10294800144278008482fb00a400200011000900d2
:102958008482d80000027800044278000443b00062
:1029680014579800b4c72000144278008482fb00f2
:10297800a4002000110009008482d8000102780018
:10298800044278000443b0002457980004c2b300fe
:10299800345798000042eb00445798000041eb0080
:1029a8008040eb000e0078000ffd0700d48f200058
:1029b80014427800e04f52001a003a00f2c0b30007
:1029c80041c1b3002042280007fd0700c48f200042
:1029d800144278000402fb00a20020008400780062
:1029e800c08a20001ff7070000027800d2cfb3008a
:1029f80031c2b30004007800fbfc07000041eb0083
:102a080061c2b300d0422800f7fc0700140c07008d
:102a18000041eb0081c2b300e08f2000f2fc070008
:102a28001c0037000041eb0041c1b30000432800ff
:102a3800edfc070024478000354780000402780039
:102a4800a20020008400780010ca200005f70700c3
:102a580000027800b2cfb30011c2b30004007800be
:102a6800e1fc07000041eb0061c2b300e04328002d
:102a7800ddfc0700c2c0b30081c2b30010442800c7
:102a8800d9fc07000041eb0041c3b300609320006c
:102a9800d5fc07000041eb00c1c3b300c0442800c7
:102aa800d1fc0700348c200014427800e04f52001b
:102ab80003003a0014c0b30004007800c3e8b7006c
:102ac8000080fa00000006000200fa0013c0b300fc
:102ad8000041eb008040eb0050c0b3006cfe0700e3
:102ae800004278000402fb00e00f520001003a00a7
:102af8005a150700831a0700111807006447800059
:102b080075478000040378004447800055478000db
:102b18000402780004025300040f78001e027800b3
:102b2800e00f520002003d000002eb00040f7800a5
:102b38000041eb008040eb0010462800aafc07008b
:102b4800a20020009e007800c08a2000c5f6070079
:102b580000027800b2cfb30061c0b300040078006f
:102b6800a1fc07000041eb00b1c0b300804628007b
:102b78009dfc0700644780007547800004027800c8
:102b8800a20020008400780010ca2000b5f60700d3
:102b980000027800b2cfb300c1c0b30004007800cf
:102ba80091fc07000041eb0011c1b300a0462800ca
:102bb8008dfc0700c48f2000144278000402fb003b
:102bc800a200200084007800c08a2000a5f6070033
:102bd80000027800d2cfb30031c2b30004007800fd
:102be80081fc07000041eb0061c2b300d047280018
:102bf8007dfc0700244780003547800004027800e8
:102c0800a200200084007800c0ca200095f60700c2
:102c180000027800b2cfb30041c3b30004007800cb
:102c280071fc07000041eb0091c3b300c0482800c5
:102c38006dfc0700348c200014427800e04f5200ed
:102c480003003a0014c0b30004007800c3e8b700da
:102c58000080fa00000006000000fa008041eb0046
:102c68000041eb008040eb000040eb0008fe07004d
:102c7800004278000402fb0060024200e30f5200a9
:102c88001f003e00048c2000144278000002fd0062
:102c980000e8b7000002fd00a48d2000144278006f
:102ca800e14f520004003a0014c0b3000002fd00d6
:102cb800d8e8b7000002fd00a48d20001442780077
:102cc800e24f520003003a0014c0b3000400780039
:102cd800d9e8b7000042eb0004007800d7e8b70055
:102ce800748d20001442780004007800dae8b700f8
:102cf800a48d20001442780004007800dbe8b700b7
:102d08000041eb008040eb00404a280036fc0700f9
:102d1800c48f2000144278000402fb00a2002000a7
:102d280084007800c08a20004ef607000002780070
:102d3800e2cfb30091c1b300040078002afc070079
:102d48000041eb00b1c1b300e04b280026fc0700ae
:102d58000080fa00000006000000fa00b3c0b300cb
:102d680062c0b300a1c0b30010c0b300c8fd070023
:102d7800004278000402fb00e10f52000300320019
:102d8800e20f52000300320003003700c8140700a6
:102d980001003700b8140700c2c3b3008040eb003d
:102da800404f280010fc07000041eb00c1c3b300ee
:102db800e03b28000cfc07000042eb000400780010
:102dc800c3e8b7000080fa00000006000000fa001f
:102dd80033c1b30072c0b30051c0b30010c0b30018
:102de800abfd0700004278000402fb00e20f52002e
:102df80006003200e30f520006003200e10f5200d5
:102e080007003a009514070005003700c4140700ae
:102e1800030037000042eb0004007800d6e8b70052
:102e2800c2c3b3008040eb0090522800eefb0700bd
:102e38000041eb00c1c3b300e03b2800eafb0700f8
:102e48000080fa00000006000000fa0023c2b30068
:102e580082c0b30061c0b30010c0b3008cfd07008e
:102e6800004278000402fb00e20f52000600320024
:102e7800e30f520006003200e10f520024003a002e
:102e88007d140700220037009e1407002000370039
:102e980004d22000144278000002fd001be9b700ac
:102ea8000002fd00a4478000b5478000e00f5200f3
:102eb800e08f5a0016003a0064478000754780008a
:102ec800a4478800b547880064478000754780009c
:102ed800632bb900060378006020b90080037800ee
:102ee800070343008402780034002000042ab80055
:102ef80005034300860278004e2bdd004222de00e7
:102f080004027300c22ade008447880095478800bf
:102f1800c2c3b3008040eb00c0552800b2fb0700d5
:102f28000041eb00c1c3b300e03b2800aefb070043
:102f38000080fa00000006000000fa0043c2b30057
:102f480092c0b30071c0b30010c0b30050fd0700b9
:102f5800004278000402fb00e10f52000300320037
:102f6800e20f520003003200030037006c14070020
:102f78000100370071140700c2c3b3008040eb00a2
:102f88001059280098fb07000041eb00c1c3b300ab
:102f9800e03b280094fb07000080fa0000000600d0
:102fa8000000fa0053c2b300a2c0b30081c0b3004e
:102fb80010c0b30036fd0700004278000402fb0091
:102fc800e10f520003003200e20f5200030032000a
:102fd800030037004b1407000100370034140700c2
:102fe800c2c3b3008040eb00e05c28007efb070012
:102ff8000041eb00c1c3b300e03b28007afb0700a7
:103008000080fa00000006000000fa0023c1b300a7
:1030180052c0b30091c0b30010c0b3001cfd07003c
:10302800004278000402fb00e10f52000300320066
:10303800e20f520003003200030037003f1407007c
:103048000100370005140700c2c3b3008040eb003d
:10305800e05f280064fb07000041eb00c1c3b30038
:10306800303d280060fb07000080fa0000000600e1
:103078000000fa008041eb00c2c0b300e1c0b30019
:1030880050c0b30002fd0700004278000402fb00b4
:10309800e00f520003003200e30f52000300320039
:1030a80007003700101307000500370094cf2000f1
:1030b800144278000442e80004007800f9ecb700f4
:1030c8000041eb008040eb00e062280046fb07006f
:1030d80094cf200014427800e14f520009003a00d2
:1030e8000041eb0051c2b300406528003efb0700d9
:1030f80014c0b3000002fd00f9ecb7000002fd00a7
:10310800070037000041eb0051c2b300806528007a
:1031180035fb07000042eb0004007800f9ecb7002b
:103128000041eb0081c2b300c06528002efb0700f8
:10313800a4cf200014427800e04f52001100320062
:10314800c4cf2000144278000402fb00a200200033
:1031580084007800c08a200042f507000002780049
:10316800e2cfb30091c3b300040078001efb070050
:103178000041eb00b1c3b300e06628001afb07006a
:10318800040037000041eb0091c3b30080652800bc
:1031980015fb07000041eb00c1c3b300e03b28006a
:1031a80011fb07000080fa00000006000000fa008a
:1031b800d3c0b300e2c0b300b1c0b30050c0b30085
:1031c800b3fc0700004278000402fb00e00f520045
:1031d80003003200e30f52000300320006003700fc
:1031e800c112070004003700c4cf20001442780041
:1031f80004007800e0e8b7000041eb008040eb00f5
:1032080000672800f8fa0700a4cf200014427800cd
:10321800e04f520011003200c4cf20001442780061
:103228000402fb00a200200084007800c08a20006d
:103238000cf5070000027800e2cfb30051c2b300da
:1032480004007800e8fa07000041eb0071c2b300ff
:10325800e0662800e4fa0700040037000041eb00ac
:1032680051c2b30080652800dffa07000041eb0077
:1032780081c2b30060692800dbfa0700b4cf2000e0
:1032880014427800e04f520011003200d4cf2000e1
:10329800144278000402fb00a20020008400780099
:1032a800c08a2000eff4070000027800e2cfb300e4
:1032b80091c3b30004007800cbfa07000041eb008b
:1032c800b1c3b300e0662800c7fa0700040037005e
:1032d8000041eb0091c3b30080652800c2fa0700e3
:1032e8000041eb00c1c3b300e03b2800befa070071
:1032f8000080fa00000006000000fa00c3c0b30016
:103308000041eb008040eb00c0c0b30060fc070048
:10331800004278000402fb00e20f52002400320051
:10332800e30f520045003200e10f520053003a000b
:10333800a4cf200014427800e04f520005003a0064
:1033480014c0b3000002fd00faecb7000002fd0053
:103358004a003700048e200014427800f34f5200d0
:1033680007003c00048e2000144278000442e80064
:103378000002fd00e0e8b7000002fd003f00370052
:10338800058e200095427800e4c5b30084cf520032
:1033980035003c00048e200014427800654242004b
:1033a8000002fd00e0e8b7000002fd00330037002e
:1033b800a4cf200014427800e04f52002c003200c5
:1033c800048e200014427800f44f520007003400a5
:1033d800048e200014427800654252000002fd006d
:1033e800e0e8b7000002fd0024003700048e20004a
:1033f80014427800e14f520007003400048e200088
:10340800144278000442e9000002fd00e0e8b70039
:103418000002fd0019003700048e200014427800d5
:10342800e14f520014003c000042eb000002fd0096
:10343800faecb7000002fd0010003700048e2000ef
:10344800144278000002fd00fcecb7000002fd0009
:103458000042eb000002fd0041e9b7000002fd0058
:1034680021120700050037000000000003003700a4
:103478000000000001003700000000000041eb00e0
:103488008040eb00806a280057fa07000041eb00f3
:1034980041c2b300e08d200053fa0700a4cf2000fa
:1034a80014427800e04f520011003200048e2000d0
:1034b800144278000402fb00a20020008400780077
:1034c800c08a200067f4070000027800e2cfb3004a
:1034d80051c2b3000400780043fa07000041eb0032
:1034e80071c2b300e06628003ffa07000400370005
:1034f8000041eb0051c2b300806528003afa07008a
:103508000041eb0081c2b3006069280036fa070069
:10351800b4cf200014427800e04f5200110032006e
:10352800d4cf2000144278000402fb00a20020003f
:1035380084007800c08a20004af40700000278005e
:10354800e2cfb30091c3b3000400780026fa070065
:103558000041eb00b1c3b300e066280022fa07007f
:10356800040037000041eb0091c3b30080652800d8
:103578001dfa07000041eb00c1c3b300803e2800dc
:1035880019fa07000080fa00000006000000fa009f
:10359800f3c0b300b2c0b300c1c0b30050c0b300a1
:1035a800bbfb0700004278000402fb00e00f52005a
:1035b80003003200e30f5200030032000600370018
:1035c800c911070004003700d4cf20001442780046
:1035d80004007800e0e8b7000041eb008040eb0011
:1035e800d06c280000fa0700a4cf2000144278000d
:1035f800e04f520011003200c4cf2000144278007e
:103608000402fb00a200200084007800c08a200089
:1036180014f4070000027800e2cfb30051c2b300ef
:1036280004007800f0f907000041eb0071c2b30014
:10363800e0662800ecf90700040037000041eb00c1
:1036480051c2b30080652800e7f907000041eb008c
:1036580081c2b300306f2800e3f90700b4cf20001f
:1036680014427800e04f520011003200d4cf2000fd
:10367800144278000402fb00a200200084007800b5
:10368800c08a2000f7f3070000027800e2cfb300f9
:1036980091c3b30004007800d3f907000041eb00a0
:1036a800b1c3b300e0662800cff907000400370073
:1036b8000041eb0091c3b30080652800caf90700f8
:1036c8000041eb00c1c3b300303d2800c6f9070034
:1036d8000080fa00000006000000fa00e3c0b30012
:1036e8000041eb008040eb00e0c0b30068fb07003e
:1036f800004278000402fb00e20f5200240032006e
:10370800e30f520045003200e10f520053003a0027
:10371800b4cf200014427800e04f520005003a0070
:1037280014c0b3000002fd00fbecb7000002fd006e
:103738004a003700048e200014427800f34f5200ec
:1037480007003c00048e2000144278000442e80080
:103758000002fd00e0e8b7000002fd003f0037006e
:10376800058e200095427800e4c5b30084cf52004e
:1037780035003c00048e2000144278006542420067
:103788000002fd00e0e8b7000002fd00330037004a
:10379800b4cf200014427800e04f52002c003200d1
:1037a800048e200014427800f44f520007003400c1
:1037b800048e200014427800654252000002fd0089
:1037c800e0e8b7000002fd0024003700048e200066
:1037d80014427800e14f520007003400048e2000a4
:1037e800144278000442e9000002fd00e0e8b70056
:1037f8000002fd0019003700048e200014427800f2
:10380800e14f520014003c000042eb000002fd00b2
:10381800fbecb7000002fd0010003700048e20000a
:10382800144278000002fd00fdecb7000002fd0024
:103838000042eb000002fd0042e9b7000002fd0073
:1038480029110700050037000000000003003700b9
:103858000000000001003700000000000041eb00fc
:103868008040eb00d06c28005ff90700a4cf20004f
:1038780014427800e04f520011003200c4cf2000fb
:10388800144278000402fb00a200200084007800a3
:10389800c08a200073f3070000027800e2cfb3006b
:1038a80051c2b300040078004ff907000041eb0053
:1038b80071c2b300e06628004bf907000400370026
:1038c8000041eb0051c2b3008065280046f90700ab
:1038d8000041eb0081c2b3005070280042f9070094
:1038e8000041eb0081c3b300e08d20003ef90700e2
:1038f800b4cf200014427800e04f5200110032008b
:10390800048e2000144278000402fb00a20020006c
:1039180084007800c08a200052f307000002780073
:10392800e2cfb30091c3b300040078002ef907007a
:103938000041eb00b1c3b300e06628002af9070094
:10394800040037000041eb0091c3b30080652800f4
:1039580025f907000041eb00c1c3b300803e2800f1
:1039680021f907000080fa00000006000000fa00b4
:1039780083c0b30082c0b30081c0b30080c0b3006d
:10398800c3fa07000041eb008040eb00607128009b
:1039980015f90700e4688000f5688000a1002000a0
:1039a8000401be0010ca200062f30700000278007c
:1039b800f2ceb30041c1b300040078000af9070051
:1039c80072c1b30051c2b300b072280006f90700f3
:1039d800c4688000d5688000a10020000401be00f2
:1039e800c0ca200053f307000002780002cfb300da
:1039f800c1c3b30004007800fbf807000041eb00e6
:103a0800c1c4b300b0732800f7f807000080fa00bb
:103a1800000006000000fa0093c0b30092c0b30093
:103a280091c0b30090c0b30099fa07000041eb00c1
:103a38008040eb0000742800ebf807000041eb0021
:103a480041c1b30050752800e7f807000041eb00ba
:103a5800d1c1b300c0bf2000e3f807000041eb006c
:103a680081c2b300f0752800dff807000041eb00c1
:103a780011c3b30080c02000dbf8070042c1b300c7
:103a8800c1c3b30090762800d7f807000080fa0079
:103a9800000006000000fa00a3c0b300a2c0b300f3
:103aa800a1c0b300a0c0b30079fa07000041eb0041
:103ab8008040eb00e0762800cbf8070082c0b30016
:103ac800c1c0b300c0d02000c7f807000041eb0018
:103ad80041c1b300b0772800c3f80700f46a80003a
:103ae800056b8000a10020000401be00c0ca2000b0
:103af80010f307000002780082c0b30001c2b300cf
:103b080004007800b8f807000041eb0081c2b30058
:103b180080782800b4f807000080fa00000006004a
:103b28000000fa00648d200014427800e64f52002d
:103b3800540032008041eb000041eb008040eb0074
:103b48000040eb0052fa0700004278000402fb0034
:103b5800cfa2de003600200007002000860f5200aa
:103b6800878f5a0033003e000460010003003700cd
:103b78000e0037001900370024003700648d20003c
:103b8800144278000483fb00458c200005034300a1
:103b980015c3b300054b78000442e8000002fd009d
:103ba800d6e8b7000002fd0022003700648d20002f
:103bb800144278000483fb00458c20000503430071
:103bc80025c3b300054b78000442e8000002fd005d
:103bd800d6e8b7000002fd0016003700648d20000b
:103be800144278000483fb00458c20000503430041
:103bf80035c3b300054b78000442e8000002fd001d
:103c0800d6e8b7000002fd000a003700648d2000e6
:103c1800144278000483fb00458c20000503430010
:103c280045c3b300054b78000442e800040078005f
:103c3800d6e8b700c2c2b3008040eb00107b280072
:103c480069f80700648d2000144278000482fb00a4
:103c5800cfa2de005600200007002000860f520089
:103c6800878f5a0054003e0004600100340037007a
:103c7800380037003c003700400037004400370068
:103c880048003700458c200095427800e4cf20009a
:103c98001442780084cf520024003a00558c20004a
:103ca80095427800f4cf20001442780084cf520067
:103cb8001e003a00658c20009542780004d0200050
:103cc8001442780084cf520018003a00758c200006
:103cd8009542780014d020001442780084cf520016
:103ce80012003a00858c20009542780024d02000ec
:103cf8001442780084cf52000c003a00958c2000c2
:103d08009542780034d020001442780084cf5200c5
:103d180006003a0044c1b3000002fd0000e8b70005
:103d28000002fd00bf1007002700370014c0b300d1
:103d38000002fd0000e8b7000002fd002200370085
:103d48000041eb00c1c2b300507c280026f80700f0
:103d5800190037000041eb00c1c2b300107d2800f4
:103d680021f80700140037000041eb00c1c2b3007e
:103d7800d07d28001cf807000f0037000041eb0039
:103d8800c1c2b300907e280017f807000a00370068
:103d98000041eb00c1c2b300507f280012f80700b1
:103da800050037000041eb00c1c2b30010802800b5
:103db8000df80700000000000041eb0071c3b300dc
:103dc800d080280008f807000080fa0000000600ec
:103dd8000000fa00a3c1b30052c1b30091c1b300ff
:103de80060c0b300aaf90700004278000402fb0093
:103df800e20f520006003200e30f520006003200c4
:103e0800e10f52001d003a00b71007001b003700f1
:103e18008b1007001900370014c0b3000002fd0022
:103e280082ecb7000002fd00b6150700f4c72000b9
:103e3800144278000400780083ecb70004c820001e
:103e4800144278000400780084ecb700c4c720004e
:103e5800144278000400780085ecb700d4c720002d
:103e6800144278000400780086ecb700b4c720003c
:103e7800144278000400780087ecb700c2c3b3008e
:103e88008040eb0070822800d7f707000041eb0064
:103e9800c1c3b300e03b2800d3f707000080fa0055
:103ea800000006000000fa00b3c1b30062c1b3000d
:103eb80041c1b30060c0b30075f907000042780043
:103ec8000402fb00e20f520006003200e30f52002a
:103ed80006003200e10f520011003a0051100700ad
:103ee8000f0037006b1007000d003700a447800053
:103ef800b5478000e00f5200e08f5a0004003a00f6
:103f08006447800075478000a4478800b54788004b
:103f1800a4478000b5478000c4478800d54788007b
:103f2800c2c3b3008040eb0010862800aef707003c
:103f38000041eb00c1c3b300e03b2800aaf707002b
:103f48000080fa00000006000000fa00d3c1b300a8
:103f580072c1b30051c1b30060c0b3004cf907008f
:103f6800004278000402fb00e10f520001003a0011
:103f780033100700c2c3b3008040eb00d08928008b
:103f880099f707000041eb00c1c3b300e03b2800ec
:103f980095f707000080fa00000006000000fa000c
:103fa80013c2b30082c1b30061c1b30060c0b300e3
:103fb80037f90700004278000402fb00e20f5200c4
:103fc80006003200e30f520006003200e10f5200f3
:103fd80034003a002f100700320037003b1007006a
:103fe800300037000042eb0004007800d6e8b70044
:103ff800f4c5b30004007800d4e8b700448d20006d
:104008001442780004007800d2e8b700248d20001c
:104018001442780004007800d0e8b700048d20002e
:104028001442780004007800cee8b700e48c200041
:104038001442780004007800cce8b700c48c200053
:104048001442780004007800cae8b70004c2b3003c
:1040580004007800d3e8b700348d200014427800bb
:1040680004007800d1e8b700148d200014427800cd
:1040780004007800cfe8b700f48c200014427800e0
:1040880004007800cde8b700d48c200014427800f2
:1040980004007800cbe8b7000042eb000400780089
:1040a800d5e8b700c2c3b3008040eb00708d28008c
:1040b8004df707000041eb00c1c3b300e03b280007
:1040c80049f707000080fa00000006000000fa0027
:1040d800c3c1b30092c1b30071c1b30060c0b300e3
:1040e800ebf80700004278000402fb00e20f5200e0
:1040f80003003200e30f5200030032000a003700c9
:10410800f90f07000800370054d120001442780046
:104118000400780013e9b70064d120001442780045
:104128000400780014e9b700c2c3b3008040eb0074
:10413800309128002cf707000041eb00c1c3b30001
:10414800e03b280028f707000080fa00000006007e
:104158000000fa0033c2b30042c1b30081c1b3000a
:1041680060c0b300caf80700004278000402fb00f0
:10417800e20f520006003200e30f52000600320040
:10418800e10f520008003a00d00f07000600370080
:10419800a40f07000400370074d1200014427800ef
:1041a800040078003fe9b700c2c3b3008040eb00c9
:1041b800b09428000cf707000041eb00c1c3b3001e
:1041c800303d280008f707000080fa0000000600cc
:1041d8000000fa008041eb000041eb008040eb005a
:1041e8000040eb00aaf80700004278000402fb0038
:1041f800cfa2de003600200007002000860f520004
:10420800878f5a0024013e00046001000300370034
:104218001a00370087003700e500370024c820005f
:10422800144278000442e9000002fd0082ecb70065
:104238000002fd0024c8200014427800e04f52001c
:104248000c013a000494200014427800e04f520018
:104258000500320014c0b3000002fd0082ecb70074
:104268000002fd000c01370044c1b3000002fd004c
:1042780000e8b7000002fd000701370024c820004d
:10428800144278000402fb006123b9000082eb00ad
:104298008082eb000602420087824a004600200026
:1042a80007002000860f5200878f5a00f3003e0057
:1042b8000460010004003700100037001c003700bc
:1042c800330037004a00370034c820001442780011
:1042d8000402fb008402e8008401200011000900a8
:1042e8008402d80001027800044278000002fd0030
:1042f80083ecb7000002fd004d00370044c82000e1
:10430800144278000402fb008402e800c403200081
:10431800110009008402d8000102780004427800e4
:104328000002fd0084ecb7000002fd0040003700e9
:1043380064c82000144278000442e90004007800b0
:1043480086ecb70064c82000144278000402fb0021
:104358008402e800f4012000110009008402d8005a
:1043680001027800044278000002fd0086ecb700e4
:104378000002fd0064c82000144278000442e800ee
:104388000002fd0086ecb7000002fd00280037009f
:1043980054c82000144278000442e9000400780060
:1043a80085ecb70054c82000144278000402fb00d2
:1043b8008402e800c4002000110009008402d8002b
:1043c80001027800044278000002fd0085ecb70085
:1043d8000002fd0054c82000144278000442e8009e
:1043e8000002fd0085ecb7000002fd001000370058
:1043f80074c82000144278000442e8000002fd005e
:1044080087ecb7000002fd0075c8200095427800cf
:1044180034c6b30084cf52009a003400e4c0b3001d
:104428000002fd0087ecb7000002fd009a0037008b
:104438009900370024c82000144278000402fb00c9
:104448006123b9000082eb008082eb000602420083
:1044580087824a004600200007002000860f52008d
:10446800878f5a0089003e0004600100040037006d
:1044780012003700200037002e0037003c003700bc
:1044880034c82000144278000442e9000002fd000c
:1044980083ecb7000002fd0034c820001442780005
:1044a800e04f520004003d0074c1b3000002fd005b
:1044b80083ecb7000002fd003c00370044c8200030
:1044c800144278000442e9000002fd0084ecb700c1
:1044d8000002fd0044c8200014427800e04f52005a
:1044e80004003d00b4c3b3000002fd0084ecb70033
:1044f8000002fd002d00370064c820001442780037
:104508000442e9000002fd0086ecb7000002fd004d
:1045180064c8200014427800e04f520004003c00b8
:10452800f4c1b3000002fd0086ecb7000002fd00f4
:104538001e00370054c82000144278000442e900e5
:104548000002fd0085ecb7000002fd0054c8200001
:1045580014427800e04f520004003c00c4c0b3008d
:104568000002fd0085ecb7000002fd000f003700d7
:1045780074c82000144278000442e9000002fd00db
:1045880087ecb7000002fd0074c8200014427800d0
:10459800ed4f52003f003c0034c6b3000002fd005e
:1045a80087ecb7000002fd003b0037003a003700f7
:1045b80024c82000144278000442e8000002fd00ec
:1045c80082ecb7000002fd0024c8200014427800e5
:1045d800e64f520030003a0044c8200014427800e8
:1045e80031c820009140780086ccbf0057c8200011
:1045f8009743780076c82000164378008042eb0085
:1046080081417800004178008740780006407800b2
:104618000b14070000427800e14f520010003a00e6
:10462800080d07000494200014427800e04f52005f
:104638000600320084ccb3000002fd0000e8b70099
:104648000002fd00a10e07001300370044c1b300ab
:104658000002fd0000e8b7000002fd000e00370070
:1046680044c6b3000002fd0000e8b7000002fd00e8
:1046780009003700000000000700370000000000b4
:1046880005003700000000000300370000000000ac
:104698000100370000000000ab11070092c1b30011
:1046a8008040eb0030982800cff5070022c1b30006
:1046b80091c1b30080c82000cbf5070012c1b30038
:1046c800b1c2b30020c92000c7f5070024c82000e4
:1046d80014427800e54f5200050032000041eb001b
:1046e800c1c3b30010992800bff5070004003700c4
:1046f8000041eb00c1c3b300803e2800baf50700b3
:104708000080fa00000006000000fa008041eb007b
:104718000041eb008040eb0050c1b3005cf707009c
:10472800004278000402fb00e20f52004a00320007
:10473800e30f52009c003200e10f5200d5003a000e
:10474800c6478000d74780004400200005002000ad
:10475800840f5300858f5b0007003e00c44780002c
:10476800d547800061024200e0824a00c4478800c1
:10477800d5478800c7003700c6478000d747800064
:104788001403200005002000840f5300858f5b0070
:1047980007003e00c4478000d547800065024200fc
:1047a800e0824a00c4478800d5478800b90037002e
:1047b800c6478000d74780007438210005002000d4
:1047c800840f5300858f5b0007003e00c4478000bc
:1047d800d54780002403b0000580b000c447880096
:1047e800d5478800ab003700c6478000d747800010
:1047f800f470220005002000840f5300858f5b00b1
:1048080007003e00c4478000d54780004406b0003a
:104818000580b000c4478800d54788009d00370050
:10482800c6478000d7478000e4cf27000500200056
:10483800840f5300858f5b0093003e00c4478000bf
:10484800d5478000a40fb0000580b000c447880099
:10485800d54788008f003700c6478000d7478000bb
:104868000471220005002000840f5300858f5b002f
:1048780009003600c6478000d747800064f02f0043
:10488800f5ff2f000602420087824a00c4478800cd
:10489800d547880039003700c6478000d7478000d1
:1048a8008438210005002000840f5300858f5b00a9
:1048b80009003600c6478000d7478000c4f92f009a
:1048c800f5ff2f000602420087824a00c44788008d
:1048d800d547880029003700c6478000d7478000a1
:1048e8002403200005002000840f5300858f5b00ff
:1048f80009003600c6478000d7478000e4fc2f0037
:10490800f5ff2f000602420087824a00c44788004c
:10491800d547880019003700c6478000d747800070
:104928005400200005002000840f5300858f5b0091
:1049380007003600c4478000d54780006502520052
:10494800e0825a00c4478800d54788000b0037002a
:10495800c4478000d5478000e00f5200e08f5a001e
:1049680006003200c4478000d5478000610252002b
:10497800e0825a00c4478800d5478800c6478000af
:10498800d747800004d0270005002000840f53007b
:10499800858f5b003e0036006022b800c44788005f
:1049a800d54788003b00370000c2eb000002fd003d
:1049b80020edb7000002fd00464780005747800001
:1049c800c4478000d5478000840f5300858f5b0063
:1049d8001e00310054c1b3000400780000e8b7009d
:1049e800c4478000d5478000644788007547880021
:1049f800c4478000d5478000a4478800b547880091
:104a0800a4478000b5478000632bb90006037800ef
:104a18006020b9008003780007034300840278000f
:104a280034002000042ab8000503430086027800f9
:104a38004e2bdd004222de0004027300c22ade0093
:104a480084478800954788000800370054c6b3009b
:104a58000002fd0000e8b7000002fd00b4c1b30089
:104a68000002fd001ce9b7000002fd0000c2eb00d7
:104a78000002fd0020edb7000002fd00520d070006
:104a8800780c070003003700000000000100370021
:104a9800000000000041eb008040eb00609a280015
:104aa800d1f40700c4478000d5478000040278008d
:104ab800a200200084007800c08a2000e9ee0700e8
:104ac80000027800b2cfb30061c1b30004007800df
:104ad800c5f4070012c2b300b1c1b300d09b2800cf
:104ae800c1f407000041eb00c1c3b300803e2800b9
:104af800bdf407000080fa00000006000000fa007c
:104b080083c1b3000041eb008040eb0080c1b300db
:104b18005ff60700004278000402fb00e20f520033
:104b28001d003200e30f520037003200e10f52003f
:104b380042003a004491200014427800e04f5200ad
:104b480005003a00e4c1b3000002fd0014e9b70013
:104b58000002fd00390037000042eb000400780035
:104b680014e9b70034912000144278000482fb0055
:104b78008402e80084012000110009008402d800a2
:104b880001027800044278000002fd0013e9b70032
:104b98000002fd00290037004491200014427800eb
:104ba800fe4f520005003a000042eb000002fd00f3
:104bb80014e9b7000002fd0020003700e4c1b3008b
:104bc8000002fd0014e9b7000002fd003491200046
:104bd800144278000442e9000002fd0013e9b7001e
:104be8000002fd003491200014427800f74f520073
:104bf8001100360074c1b3000002fd0013e9b700cc
:104c08000002fd000d0037003491200014427800a6
:104c18000002fd0015edb7000002fd0044912000e0
:104c2800144278000002fd0016edb7000002fd00f6
:104c38009c0c0700010037000000000034912000a0
:104c4800144278008482fb00a400200011000900af
:104c58008482d80000027800044278000443b0003f
:104c68000400780015e9b700349120001442780058
:104c78008482fb00a4002000110009008482d8006f
:104c880001027800044278000443b0000002fd00ed
:104c980016e9b7000002fd00a4c3b3000002fd003e
:104ca80017e9b7000002fd00449120001442780083
:104cb800e04f520005003a0004c3b3000002fd00b3
:104cc80018e9b7000002fd000300370034c3b30041
:104cd8000400780018e9b70004c3b30004007800a2
:104ce80019e9b7000042eb00040078001ae9b700a0
:104cf800b2c1b3008040eb00909c28003af4070052
:104d080012c2b300b1c1b3005091200036f40700bd
:104d18000041eb00c1c3b300803e280032f4070015
:104d28000080fa00000006000000fa00f3c1b3009a
:104d3800e2c1b300e1c1b30060c1b300d4f507001c
:104d4800004278000402fb00e30f520002003a0020
:104d580034688000144788000041eb008040eb0075
:104d6800809d280020f4070044d0200014427800d9
:104d7800e04f52000f00340034688000a200200089
:104d880084007800c08a200036ee07000002780010
:104d9800d2cfb30051c2b3000400780012f4070068
:104da80014c0b3000002fd0004edb7000002fd00ce
:104db800070037000041eb0051c2b30080652800ae
:104dc80009f407000042eb000400780004edb70086
:104dd8000041eb0081c2b300e09f280002f4070005
:104de800c45f8000a200200084007800c08a2000f0
:104df8001cee070000027800d2cfb30091c3b300c5
:104e080004007800f8f307000041eb00c1c3b300c9
:104e1800e03b2800f4f307000080fa0000000600d9
:104e28000000fa0003c2b300d2c1b300d1c1b3007d
:104e380060c1b30096f507000041eb008040eb002d
:104e480010a12800e8f3070044d02000144278009d
:104e5800e14f52000f003a0034688000a2002000a1
:104e680084007800c08a2000feed07000002780068
:104e7800d2cfb30051c2b30004007800daf30700c0
:104e880014c0b3000002fd0004edb7000002fd00ed
:104e9800070037000041eb0051c2b30080652800cd
:104ea800d1f307000042eb000400780004edb700de
:104eb8000041eb0081c2b30070a32800caf30700c9
:104ec800c45f8000a200200084007800c08a20000f
:104ed800e4ed070000027800d2cfb30091c3b3001d
:104ee80004007800c0f307000041eb00c1c3b30021
:104ef800e03b2800bcf307000080fa000000060031
:104f08000000fa00d3c1b3000041eb008040eb0081
:104f1800d0c1b3005ef50700004278000402fb0030
:104f2800e20f520017003200e30f5200280032004f
:104f3800e10f52002f003a0044d0200014427800bc
:104f4800e04f520007003a0014c0b3000002fd0011
:104f580004edb7000002fd00240320001447880078
:104f68002400370015478000543b2000848f5200ee
:104f78001d003c00144780002403b000144788003b
:104f88001c00370044d0200014427800e04f520043
:104f9800170032001547800034062000848f520025
:104fa80007003c000042eb000002fd0004edb700e2
:104fb8000002fd0024032000144788000d0037007c
:104fc800144780002403b100144788000900370003
:104fd80014478000346888000002eb00d45f880022
:104fe800900b0700030037000000000001003700a5
:104ff800000000000041eb008040eb0090a4280076
:1050080079f307000041eb0041c2b300e08d2000b6
:1050180075f3070044d0200014427800e04f520096
:105028000f00340014478000a2002000840078009c
:10503800c08a20008bed070000027800d2cfb300b1
:1050480051c2b3000400780067f3070014c0b3002e
:105058000002fd0004edb7000002fd000700370064
:105068000041eb0051c2b300806528005ef30700e1
:105078000042eb000400780004edb7000041eb00ab
:1050880081c2b300e0a6280057f30700c45f800080
:10509800a200200084007800c08a200071ed07007b
:1050a80000027800d2cfb30091c3b30004007800a7
:1050b8004df307000041eb00c1c3b300803e280058
:1050c80049f307000080fa00000006000000fa001b
:1050d800e3c1b3000041eb008040eb00e0c1b30046
:1050e800ebf40700004278000402fb00e20f5200d4
:1050f8000c003200e30f520012003200e10f5200a0
:1051080019003a00c55f8000543b2000848f52008c
:1051180012003c00c45f80002403b000c45f880014
:1051280011003700c55f800034062000848f5200cc
:105138000c003400c45f80002403b100c45f880001
:1051480009003700c45f8000d45f8800350b070072
:105158000002eb00d45f8800030037000000000065
:1051680001003700000000000041eb008040eb0028
:1051780010a128001cf3070044d020001442780036
:10518800e14f52000b003a0034688000a200200072
:1051980084007800c08a200032ed07000002780001
:1051a800d2cfb30051c2b300040078000ef3070059
:1051b800070037000041eb0051c2b30080652800aa
:1051c80009f307000042eb000400780004edb70083
:1051d8000041eb0081c2b30000a8280002f30700d9
:1051e8000041eb0081c3b300e08d2000fef2070010
:1051f800c45f8000a200200084007800c08a2000dc
:1052080018ed070000027800d2cfb30091c3b300b5
:1052180004007800f4f207000041eb00c1c3b300ba
:10522800803e2800f0f207000080fa000000060027
:105238000000fa008041eb000041eb008040eb00e9
:1052480070c0b30092f40700004278000402fb002b
:10525800e20f520009003200e30f52000c00320046
:10526800e10f520035003a0000c2eb000002fd00d9
:105278001be9b7000002fd00300037000042eb00d8
:105288000002fd001be9b7000002fd002b003700fb
:10529800b491200014427800e04f5200050032001b
:1052a800a4478000b5478000c4478800d5478800d8
:1052b800040037008447800095478000c447880071
:1052c800d54788004647800057478000c44780007c
:1052d800d5478000840f5300858f5b000e00310096
:1052e80074c0b3000002fd0000e8b7000002fd0032
:1052f800b4912000144278000002fd0020edb700b0
:105308000002fd00c4478000d5478000644788003c
:10531800754788000800370054c6b3000002fd0036
:1053280000e8b7000002fd0024c2b3000002fd003f
:105338001ce9b7000002fd00230b07000041eb0049
:105348008040eb0010a92800a7f20700b4912000c4
:1053580014427800e04f5200050032000041eb0093
:1053680071c1b300e08d20009ff2070004003700f0
:105378000041eb0071c1b30090aa28009af207001f
:105388000041eb0081c1b300b0aa280096f20700e3
:10539800b491200014427800e04f5200050032001a
:1053a8000041eb00b1c2b30090aa28008ef20700ba
:1053b800040037000041eb00b1c2b300e08d2000cb
:1053c80089f207000041eb00c1c2b300f0ab28002e
:1053d80085f207000080fa00000006000000fa00cd
:1053e80093c1b3000041eb008040eb0090c1b300d3
:1053f80027f40700004278000402fb00e20f520085
:1054080009003200e30f52000c003200e10f520095
:1054180010003a0000c2eb000002fd003fe9b700af
:105428000002fd000b0037000042eb000002fd0007
:105438003fe9b7000002fd0006003700f4932000a2
:10544800144278000002fd0017edb7000002fd00cd
:10545800ae0a070072c1b3008040eb0040ae2800de
:1054680061f20700f493200014427800e04f5200e4
:10547800050032000041eb0071c1b300e08d20004f
:1054880059f20700040037000041eb0071c1b30076
:1054980090aa280054f2070032c1b30081c1b300ba
:1054a80080af280050f20700f493200014427800df
:1054b800e04f5200050032000041eb00b1c2b300da
:1054c80090aa280048f20700040037000041eb00ca
:1054d800b1c2b300e08d200043f2070002c1b3005f
:1054e800c1c2b300806528003ff207000041eb000d
:1054f800c1c3b300b0af28003bf207000080fa0038
:10550800000006000000fa00a3c1b300a2c1b30066
:10551800a1c1b300a0c1b300ddf3070000427800c9
:10552800e14f42000500320024c8200014427800f0
:105538000442e9000400780082ecb700c2c3b3005b
:105548008040eb0000b1280027f2070042c1b300f9
:10555800c1c3b30050b2280023f207000080fa004c
:10556800000006000000fa00c5912000954278006e
:10557800c4912000144278008041eb000041eb0008
:105588008540780004407800c1f3070000427800a5
:105598000402fb000482e900e10f520017003e00fc
:1055a800c491200014427800fb4f520005003a00d5
:1055b80054c1b3000002fd0000e8b7000002fd007e
:1055c8000900370074c0b3000002fd0000e8b7000e
:1055d8000002fd00b4912000144278000002fd0092
:1055e80020edb7000002fd00c4478000d5478000c9
:1055f80064478800754788009a0907000041eb0056
:105608008040eb00c0b22800f7f107000080fa00e4
:10561800000006000000fa00648d200014427800a3
:10562800e54f520067003e008041eb000041eb006f
:105638008040eb000040eb0095f307000042780043
:105648000402fb00cfa2de00360020000700200085
:10565800860f5200878f5a0097003e0004600100b1
:1056680003003700170037002b00370040003700d1
:10567800648d2000144278000482fb00040242007a
:1056880084027800a48c20008482420014c3b300f2
:10569800844a7800648d2000144278000483fb005b
:1056a800458c20000503430015c3b300054b780063
:1056b8000442e8000002fd00d6e8b7000002fd0041
:1056c80080003700648d2000144278000482fb00bb
:1056d8000402420084027800a48c200084824200e4
:1056e80024c3b300844a7800648d200014427800f3
:1056f8000483fb00458c20000503430025c3b30049
:10570800054b78000442e8000002fd00d6e8b70027
:105718000002fd006b003700648d20001442780001
:105728000482fb000402420084027800a48c20005a
:105738008482420034c3b300844a7800648d200018
:10574800144278000483fb00458c200005034300c5
:1057580035c3b300054b78000442e8000002fd00a1
:10576800d6e8b7000002fd00000000005500370031
:10577800648d2000144278000482fb000402420079
:1057880084027800a48c20008482420044c3b300c1
:10579800844a7800648d2000144278000483fb005a
:1057a800458c20000503430045c3b300054b780032
:1057b8000442e8000002fd00d6e8b7000002fd0040
:1057c8004000370073c1b3000041eb008040eb009c
:1057d8000040eb002ef30700004278000402fb00b3
:1057e800cfa2de003600200007002000860f5200fe
:1057f800878f5a0033003e00046001000300370021
:105808002f0037002e003700070037000042eb005a
:1058180004007800d6e8b700a18c2000507c28004e
:105828004405070027003700448c20001442780004
:105838000002fd00feecb7000002fd00548c2000c1
:10584800144278000002fd00ffecb7000002fd00e2
:10585800648c2000144278000002fd0000edb700bf
:105868000002fd00748c2000144278000002fd0044
:1058780001edb7000002fd00848c2000144278007e
:105888000002fd0002edb7000002fd00948c20002c
:10589800144278000002fd0003edb7000002fd008d
:1058a800490907000042eb000002fd00d6e8b700f6
:1058b8000002fd000300370000000000010037006f
:1058c80000000000c2c2b3008040eb00d0b728003f
:1058d80045f1070002c1b300c1c2b300a08c20008b
:1058e80041f10700648d200014427800e54f520012
:1058f80005003e0042c1b300c1c3b30010b928007f
:1059080039f10700040037000041eb00c1c3b300c0
:1059180060ba280034f107000080fa000000060091
:105928000000fa0013c0b3000041eb008040eb0018
:1059380010c0b300d6f20700004278000402fb0052
:10594800e00f520003003200e30f520004003a0057
:10595800ad0907000042eb000400780040e9b700f9
:10596800e2c2b3008040eb00b0bb28001ef1070084
:1059780054d1200014427800e94f520011003e0033
:105988000041eb00e1c2b300b0bd280016f10700ea
:1059980054d12000144278000482fb00a2002000a9
:1059a8008400780010ca20002eeb0700000278005f
:1059b8000041eb0001c3b300040078000af10700be
:1059c800100037000041eb00e1c2b300e0bd280041
:1059d80005f1070054d12000144278000482fb002e
:1059e800a20020008400780010ca20001deb0700e8
:1059f800000278000041eb00f1c2b3000400780017
:105a0800f9f007000041eb0011c3b30000be280005
:105a1800f5f0070064d1200014427800e04f5200ee
:105a2800050032000041eb0021c3b30020be28006e
:105a3800edf00700040037000041eb0021c3b3007c
:105a480040be2800e8f007000041eb0031c3b30076
:105a580060be2800e4f007000080fa00000006009d
:105a68000200fa000042eb000400780012e9b700d7
:105a7800c48f2000144278008402fb0054002000e8
:105a8800110009008402d80000027800044278005e
:105a9800144798000042eb00044f780012003700ca
:105aa8001e4290009e42780084cf520007003100c9
