:020000040000fa
:080000000002040000000000f2
:020000040000fa
:04000800c80200002a
:020000040000fa
:04000c00c802000026
:020000040000fa
:04001000c802000022
:020000040000fa
:04001400c80200001e
:020000040000fa
:04001800c80200001a
:020000040000fa
:04001c00c802000016
:020000040000fa
:04002000c802000012
:020000040000fa
:04002400c80200000e
:020000040000fa
:04002800c80200000a
:020000040000fa
:04002c00c802000006
:020000040000fa
:04003000c802000002
:020000040000fa
:04003400a42c0000f8
:020000040000fa
:04003800c8020000fa
:020000040000fa
:04003c00c8020000f6
:020000040000fa
:04004000c8020000f2
:020000040000fa
:040044000241000075
:020000040000fa
:04004800c8020000ea
:020000040000fa
:04004c00c8020000e6
:020000040000fa
:04005000c8020000e2
:020000040000fa
:04005400c8020000de
:020000040000fa
:04005800c8020000da
:020000040000fa
:04005c00c8020000d6
:020000040000fa
:04006000c8020000d2
:020000040000fa
:04006400c8020000ce
:020000040000fa
:04006800c8020000ca
:020000040000fa
:04006c00c8020000c6
:020000040000fa
:04007000c8020000c2
:020000040000fa
:04007400c8020000be
:020000040000fa
:04007800c8020000ba
:020000040000fa
:04007c00c8020000b6
:020000040000fa
:04008000c8020000b2
:020000040000fa
:04008400c8020000ae
:020000040000fa
:04008800c8020000aa
:020000040000fa
:04008c00c8020000a6
:020000040000fa
:04009000c8020000a2
:020000040000fa
:04009400c80200009e
:020000040000fa
:04009800c80200009a
:020000040000fa
:04009c00c802000096
:020000040000fa
:0400a0008e4400008a
:020000040000fa
:0400a400c80200008e
:020000040000fa
:0400a800c80200008a
:020000040000fa
:0400ac00c802000086
:020000040000fa
:0400b000c802000082
:020000040000fa
:0400b400c80200007e
:020000040000fa
:0400b800c80200007a
:020000040000fa
:0400bc00c802000076
:020000040000fa
:0400c000c802000072
:020000040000fa
:0400c400c80200006e
:020000040000fa
:0400c800c80200006a
:020000040000fa
:0400cc00c802000066
:020000040000fa
:0400d000c802000062
:020000040000fa
:0400d400c80200005e
:020000040000fa
:0400d800c80200005a
:020000040000fa
:0400dc00c802000056
:020000040000fa
:0400e000c802000052
:020000040000fa
:0400e400c80200004e
:020000040000fa
:0400e800c80200004a
:020000040000fa
:0400ec00c802000046
:020000040000fa
:0400f000c802000042
:020000040000fa
:0400f400c80200003e
:020000040000fa
:0400f800c80200003a
:020000040000fa
:0400fc00c802000036
:020000040000fa
:04010000c802000031
:020000040000fa
:04010400c80200002d
:020000040000fa
:04010800c802000029
:020000040000fa
:04010c00c802000025
:020000040000fa
:04011000c802000021
:020000040000fa
:04011400c80200001d
:020000040000fa
:04011800c802000019
:020000040000fa
:04011c00c802000015
:020000040000fa
:04012000c802000011
:020000040000fa
:04012400c80200000d
:020000040000fa
:04012800c802000009
:020000040000fa
:04012c00c802000005
:020000040000fa
:040130002e45000058
:020000040000fa
:04013400c8020000fd
:020000040000fa
:04013800c8020000f9
:020000040000fa
:04013c00c8020000f5
:020000040000fa
:04014000c8020000f1
:020000040000fa
:04014400c8020000ed
:020000040000fa
:04014800c8020000e9
:020000040000fa
:04014c00c8020000e5
:020000040000fa
:04015000c8020000e1
:020000040000fa
:04015400c8020000dd
:020000040000fa
:04015800c8020000d9
:020000040000fa
:04015c00c8020000d5
:020000040000fa
:04016000c8020000d1
:020000040000fa
:04016400c8020000cd
:020000040000fa
:04016800c8020000c9
:020000040000fa
:04020800c802000028
:020000040000fa
:04020c00c802000024
:020000040000fa
:04021000c802000020
:020000040000fa
:04021400c80200001c
:020000040000fa
:04021800c802000018
:020000040000fa
:04021c00c802000014
:020000040000fa
:04022000c802000010
:020000040000fa
:04022400c80200000c
:020000040000fa
:04022800c802000008
:020000040000fa
:04022c00c802000004
:020000040000fa
:04023000c802000000
:020000040000fa
:04023400c8020000fc
:020000040000fa
:04023800c8020000f8
:020000040000fa
:04023c00c8020000f4
:020000040000fa
:04024000c8020000f0
:020000040000fa
:04024400c8020000ec
:020000040000fa
:04024800c8020000e8
:020000040000fa
:04024c00c8020000e4
:020000040000fa
:04025000c8020000e0
:020000040000fa
:04025400c8020000dc
:020000040000fa
:04025800c8020000d8
:020000040000fa
:04025c00c8020000d4
:020000040000fa
:04026000c8020000d0
:020000040000fa
:04026400c8020000cc
:020000040000fa
:04026800c8020000c8
:020000040000fa
:04026c00c8020000c4
:020000040000fa
:04027000c8020000c0
:020000040000fa
:04027400c8020000bc
:020000040000fa
:04027800c8020000b8
:020000040000fa
:04027c00c8020000b4
:020000040000fa
:04028000c8020000b0
:020000040000fa
:04028400c8020000ac
:020000040000fa
:04028800c8020000a8
:020000040000fa
:04028c00c8020000a4
:020000040000fa
:04029000c8020000a0
:020000040000fa
:04029400c80200009c
:020000040000fa
:04029800c802000098
:020000040000fa
:04029c00c802000094
:020000040000fa
:0402a000c802000090
:020000040000fa
:0402a400c80200008c
:020000040000fa
:0402a800c802000088
:020000040000fa
:0402ac00c802000084
:020000040000fa
:0402b000c802000080
:020000040000fa
:0402b400c80200007c
:020000040000fa
:0402b800c802000078
:020000040000fa
:0402bc00c802000074
:020000040000fa
:0402c000c802000070
:020000040000fa
:0402c400c80200006c
:020000040000fa
:0402c800c802000068
:020000040000fa
:0402cc00c802000064
:020000040000fa
:0402d000c802000060
:020000040000fa
:0402d400c80200005c
:020000040000fa
:0402d800c802000058
:020000040000fa
:0402dc00c802000054
:020000040000fa
:0402e000c802000050
:020000040000fa
:0402e400c80200004c
:020000040000fa
:0402e800c802000048
:020000040000fa
:0402ec00c802000044
:020000040000fa
:0402f000c802000040
:020000040000fa
:0402f400c80200003c
:020000040000fa
:0402f800c802000038
:020000040000fa
:0402fc00c802000034
:020000040000fa
:04030000c80200002f
:020000040000fa
:04030400c80200002b
:020000040000fa
:04030800c802000027
:020000040000fa
:04030c00c802000023
:020000040000fa
:04031000c80200001f
:020000040000fa
:04031400c80200001b
:020000040000fa
:04031800c802000017
:020000040000fa
:04031c00c802000013
:020000040000fa
:04032000c80200000f
:020000040000fa
:04032400c80200000b
:020000040000fa
:04032800c802000007
:020000040000fa
:04032c00c802000003
:020000040000fa
:04033000c8020000ff
:020000040000fa
:04033400c8020000fb
:020000040000fa
:04033800c8020000f7
:020000040000fa
:04033c00c8020000f3
:020000040000fa
:04034000c8020000ef
:020000040000fa
:04034400c8020000eb
:020000040000fa
:04034800c8020000e7
:020000040000fa
:04034c00c8020000e3
:020000040000fa
:04035000c8020000df
:020000040000fa
:04035400c8020000db
:020000040000fa
:04035800c8020000d7
:020000040000fa
:04035c00c8020000d3
:020000040000fa
:04036000c8020000cf
:020000040000fa
:04036400c8020000cb
:020000040000fa
:04036800c8020000c7
:020000040000fa
:10040000cfd620000eff20000e0188000000000063
:10041000000020000000e000020032000001200087
:100420002002880014000700740007000000e000ac
:1004300003003a00e05924000100200002003700c8
:100440000000200001002000810f70000100320038
:1004500014000700000020000000e000020032004d
:100460000000020000000000323b0200000000001b
:100470000040da000000fe004440a900e09920009e
:100480000000e0000300320000002000a00188000e
:100490004440a800000006008a1f78008b1f7800e7
:1004a0000000060091018800800478000000eb0045
:1004b0001a003700e284440032a0b4009905ba0063
:1004c000e284440032a0b4009906ba00e2844400f9
:1004d00032a0b4000006eb00476fde00fd07b2005b
:1004e000636ce10003003a00ebff07000000eb0043
:1004f0000a003700606ce10004003a00005deb0088
:100500008b05e900fdff3e00040037006168e10053
:10051000010032000086eb000b00070019c7ba008b
:100520001905ba000e04e00003003a000a00e000da
:10053000e0ff3a0000000600fe07b2009e018800be
:100540008a047800f5ff3700395dba008b05e900b1
:100550000c003200295dba008b05e900080032006a
:100560000c00e00003003a00e284440032a0b40032
:10057000f5ff370019ddba008b05e900faff3a00f4
:100580008904e800e184440032a0b40000000600c1
:100590000040da000000fe001004b1000700350042
:1005a0009001b100040034007000b1000300350078
:1005b0009001b10001003c001000050000000500a2
:1005c0006900e100040035006d00e1000300340023
:1005d0000002b1000100320000000500100005001b
:1005e000800078001106b100030035009101b100d0
:1005f00001003c000050a1000000060000000500c2
:100600006022b800060220000000d0008180d200e5
:100610000482d2008582d2000000a00002025200b3
:1006200083825a00030031000202420083824a00a2
:100630000000a1000603e900f3ff3a0000000600f5
:10064000efff07000400be000000060080007800f5
:10065000010078003041780003c2b300834f51009d
:10066000faff3200e94f5100f8ff3200edc14100be
:10067000834f510003003a008000780013c0b3009c
:10068000050037008041eb00b4c2b300844f510035
:1006900001003a00800078000000eb000200370003
:1006a0006a02b900040041003101fb000203b100fd
:1006b000e90f5100faff36000304e00001003200a8
:1006c0000000ea00000006000003780081027800c4
:1006d000850178000100370004037800110009004b
:1006e0008281d800800178000602e8000300e00063
:1006f000f9ff3a00034a7800110009008282d8000d
:10070000000278008141780084027800e9cf51002e
:1007100001003400e7c1410001c3b30001d341002f
:100720000400e000f4ff3a00060078000000060034
:10073000881f7800000478000100e00005003d00fb
:1007400008007800d3c2b300035878008100ea00a3
:100750000100370008007800dbff07000800780080
:100760004f04780000000600889fbe008a9fbe00ec
:100770008c9fbe00800578000204be000105780051
:100780000200be0001003700820578006156b90002
:100790000c01be009aff07000b01e800e00f5000bb
:1007a000e08f5800f8ff3a000049eb000c01be0052
:1007b0000800be00a2ff0700004578000c01be0043
:1007c0000800be008eff07000004be00e94f550080
:1007d000010034006745450000c3b3008055450063
:1007e000e00f5400e08f5c00f0ff3a000b0078004f
:1007f0004f06be004f05be004f04be0000000600bd
:10080000881f780000047800e00f5100e08f590045
:1008100006003d0008007800d4c2b30004587800f8
:1008200060011100e0811900010037000800780024
:10083000cdff0700080078004f0478000000060094
:10084000e6874700889fbe008a9fbe008c9fbe003f
:100850008e1f780081067800820478008000eb000b
:10086000516b88000d00e00001003200800e78001e
:1008700000057800ba4078000a0478000100fb0007
:1008800081bf9f004eff07008fb897000000e00077
:10089000f8ff3a00d0c2b30080cf500003003a0006
:1008a000b84078001ec0b300050037000047eb00d9
:1008b000b0c2b30080cf500001003a00b8407800c9
:1008c00000c3b30080cf500012003a00b840780057
:1008d0000900e00002003200f08f540058003a0096
:1008e00080c7b30080cf50000300320080c5b30042
:1008f00080cf500003003a00b84078000901200082
:100900004f0037000900e0004d003a008900200048
:100910004b0037000046eb000900e00002003a00ff
:100920000046eb00a90020006055b8000101fb0063
:100930000200780081bf9f00f2b79f0016ff0700fa
:100940008fb897007fb197000000e00005003200eb
:100950000200780022ff070091ccb3000142400062
:10096000050037000203b100e90f51001e003e00f0
:1009700004cdb30004c240000400fb00890f500006
:1009800019003d000402fb00cfa2de006149b9005e
:100990000a00be00f4b79f0085bf9f0072000700e9
:1009a0007fb297008fba970004024000858248000a
:1009b0000800e800840f5500858f5d0005003600b3
:1009c00021022000516b88000004780010c0b300a1
:1009d0000600370098407800000478000405be0047
:1009e0001cc0b300d1ff37000040eb000c04e00056
:1009f000030032000d00e00001003200880ee90023
:100a0000e14f5000050032000e04e0000500320006
:100a100060051500e0851d00020037000085eb0031
:100a20008085eb000a00be004f0778004f06be002d
:100a30004f05be004f04be006f00b100000006006d
:100a40001cc0b300b8ff3700889fbe008a9fbe005d
:100a50008c9fbe00800578008104780082067800b3
:100a60000000eb00506b88000b0678000c05780046
:100a70000a0678003c4478000800fb00d0fe07001e
:100a80000000e000f9ff3a00d0c2b300804f5400ec
:100a90000300320000c0e900804f540002003a0019
:100aa0000a05e80001003700004478000d017800d5
:100ab000890078000a00780061ff07000900e00063
:100ac00007003200990f550024003a008b0c780083
:100ad00022003700e00f5000e08f58000f003a006e
:100ae000b2c2b300824f540004003a00e00f50003d
:100af000e08f580015003d0008003700d2c2b30057
:100b0000824f540011003a00020020000300280028
:100b1000820f5000838f58000a0036002002200008
:100b2000506b8800f0ff2f00f1ff2700d2c2b30006
:100b3000824f540005003a00000020000100280008
:100b40000200370060001000e08018004f06be0071
:100b50004f05be004f04be0000000600998f5500ef
:100b6000dfff3a00dbff3700020ab900001bb900c3
:100b70000200b8008100420081004300000006002e
:020000040000fa
:100b800042610000636b00002020000055700000ef
:100b900020200000446f0000776e0000202000003d
:100ba000202000004f4b0000004200006163000065
:100bb0006b20000020550000702000002054000031
:100bc0006f7000002020000020200000204f000057
:100bd0004b00000042610000636b00002020000019
:100be0005570000020200000446f0000776e000068
:100bf00020200000536100007665000000450000e1
:100c0000525200004f5200002034000030340000e7
:100c10003a0000004d6500006e750000206e000077
:100c20006f740000206600006f7500006e640000a5
:100c3000004400006562000075670000204d000060
:100c4000656e000075000000526500006d610000d7
:100c5000696e0000696e0000673a00000025000020
:100c6000200000004375000072720000656e0000f5
:100c7000742000004c6f0000616400003a00000026
:100c80002057000000540000696d0000652000003e
:100c90006c650000667400003a0000004d650000bd
:100ca0006e750000202000002053000077610000d6
:100cb00070200000202000004465000074610000e6
:100cc000696c0000004c000065660000743a00008a
:100cd000200000002f000000576800002052000094
:100ce000656d0000616900006e6900006e670000bc
:100cf0003a200000202000002020000000250000f5
:100d0000204c00006f610000643a000020200000c9
:100d100020200000202000002000000020570000bc
:100d2000204d0000656e00007520000020200000ae
:100d300020200000202000002020000020200000b3
:100d40004261000073690000630000005761000009
:100d5000726e0000696e0000673a0000204c0000cf
:100d60006f770000207000006f7700006572000050
:100d7000212000004f6e00006c7900002000000070
:100d800025200000726500006d610000696e0000a2
:100d9000696e0000672e0000202000002020000067
:100da0002020000020200000202000002020000043
:100db0002020000020200000202000002020000033
:100dc0002020000020200000204300006c6500006f
:100dd00061720000204100006c610000726d000033
:100de0002020000020200000200000004d610000b5
:100df000696e0000204d0000656e00007520000047
:100e00002020000020200000312000006f6600003c
:100e1000203600002a200000416c000061720000b2
:100e20006d2000004f700000746900006f6e0000bc
:100e3000732000002020000020200000202000005f
:100e4000416400006d6900006e2000004d650000e7
:100e50006e750000004d0000616900006e2000000a
:100e60004d6500006e75000020200000202000006d
:100e700020320000206f000066200000362a0000ab
:100e800020410000646d0000696e0000204d0000ec
:100e9000656e00007520000020200000202000006a
:100ea000202000002020000020480000696700008a
:100eb000682f00004c6f0000770000004d610000bb
:100ec000696e0000204d0000656e00007520000076
:100ed0002020000020200000332000006f6600006a
:100ee000203600002a2000004869000067680000e2
:100ef0002f4c00006f770000202000002020000011
:100f000020200000202000002020000020200000e1
:100f1000537400006174000069730000746900007c
:100f200063730000004d0000616900006e20000046
:100f30004d6500006e75000020200000202000009c
:100f400020340000206f000066200000362a0000d8
:100f50002053000074610000746900007374000085
:100f600069630000732000002020000020200000a2
:100f70002020000020200000204c000061730000b1
:100f800074200000506f00007765000072200000a0
:100f900046610000696c0000757200006500000089
:100fa0004d610000696e0000204d0000656e00007c
:100fb00075200000202000002020000035200000c7
:100fc0006f660000203600002a2000004c610000ff
:100fd00073740000205000006f77000065720000fd
:100fe00020460000616900006c7500007265000019
:100ff00020200000416200006f75000074000000b6
:101000004d610000696e0000204d0000656e00001b
:101010007520000020200000202000003620000065
:101020006f66000020360000202000004c610000a8
:1010300073740000205000006f770000657200009c
:1010400020460000616900006c75000072650000b8
:101050002a200000416200006f750000740000004b
:10106000416c0000617200006d2000004f700000b4
:10107000746900006f6e00007320000031200000d2
:101080006f660000203300002a2000004175000038
:1010900064690000626c000065200000416c000083
:1010a000617200006d200000200000004f6e000003
:1010b000200000004f6600006600000020200000b5
:1010c000416c0000617200006d20000031200000c2
:1010d000506f0000776500007220000020000000c3
:1010e00025000000416c0000617200006d200000ce
:1010f0004f700000746900006f6e000073200000e4
:10110000322000006f660000203300002a2000001b
:10111000416c0000617200006d2000003120000071
:10112000506f000077650000722000002000000072
:1011300020200000416c0000617200006d20000062
:1011400032200000506f0000776500007220000020
:1011500020000000416c0000617200006d20000062
:101160004f700000746900006f6e00007320000073
:10117000322000006f660000203300002a200000ab
:10118000416c0000617200006d2000003120000001
:10119000506f0000776500007220000000410000e1
:1011a0006c610000726d0000204f00007074000040
:1011b000696f00006e73000020330000206f000094
:1011c0006620000033200000204100006c61000018
:1011d000726d000020310000205000006f77000089
:1011e0006572000020200000002a0000204100005d
:1011f0006c610000726d0000203200002050000081
:101200006f7700006572000020200000002a0000b7
:10121000204100006c610000726d0000203200006f
:10122000205000006f770000657200002000000071
:10123000596500007374000065720000646100006d
:1012400079270000732000007573000061670000bb
:10125000653a0000202000000020000057680000d0
:10126000546f0000746100006c2000007573000072
:1012700061670000653a0000002000006b57000025
:10128000680000004c6100007374000020500000f2
:101290006f77000065720000204600006169000061
:1012a0006c7500007265000020200000004c0000fa
:1012b0006f73000074200000202000002020000038
:1012c0000052000065730000746f0000726500003a
:1012d0006420000000420000616300006b00000019
:1012e000506f00007765000072200000436f00001f
:1012f000646500003a2000000044000069730000ab
:1013000070200000436f0000646500003a20000078
:1013100020000000202000004d65000073730000d5
:101320006961000068200000436f00006c6c0000e1
:1013300065670000652000002020000020200000dc
:10134000204300006f6c00006c610000626f0000c1
:1013500072610000746f00007279000020200000ac
:101360002020000000410000646d0000696e000054
:101370006973000074720000617400006f720000f5
:10138000204c00006f670000696e0000005f0000e5
:10139000205f0000205f0000205f0000205f000051
:1013a000205f0000002a0000205f0000205f000096
:1013b000205f0000205f0000205f0000002a000086
:1013c000202a0000205f0000205f0000205f000056
:1013d000205f0000002a0000202a0000202a0000d0
:1013e000205f0000205f0000205f0000002a000056
:1013f000202a0000202a0000202a0000205f000090
:10140000205f0000002a0000202a0000202a00009f
:10141000202a0000202a0000205f00000020000099
:1014200020200000202000003120000020200000ab
:10143000202000003220000020200000202000009a
:101440002033000020200000202000002034000075
:1014500000410000646d0000696e0000204d000036
:10146000656e000075200000202000002031000083
:10147000206f000066200000362a00002053000084
:101480006574000020540000696d0000652f0000a5
:10149000446100007465000020200000202000004e
:1014a0002020000020530000657400002050000040
:1014b0006f77000065720000204100006c6c000036
:1014c0006f63000000410000646d0000696e000061
:1014d000204d0000656e00007520000020200000f7
:1014e00020320000206f000066200000362a000035
:1014f0002053000065740000205000006f7700004a
:1015000065720000204100006c6c00006f630000f9
:101510002020000020200000204500006d65000014
:1015200072670000656e000063790000204f0000c4
:1015300070740000696f00006e73000000410000cd
:10154000646d0000696e0000204d0000656e0000b3
:10155000752000002020000020330000206f0000d4
:1015600066200000362a0000204500006d6500005e
:1015700072670000656e000063790000204f000074
:1015800070740000696f00006e730000202000007e
:1015900020430000686100006e67000065200000c5
:1015a0005061000073730000776f000072640000e8
:1015b00000410000646d0000696e0000204d0000d5
:1015c000656e00007520000020200000203400001f
:1015d000206f000066200000362a00002043000033
:1015e000686100006e670000652000005061000027
:1015f00073730000776f0000726400002020000009
:101600002020000020430000686100006e67000099
:101610006520000052650000736500007420000022
:10162000546900006d65000000410000646d000019
:10163000696e0000204d0000656e000075200000fe
:101640002020000020350000206f000066200000f0
:10165000362a000020430000686100006e67000029
:1016600065200000526500007365000074200000d2
:10167000546900006d650000202000002052000029
:10168000656c000061790000204300006f6e00006f
:10169000747200006f6c000000410000646d000077
:1016a000696e0000204d0000656e0000752000008e
:1016b0002020000020360000206f0000662000007f
:1016c0003620000020430000686100006e670000c3
:1016d0006520000052650000736500007420000062
:1016e000546900006d650000202a000020520000af
:1016f000656c000061790000204300006f6e0000ff
:10170000747200006f6c00000053000065740000ec
:1017100020540000696d0000652f00004461000046
:101720007465000000420000616300006b2000004f
:101730002055000070200000204400006f7700005a
:101740006e200000204e000065780000740000004c
:101750005365000074200000506f000077650000a2
:1017600072200000416c00006c6f0000636100009b
:10177000746900006f6e000020200000002000004f
:1017800057680000207000006572000020640000af
:1017900061790000005300006574000020520000d1
:1017a000657300006574000020540000696d00003e
:1017b00065000000456d000065720000676500006f
:1017c0006e630000792000004f7000007469000013
:1017d0006f6e000073200000202000002a2000000f
:1017e000456d000065720000204200007574000025
:1017f000746f00006e200000202000002000000018
:1018000020200000456d00006572000020410000ae
:101810006c6c00006f630000204e00006f770000ca
:1018200020200000004500006d6500007267000088
:10183000656e000063790000204f000070740000a6
:10184000696f00006e73000020200000202000005f
:10185000204500006d650000722000004275000008
:10186000747400006f6e0000202000002020000033
:10187000002a0000204500006d6500007220000075
:10188000416c00006c6f0000632000004e6f000090
:1018900077200000004500006d65000072670000c1
:1018a000656e000063790000204f00007074000036
:1018b000696f00006e73000020200000202a0000e5
:1018c000204500006d650000722000004275000098
:1018d000747400006f6e00002020000020000000e3
:1018e00020200000456d00006572000020410000ce
:1018f0006c6c00006f630000204e00006f770000ea
:10190000200000002a200000456d000065720000e4
:10191000204100006c6c00006f630000204e00004e
:101920006f7700000048000069670000682f000022
:101930004c6f000077200000416c00006c6f0000cd
:1019400063610000746900006f6e000020200000d9
:10195000202000000020000000480000696700000f
:10196000682000002020000020200000202000002f
:101970002020000020200000202000002020000067
:10198000004c00006f7700002020000020200000a5
:101990002020000020200000202000002020000047
:1019a00020420000616300006b200000204800001e
:1019b0006967000068200000204c00006f7700007d
:1019c00020200000204f00004b0000005265000066
:1019d0006c61000079200000467500006e63000015
:1019e000746900006f6e0000616c00006974000093
:1019f000790000004f6e00000042000061630000ab
:101a00006b200000202000004f6e0000202000000e
:101a1000204f00006666000020200000204f0000dc
:101a20004b000000496e0000766100006c69000008
:101a300064200000646100007465000020650000ff
:101a40006e740000657200006564000000520000c2
:101a500065740000757200006e000000436f0000a6
:101a60006e740000696e0000756900006e6700000a
:101a700020770000696c00006c200000202000002e
:101a800020200000636100007573000065200000e5
:101a9000706f00007765000072200000746f000016
:101aa0002073000068750000742000006f6600005d
:101ab00066200000696d00006d650000646900002b
:101ac00061740000656c0000792100002020000096
:101ad000202000005265000074750000726e000046
:101ae000202000002020000020200000436f000084
:101af0006e740000696e000075650000004500000e
:101b00006e74000065720000206e000065770000b2
:101b10002070000061730000737700006f72000096
:101b2000643a000000310000202000002020000066
:101b30002032000020200000202000002020000093
:101b4000332000002020000020200000340000008e
:101b5000436c00006561000072200000202000003e
:101b60002020000020200000202000002020000075
:101b700053610000766500000049000073200000fa
:101b80006974000020610000667400006572000046
:101b90002074000068650000202000002020000064
:101ba000207200006573000065740000207400005e
:101bb000696d0000653f0000002000002800000063
:101bc000280000003a000000330000003000000050
:101bd00030290000202000002020000020200000ec
:101be000204e00006f200000202000002020000078
:101bf00020200000202000002020000020200000e5
:101c00002020000059650000730000002000000043
:101c10002e0d00000a0000003a000000736500006d
:101c200074000000746900006d6500000070000021
:101c30006f77000065720000006100006c610000b9
:101c4000726d000000700000776400000065000005
:101c50006d65000072000000766500007273000080
:101c60000070000077720000646f0000776e000063
:101c7000746900006d65000000700000777200005c
:101c800075700000746900006d650000007200004e
:101c9000657300006574000000720000656c000050
:101ca000617900000073000074610000740000009e
:101cb000686c0000006800006967000068000000b0
:101cc000726500006164000000720000656200003f
:101cd0006f6f000074000000506f00007765000017
:101ce00072200000636f00006e740000726f0000cd
:101cf0006c2000007379000073740000656d0000b3
:101d00002020000068610000732000007265000060
:101d100071750000657300007465000064200000a8
:101d200061200000202000002020000073790000c6
:101d300073740000656d0000207200006573000080
:101d400074610000727400002e00000054690000ed
:101d50006d65000000530000657400000050000035
:101d60006f77000065720000004100006c610000a8
:101d7000726d000000500000776400000045000014
:101d80006d65000072000000526500007365000080
:101d9000740000004f6e000000520000656c0000ef
:101da00061790000004600000053000074610000eb
:101db00074000000486900006768000000480000e7
:101dc0004c0000004c6f0000770000003000000065
:101dd000526500006164000000560000657200005a
:101de0007300000050770000724600006169000037
:101df0006c00000055700000646100007465000014
:101e0000005500006e6b00006e6f0000776e0000e2
:101e1000200000002e000000496e000069740000e0
:101e2000696100006c6900007a6900006e6700005b
:101e30000053000079730000746500006d200000fd
:101e4000776900006c6c0000207200006573000070
:101e50007461000072740000206900006e200000b0
:101e60003135000020730000656300006f6e0000d4
:101e70006473000020640000756500002074000099
:101e80006f610000206300006f6d00006d75000041
:101e90006e69000063610000746900006f6e0000ed
:101ea000206c0000696e00006b700000726f000013
:0c1eb000626c0000656d00002e00000058
:020000040000fa
:101ebc000200fa00004f78009e4078006fc060006e
:101ecc0008e8b7001e80fb004400de0000407800ec
:101edc0009e8b70009c8bf006e000700cb02a900d3
:101eec002800070008c8bf006a000700250007008b
:101efc0020002000eb1a07000080fa00000006000a
:101f0c000200fa00004f78009e4078006fc060001d
:101f1c0008e8b7001e80fb004400de00004078009b
:101f2c0009e8b70009c8bf005a000700cb02a80097
:101f3c001400070008c8bf00560007001100070076
:101f4c000080fa00000006000400fa001007980058
:101f5c009e009000010f7800040037001e007800ee
:101f6c00104078001e0fe800e5ff07001e00780007
:101f7c00104078000004e000f8ff3a000080fa00fe
:101f8c00000006000000fa00cb22a8001000200080
:101f9c00b81a0700cb22a9000080fa000000060046
:101fac000200fa000040eb003a0007004006200057
:101fbc00bc1a070030c0b30036000700e001200057
:101fcc00b81a0700efff0700a0002000b51a0700a1
:101fdc00ecff0700a0002000b21a0700e9ff070081
:101fec00a0002000af1a070020c0b3002900070092
:101ffc00e4ff070080c2b300adff070000c1b300cf
:10200c00abff0700c0c0b300a9ff070060c0b3005e
:10201c00a7ff0700c0c0b300a5ff070010c0b300a6
:10202c00a3ff0700200020009e1a070020c0b30069
:10203c009fff0700e0c7b300dee8b700df68ef00e2
:10204c00ca42a8000040eb00004f78000b0037009c
:10205c009e80fb00a08020000080400001c2b300e5
:10206c00014878009e80fb00b08520000080400075
:10207c0001c2b300014878001e4fe800f0c4b30061
:10208c009e40780080cf5000f1ff36000080fa00af
:10209c00000006000200fa00004f78009e40780015
:1020ac0061c0600061406000614060000080fb0026
:1020bc00610060004c00dd005116800001c0a100e1
:1020cc0001007000501688001e80fb000000d1003b
:1020dc00004f78009e40780061c060006140600055
:1020ec00614060000080fb00610060004d00dd007d
:1020fc005116800001d0a10001007000501688001c
:10210c001e80fb000000d100004f78009e4078003c
:10211c0061c0600061406000614060000080fb00b5
:10212c00610060004e00dd005116800001e0a1004e
:10213c0001007000501688001e80fb000000d100ca
:10214c00004f78009e40780061c0600061406000e4
:10215c00614060000080fb004f00dd0052168000e3
:10216c00f1ff27008100610001007000501688000b
:10217c000080fa00000006000a00fa003007980000
:10218c00014f9800124f9800be009000010f78008c
:10219c00be009000110798000040eb0040479800eb
:1021ac000040eb00504798001e4890000004e000ef
:1021bc0050003d001e4890000040ea00104f98006f
:1021cc00030037005e4090000040e8005047980044
:1021dc001e009000104078000080fb000000ea0018
:1021ec004f00de00004078009e0090008100e80067
:1021fc00110798000004e000f2ff3a000040eb00e9
:10220c00404798000c0037000e4890008080fb007f
:10221c004e4090000000fb0080804000b085200004
:10222c000080400001c2b300014878004e4090008d
:10223c000040e800404798004e4090008000fb00b2
:10224c001e4890000001fb005e4090000000fb0067
:10225c0000005100808f5000ebff35000e0037005e
:10226c000e4890008080fb004e4090000000fb0068
:10227c00008140001e00780090407800b08520005e
:10228c0000004100014878004e4090000040e800fa
:10229c00404798001e0fe8001e00780010407800a0
:1022ac000004e000eeff3a00350037000e489000c5
:1022bc008080fb004e4090000000fb00008140003d
:1022cc001e00780090407800b0852000000041008e
:1022dc00014878004e4090000040e80040479800cc
:1022ec001e0fe8005e4090000040e8005047980048
:1022fc0001003700000000001e007800104078003c
:10230c000004e000e9ff3a001e4890000004e000e1
:10231c001b0034000040eb00404798000f003700d2
:10232c000e4890008080fb005e4090000000fb0097
:10233c00808040004e4090000000fb0080804000f8
:10234c00b08520000080400001c2b3000148780035
:10235c004e4090000040e800404798004e409000ee
:10236c008000fb001e4890000001fb005e409000c6
:10237c000000fb0000005100808f5000e8ff35008a
:10238c000080fa00000006000000fa0000c8bf0040
:10239c000080fb006101b9000080eb008080eb0045
:1023ac000200400083804800720c200003002000d3
:1023bc00820f5000838f580015013e000060010011
:1023cc00c9003700ca003700cb003700c400370003
:1023dc00cb003700cc003700cd003700ce003700e3
:1023ec00cf003700d0003700d1003700d2003700c3
:1023fc00d3003700d4003700d50037000401370074
:10240c0003013700d4003700d5003700d600370061
:10241c00d7003700d8003700d9003700da00370072
:10242c00db003700dc003700dd003700de00370052
:10243c00df003700e0003700e1003700e200370032
:10244c00ef003700e2003700e3003700e40037000c
:10245c00e5003700ee003700ed003700ec003700e8
:10246c00eb003700ea003700e9003700e8003700de
:10247c00e7003700e6003700e5003700e4003700de
:10248c00e3003700e2003700e1003700e0003700de
:10249c00df003700de003700dd003700dc003700de
:1024ac00db003700da003700d9003700d8003700de
:1024bc00d7003700d6003700d5003700d4003700de
:1024cc00d3003700d2003700d1003700d0003700de
:1024dc00cf003700ce003700cd003700cc003700de
:1024ec00cb003700ca003700c9003700c8003700de
:1024fc00c7003700c6003700c5003700c4003700de
:10250c00c3003700c2003700c1003700c0003700dd
:10251c00bf003700be003700bd003700bc003700dd
:10252c00bb003700ba003700b9003700b8003700dd
:10253c00b7003700b6003700b5003700b4003700dd
:10254c00b3003700b2003700b1003700a8003700e5
:10255c00a9003700ae003700ad003700ac003700e3
:10256c00ab003700aa003700a9003700a8003700dd
:10257c00a7003700a6003700a5003700a4003700dd
:10258c00a3003700a2003700a1003700a0003700dd
:10259c009f0037009e0037009d0037009c003700dd
:1025ac009b0037009a0037009900370098003700dd
:1025bc0097003700960037009500370094003700dd
:1025cc0093003700920037009100370090003700dd
:1025dc008f0037008e0037008d0037008c003700dd
:1025ec008b0037008a0037008900370088003700dd
:1025fc0087003700860037008500370084003700dd
:10260c0083003700820037008100370080003700dc
:10261c007f0037007e0037007d0037007c003700dc
:10262c007b0037007a0037007900370078003700dc
:10263c0077003700760037007500370074003700dc
:10264c0073003700720037007100370070003700dc
:10265c006f0037006e0037006d0037006c003700dc
:10266c006b0037006a0037006900370068003700dc
:10267c0067003700660037006500370064003700dc
:10268c0063003700620037006100370060003700dc
:10269c005f0037005e0037005d0037005c003700dc
:1026ac005b0037005a0037005900370058003700dc
:1026bc0057003700560037005500370054003700dc
:1026cc0053003700520037005100370050003700dc
:1026dc004f0037004e0037004d0037004a003700de
:1026ec00ab0007004b003700b5000700490037006e
:1026fc009f01070047003700f40107004500370031
:10270c002002070043003700380207004100370061
:10271c00520207003f003700870207003d003700d8
:10272c009e0207003b003700b50207003900370056
:10273c00cc020700370037000d03070035003700c7
:10274c005303070033003700d00307003100370074
:10275c00160407002f003700d90407002d0037009e
:10276c00f80407002b0037008e05070029003700fe
:10277c00b405070027003700da05070025003700ed
:10278c00ec050700230037001d0607002100370069
:10279c00370607001f003700520607001d003700e0
:1027ac00450707001b0037002c08070019003700ed
:1027bc008e08070017003700c00807001500370007
:1027cc00ed080700130037004c0907001100370013
:1027dc009a0907000f003700f10907000d003700b8
:1027ec00710407000b00370095040700090037003f
:1027fc002a0a0700070037003d0a070005003700ca
:10280c005b0a070003003700ef0a070001003700de
:10281c00460007000080fa00000006000400fa00e1
:10282c00004f7800114798002247980033479800d2
:10283c001e4078000004e00002003a0000c8bf000f
:10284c00004f78001e4090000004e00002003a00a7
:10285c0000c8bf00104798002e4090000004e00014
:10286c0002003a0000c8bf00204798003e4090008c
:10287c000004e00002003a0000c8bf003047980096
:10288c0001c8bf00e14f500007003a001e4078001d
:10289c0000e8b70001c8bf000040e80001e8b7003d
:1028ac000040eb001f00370002c8bf00e14f500092
:1028bc0007003a001e40900000e8b70002c8bf00b5
:1028cc000040e80002e8b70010c0b3001500370064
:1028dc0003c8bf00e14f500007003a002e409000a3
:1028ec0000e8b70003c8bf000040e80003e8b700e9
:1028fc0020c0b3000b00370004c8bf00e14f5000ec
:10290c0007003a003e40900000e8b70004c8bf0042
:10291c000040e80004e8b70030c0b3000100370005
:10292c0000c0eb000080fa00000006000000fa0076
:10293c0013c0b30012c0b30011c0b30010c0b30079
:10294c00b6ff070042c1b3008040eb00f05f2800e7
:10295c0009fe070092c3b30041c1b300a060280078
:10296c0005fe070000c8bf000080fb00a20020008d
:10297c0080007800c08a200050f70700d2cfb30047
:10298c00d1c4b300fcfd07000080fa000000060073
:10299c000000fa0013c0b3000041eb008040eb00d4
:1029ac000040eb009dff070042c1b3008040eb00ec
:1029bc0090612800f0fd07000080fa00000006007e
:1029cc001600fa0023c0b3000041eb008040eb007e
:1029dc0050c0b30091ff07000000fb000000e000b6
:1029ec00050032000000e00008003500e20f500046
:1029fc0006003c0002003700d1120700030037002c
:102a0c00fdc8bf000040e800fde8b700501680008c
:102a1c00640060000000e00009003a0081ccbf00b7
:102a2c008080fb00a000200000017800110009004c
:102a3c008280d8000040780061406000fde8b7005b
:102a4c00c6160700da140700fdc8bf00e14f50009e
:102a5c0001003400fd68ef0000c2b300004f7800a5
:102a6c007fccbf008080fb00a0002000000178001c
:102a7c00110009008280d800004078000043b000ab
:102a8c00104798007fccbf008080fb00a000200086
:102a9c0000017800110009008280d8008000fd0040
:102aac00004078000043b00020479800a0c3b3005a
:102abc003047980080ccbf008080fb00a000200035
:102acc0000017800110009008280d80000407800d5
:102adc000043b0004047980080ccbf008080fb00d2
:102aec00a000200000017800110009008280d800ad
:102afc008000fd00004078000043b0005047980073
:102b0c00a0c3b3006047980081ccbf008080fb005d
:102b1c00a000200000017800110009008280d8007c
:102b2c00004078000043b0007047980081ccbf0093
:102b3c008080fb00a000200000017800110009003b
:102b4c008280d8008000fd00004078000043b00077
:102b5c00004f980000c2b300104f980000c2b300a1
:102b6c00204f98007dccbf008080fb00a00020008f
:102b7c0000017800110009008280d8000040780024
:102b8c000043b000304f98007dccbf008080fb002c
:102b9c00a000200000017800110009008280d800fc
:102bac008000fd00004078000043b000404f9800ca
:102bbc00f0c2b300504f98007cccbf008080fb006b
:102bcc00a000200000017800110009008280d800cc
:102bdc00004078000043b000604f98007cccbf00f0
:102bec008080fb00a000200000017800110009008b
:102bfc008280d8008000fd00004078000043b000c7
:102c0c00704f9800f0c2b300005798007bccbf0007
:102c1c008080fb00a000200000017800110009005a
:102c2c008280d800004078000043b0001057980014
:102c3c007bccbf008080fb00a0002000000178004e
:102c4c00110009008280d8008000fd00004078004f
:102c5c000043b0002057980000c2b30030579800d2
:102c6c000040eb00405798000041eb008040eb0027
:102c7c000e00780040fd0700fdc8bf000004e00016
:102c8c0017003a00f2c0b30041c1b3004062280003
:102c9c0039fd0700fcc8bf000000fb00a2002000ab
:102cac0080007800c08a20009ef60700d2cfb300c7
:102cbc0031c2b30030fd07000041eb0061c2b3002c
:102ccc00f06228002cfd0700040a07000041eb000d
:102cdc0081c2b300e08f200027fd070019003700e8
:102cec000041eb0041c1b3002063280022fd070026
:102cfc002247800033478000a100200010ca20002a
:102d0c0096f60700b2cfb30011c2b30010ca200070
:102d1c0019fd07000041eb0061c2b30000642800fc
:102d2c0015fd0700c2c0b30081c2b3003064280097
:102d3c0011fd07000041eb0041c3b300609320007c
:102d4c000dfd07000041eb00c1c3b300e064280097
:102d5c0009fd0700c3c8bf000004e00002003a00f0
:102d6c0010c0b300c3e8b7000080fa0000000600f2
:102d7c000200fa0013c0b3000041eb008040eb00ee
:102d8c0050c0b300a5fe07000000fb000000e000ef
:102d9c0001003a00ea110700f015070004140700bf
:102dac006047800071478000000178004047800038
:102dbc00514780000000780000005100000f78009f
:102dcc001e0078000000e00002003d000000eb0057
:102ddc00000f78000041eb008040eb0030662800cb
:102dec00e5fc0700a20020009e007800c08a2000ad
:102dfc004cf60700b2cfb30061c0b300defc070095
:102e0c000041eb00b1c0b300a0662800dafc07005b
:102e1c00604780007147800000007800a20020000d
:102e2c008000780010ca20003ef60700b2cfb30035
:102e3c00c1c0b300d0fc07000041eb0011c1b300ce
:102e4c00c0662800ccfc0700fcc8bf000000fb00db
:102e5c00a200200080007800c08a200031f6070014
:102e6c00d2cfb30031c2b300c3fc07000041eb006a
:102e7c0061c2b300f0672800bffc07002247800046
:102e8c0033478000a1002000d0ca200033f6070091
:102e9c00b2cfb30041c3b300d0ca2000b6fc0700c8
:102eac000041eb0091c3b300e0682800b2fc0700be
:102ebc00c3c8bf000004e00002003a0010c0b30019
:102ecc00c3e8b7000080fa00000006000000fa001a
:102edc008041eb000041eb008040eb000040eb0038
:102eec004efe07000000fb0060004000e30f5000a6
:102efc0011003e00c0c8bf0000e8b700dac8bf0030
:102f0c00e14f500002003a0010c0b300d8e8b700ff
:102f1c00dac8bf00e24f500002003a0010c0b30004
:102f2c00d9e8b700d768ef00d7c8bf00dae8b70018
:102f3c00dac8bf00dbe8b7000041eb008040eb00d3
:102f4c00606a28008cfc0700fcc8bf000000fb0076
:102f5c00a200200080007800c08a2000f1f5070054
:102f6c00e2cfb30091c1b30083fc07000041eb003a
:102f7c00b1c1b300006c28007ffc07000080fa0090
:102f8c00000006000000fa00b3c0b30062c0b3003a
:102f9c00a1c0b30010c0b30020fe07000000fb006e
:102fac00e10f500003003200e20f5000030032002a
:102fbc000300370077110700010037006711070085
:102fcc00c2c3b3008040eb00606f28006afc0700ae
:102fdc000041eb00c1c3b300005c280066fc070095
:102fec00c368ef000080fa00000006000000fa0041
:102ffc0033c1b30072c0b30051c0b30010c0b300f2
:10300c0006fe07000000fb00e20f50000600320035
:10301c00e30f500006003200e10f500005003a00ab
:10302c004711070003003700761107000100370035
:10303c00d668ef00c2c3b3008040eb00b07228002a
:10304c004dfc07000041eb00c1c3b300005c28003d
:10305c0049fc07000080fa00000006000000fa009e
:10306c0023c2b30082c0b30061c0b30010c0b30070
:10307c00eafd07000000fb00e20f500006003200e2
:10308c00e30f500006003200e10f500020003a0020
:10309c00321107001e003700531107001c003700c7
:1030ac0028cdbf001be9b700a0478000b1478000c6
:1030bc00e00f5000e08f580015003a006047800088
:1030cc0071478000a0478800b147880060478000a6
:1030dc00714780006309b900020178006002b900f1
:1030ec008401780003014100330020000300b80084
:1030fc0001014100820078004e09dd004200de0033
:10310c0000007100c208de008047880091478800eb
:10311c00c2c3b3008040eb00e075280016fc07002a
:10312c000041eb00c1c3b300005c280012fc070097
:10313c000080fa00000006000000fa0043c2b30051
:10314c0092c0b30071c0b30010c0b300b3fd070050
:10315c000000fb00e10f500003003200e20f5000b2
:10316c00030032000300370026110700010037006e
:10317c002b110700c2c3b3008040eb00307928004c
:10318c00fdfb07000041eb00c1c3b300005c28004d
:10319c00f9fb07000080fa00000006000000fa00ae
:1031ac0053c2b300a2c0b30081c0b30010c0b300bf
:1031bc009afd07000000fb00e10f500003003200f5
:1031cc00e20f500003003200030037000611070025
:1031dc0001003700ef100700c2c3b3008040eb00c2
:1031ec00007d2800e4fb07000041eb00c1c3b300e5
:1031fc00005c2800e0fb07000080fa0000000600dd
:10320c000000fa0023c1b30052c0b30091c0b30058
:10321c0010c0b30081fd07000000fb00e10f50005f
:10322c0003003200e20f50000300320003003700ad
:10323c00fb10070001003700c1100700c2c3b30028
:10324c008040eb0000802800cbfb07000041eb0026
:10325c00c1c3b300505d2800c7fb07000080fa0013
:10326c00000006000000fa008041eb00c2c0b30071
:10327c00e1c0b30050c0b30068fd07000000fb00c4
:10328c000000e00003003200e30f500003003200a6
:10329c0005003700e50f07000300370001cdbf0024
:1032ac000040e80001edb7000041eb008040eb006e
:1032bc0000832800b0fb070001cdbf00e14f500098
:1032cc0007003a000041eb0051c2b30060852800b2
:1032dc00a9fb070010c0b30001edb70005003700d3
:1032ec000041eb0051c2b300a0852800a2fb0700ef
:1032fc00016def000041eb0081c2b300e0852800b6
:10330c009dfb070002cdbf000004e0000e00320060
:10331c0004cdbf000000fb00a2002000800078005c
:10332c00c08a2000fff40700e2cfb30091c3b300c2
:10333c0091fb07000041eb00b1c3b30000872800ec
:10334c008dfb0700040037000041eb0091c3b30074
:10335c00a085280088fb07000041eb00c1c3b30027
:10336c00005c280084fb07000080fa0000000600c7
:10337c000000fa00d3c0b300e2c0b300b1c0b30088
:10338c0050c0b30025fd07000000fb000000e0006a
:10339c0003003200e30f500003003200040037003a
:1033ac00a20f07000200370004cdbf00e0e8b70011
:1033bc000041eb008040eb00208728006efb0700eb
:1033cc0002cdbf000004e0000e00320004cdbf00af
:1033dc000000fb00a200200080007800c08a2000c2
:1033ec00d0f40700e2cfb30051c2b30062fb070078
:1033fc000041eb0071c2b300008728005efb0700a0
:10340c00040037000041eb0051c2b300a085280036
:10341c0059fb07000041eb0081c2b30080892800f2
:10342c0055fb070003cdbf000004e0000e00320086
:10343c0005cdbf000000fb00a2002000800078003a
:10344c00c08a2000b7f40700e2cfb30091c3b300e9
:10345c0049fb07000041eb00b1c3b3000087280013
:10346c0045fb0700040037000041eb0091c3b3009b
:10347c00a085280040fb07000041eb00c1c3b3004e
:10348c00005c28003cfb07000080fa0000000600ee
:10349c000000fa00c3c0b3000041eb008040eb0019
:1034ac00c0c0b300ddfc07000000fb00e20f5000c1
:1034bc001a003200e30f50002e003200e10f5000d2
:1034cc0036003a0002cdbf000004e00003003a00d1
:1034dc0010c0b30002edb70030003700e0c8bf00e9
:1034ec00f34f500004003c00e0c8bf000040e8006f
:1034fc00e0e8b70029003700018e200091407800e9
:10350c00e0c5b30080cf50001f003c00e0c8bf00f6
:10351c0065404000e0e8b7002000370002cdbf0056
:10352c000004e0001a003200e0c8bf00f44f500065
:10353c0004003400e0c8bf0065405000e0e8b7006c
:10354c0016003700e0c8bf00e14f50000400340003
:10355c00e0c8bf000040e900e0e8b7000f0037000a
:10356c00e0c8bf00e14f50000b003c00026def00c3
:10357c000a003700e0c8bf0004edb7004169ef0056
:10358c002a0f070005003700000000000300370079
:10359c000000000001003700000000000041eb00bb
:1035ac008040eb00a08a2800f3fa07000041eb00f2
:1035bc0041c2b300e08d2000effa070002cdbf003e
:1035cc000004e0000e003200e0c8bf000000fb0069
:1035dc00a200200080007800c08a200051f407006f
:1035ec00e2cfb30051c2b300e3fa07000041eb0095
:1035fc0071c2b30000872800dffa0700040037000f
:10360c000041eb0051c2b300a0852800dafa070094
:10361c000041eb0081c2b30080892800d6fa070074
:10362c0003cdbf000004e0000e00320005cdbf004a
:10363c000000fb00a200200080007800c08a20005f
:10364c0038f40700e2cfb30091c3b300cafa070005
:10365c000041eb00b1c3b30000872800c6fa070095
:10366c00040037000041eb0091c3b300a085280093
:10367c00c1fa07000041eb00c1c3b300a05e2800f3
:10368c00bdfa07000080fa00000006000000fa00f6
:10369c00f3c0b300b2c0b300c1c0b30050c0b3009c
:1036ac005efc07000000fb000000e000030032009d
:1036bc00e30f50000300320004003700db0e07005c
:1036cc000200370005cdbf00e0e8b7000041eb0079
:1036dc008040eb00f08c2800a7fa070002cdbf0059
:1036ec000004e0000e00320004cdbf000000fb001f
:1036fc00a200200080007800c08a200009f4070096
:10370c00e2cfb30051c2b3009bfa07000041eb00bb
:10371c0071c2b3000087280097fa07000400370035
:10372c000041eb0051c2b300a085280092fa0700bb
:10373c000041eb0081c2b300508f28008efa0700c5
:10374c0003cdbf000004e0000e00320005cdbf0029
:10375c000000fb00a200200080007800c08a20003e
:10376c00f0f30700e2cfb30091c3b30082fa070075
:10377c000041eb00b1c3b300008728007efa0700bc
:10378c00040037000041eb0091c3b300a085280072
:10379c0079fa07000041eb00c1c3b300505d28006b
:1037ac0075fa07000080fa00000006000000fa001d
:1037bc00e3c0b3000041eb008040eb00e0c0b3007d
:1037cc0016fc07000000fb00e20f50001a0032004c
:1037dc00e30f50002e003200e10f500036003a008b
:1037ec0003cdbf000004e00003003a0010c0b3009a
:1037fc0003edb70030003700e0c8bf00f34f5000b6
:10380c0004003c00e0c8bf000040e800e0e8b7005e
:10381c0029003700018e200091407800e0c5b300ec
:10382c0080cf50001f003c00e0c8bf006540400046
:10383c00e0e8b7002000370003cdbf000004e00033
:10384c001a003200e0c8bf00f44f500004003400ee
:10385c00e0c8bf0065405000e0e8b7001600370034
:10386c00e0c8bf00e14f500004003400e0c8bf00c6
:10387c000040e900e0e8b7000f003700e0c8bf00e7
:10388c00e14f50000b003c00036def000a003700c5
:10389c00e0c8bf0005edb7004269ef00630e0700fa
:1038ac000500370000000000030037000000000096
:1038bc0001003700000000000041eb008040eb00ed
:1038cc00f08c28002cfa070002cdbf000004e000a9
:1038dc000e00320004cdbf000000fb00a20020004f
:1038ec0080007800c08a20008ef30700e2cfb3007e
:1038fc0051c2b30020fa07000041eb0071c2b300c3
:10390c00008728001cfa0700040037000041eb0078
:10391c0051c2b300a085280017fa07000041eb0044
:10392c0081c2b3007090280013fa07000041eb002d
:10393c0081c3b300e08d20000ffa070003cdbf0058
:10394c000004e0000e003200e0c8bf000000fb00e5
:10395c00a200200080007800c08a200071f30700cc
:10396c00e2cfb30091c3b30003fa07000041eb00b0
:10397c00b1c3b30000872800fff90700040037002b
:10398c000041eb0091c3b300a0852800faf90700b1
:10399c000041eb00c1c3b300a05e2800f6f907009c
:1039ac000080fa00000006000000fa0083c0b3009b
:1039bc0082c0b30081c0b30080c0b30097fb070086
:1039cc000041eb008040eb0080912800eaf90700f1
:1039dc0020698000316980000001be00a100200038
:1039ec0010ca200083f30700f2ceb30041c1b3002c
:1039fc00e1f9070072c1b30051c2b300d0922800a4
:103a0c00ddf9070000698000116980000001be002b
:103a1c00a1002000d0ca200076f3070002cfb3002b
:103a2c00c1c3b300d4f907000041eb00c1c4b3001b
:103a3c00d0932800d0f907000080fa00000006009f
:103a4c000000fa0093c0b30092c0b30091c0b30061
:103a5c0090c0b30071fb07000041eb008040eb000d
:103a6c0020942800c4f907000041eb0041c1b300c9
:103a7c0070952800c0f907000041eb00d1c1b300dc
:103a8c00c0bf2000bcf907000041eb0081c2b300ad
:103a9c0010962800b8f907000041eb0011c3b300e1
:103aac0080c02000b4f9070042c1b300c1c3b30009
:103abc00b0962800b0f907000080fa00000006005c
:103acc000000fa00a3c0b300a2c0b300a1c0b300b1
:103adc00a0c0b30051fb07000041eb008040eb009d
:103aec0000972800a4f9070082c0b300c1c0b3003e
:103afc0040d12000a0f907000041eb0041c1b30008
:103b0c00d09728009cf90700306b8000416b800037
:103b1c000001be00a1002000d0ca200035f3070030
:103b2c0082c0b30001c2b30093f907000041eb005f
:103b3c0081c2b300a09828008ff907000080fa001a
:103b4c00000006000000fa00d6c8bf00e64f500087
:103b5c004b0032008041eb000041eb008040eb0059
:103b6c000040eb002dfb07000000fb00e10f5000b4
:103b7c0013003200e10f500003003c000000e00095
:103b8c000600320028003700e20f5000150032000a
:103b9c00e30f50001c00320023003700d6c8bf00d2
:103bac000081fb00418c20008100410012c3b30056
:103bbc00824878000040e800d6e8b7001a003700c9
:103bcc00d6c8bf000081fb00418c20008100410061
:103bdc0022c3b300824878000040e800d6e8b70062
:103bec0011003700d6c8bf000081fb00418c2000bb
:103bfc008100410032c3b300824878000040e800e5
:103c0c00d6e8b70008003700d6c8bf000081fb001b
:103c1c00418c20008100410042c3b30082487800ef
:103c2c000040e800d6e8b700c2c2b3008040eb0009
:103c3c00309b280050f90700d6c8bf000080fb005d
:103c4c00e20f50003d003200e20f500005003c0036
:103c5c000000e0002f003200e10f50003200320073
:103c6c004a003700e40f50003e003200e40f5000d1
:103c7c0037003500e50f50003f003200430037009d
:103c8c00418c20009140780006cdbf0080cf5000c1
:103c9c001d003a00518c20009140780007cdbf00e8
:103cac0080cf500018003a00618c200091407800c1
:103cbc0008cdbf0080cf500013003a00718c20005b
:103ccc009140780009cdbf0080cf50000e003a0023
:103cdc00818c2000914078000acdbf0080cf50002d
:103cec0009003a00918c2000914078000bcdbf0068
:103cfc0080cf500004003a0040c1b30000e8b70088
:103d0c00010e07002500370010c0b30000e8b70013
:103d1c00220037000041eb00c1c2b300709c2800a8
:103d2c0015f90700190037000041eb00c1c2b300c0
:103d3c00309d280010f90700140037000041eb00fb
:103d4c00c1c2b300f09d28000bf907000f0037002b
:103d5c000041eb00c1c2b300b09e280006f9070079
:103d6c000a0037000041eb00c1c2b300709f28006d
:103d7c0001f90700050037000041eb00c1c2b30098
:103d8c0030a02800fcf80700000000000041eb0008
:103d9c0071c3b300f0a02800f7f807000080fa0008
:103dac00000006000000fa00a3c1b30052c1b3002a
:103dbc0091c1b30060c0b30098fa07000000fb008b
:103dcc00e20f500006003200e30f500006003200f4
:103ddc00e10f500011003a00fc0d07000f003700f6
:103dec00d00d07000d00370010c0b30082ecb700f7
:103dfc00da1107007fccbf0083ecb70080ccbf008a
:103e0c0084ecb7007cccbf0085ecb7007dccbf0048
:103e1c0086ecb7007bccbf0087ecb700c2c3b30005
:103e2c008040eb0090a22800d3f807000041eb0083
:103e3c00c1c3b300005c2800cff807000080fa0073
:103e4c00000006000000fa00b3c1b30062c1b30069
:103e5c0041c1b30060c0b30070fa07000000fb0062
:103e6c00e20f500006003200e30f50000600320053
:103e7c00e10f500011003a00a30d07000f003700ae
:103e8c00bd0d07000d003700a0478000b147800032
:103e9c00e00f5000e08f580004003a0060478000ab
:103eac0071478000a0478800b1478800a047800078
:103ebc00b1478000c0478800d1478800c2c3b30017
:103ecc008040eb0030a62800abf807000041eb0067
:103edc00c1c3b300005c2800a7f807000080fa00fb
:103eec00000006000000fa00d3c1b30072c1b30099
:103efc0051c1b30060c0b30048fa07000000fb00da
:103f0c00e10f500001003a00860d0700c2c3b30058
:103f1c008040eb00f0a9280097f807000041eb0067
:103f2c00c1c3b300005c280093f807000080fa00be
:103f3c00000006000000fa0013c2b30082c1b300f7
:103f4c0061c1b30060c0b30034fa07000000fb008d
:103f5c00e20f500006003200e30f50000600320062
:103f6c00e10f50001c003a00830d07001a003700c7
:103f7c008f0d070018003700d668ef00f0c5b300ae
:103f8c00d4e8b700d4c8bf00d2e8b700d2c8bf008d
:103f9c00d0e8b700d0c8bf00cee8b700cec8bf008d
:103fac00cce8b700ccc8bf00cae8b70000c2b30069
:103fbc00d3e8b700d3c8bf00d1e8b700d1c8bf0061
:103fcc00cfe8b700cfc8bf00cde8b700cdc8bf0061
:103fdc00cbe8b700d568ef00c2c3b3008040eb005c
:103fec0090ad280064f807000041eb00c1c3b3009a
:103ffc00005c280060f807000080fa000000060052
:10400c000000fa00c3c1b30092c1b30071c1b30088
:10401c0060c0b30001fa07000000fb00e20f500083
:10402c0003003200e30f500003003200060037009b
:10403c00660d0700040037001dcdbf0013e9b70063
:10404c001ecdbf0014e9b700c2c3b3008040eb0023
:10405c0050b1280048f807000041eb00c1c3b30081
:10406c00005c280044f807000080fa0000000600fd
:10407c000000fa0033c2b30042c1b30081c1b300e7
:10408c0060c0b300e5f907000000fb00e20f500030
:10409c0006003200e30f500006003200e10f500022
:1040ac0006003a00420d070004003700160d070009
:1040bc00020037001fcdbf003fe9b700c2c3b300f9
:1040cc008040eb00d0b428002bf807000041eb0037
:1040dc00c1c3b300505d280027f807000080fa0028
:1040ec00000006000000fa008041eb000041eb00ec
:1040fc008040eb000040eb00c8f907000000fb001b
:10410c00e10f500019003200e10f500003003c0099
:10411c000000e00006003200cc003700e20f500037
:10412c0066003200e30f5000a2003200c7003700d7
:10413c0082ccbf000040e90082ecb70082ccbf000b
:10414c000004e000bc003a0040c9bf000004e000dd
:10415c000300320010c0b30082ecb700bb00370084
:10416c0040c1b30000e8b700b800370082ccbf00f4
:10417c000000fb00e30f500022003200e30f500060
:10418c0005003c00e10f500008003200e20f500027
:10419c0011003200ad003700e40f50002a0032004d
:1041ac00e50f500039003200a800370083ccbf0067
:1041bc000000fb008000e800800120000001780076
:1041cc00110009008200d8008000fd00004078003a
:1041dc0083ecb7003800370084ccbf000000fb0034
:1041ec008000e800c00320000001780011000900e5
:1041fc008200d8008000fd000040780084ecb700fd
:10420c002d00370086ccbf000040e90086ecb700db
:10421c0086ccbf000000fb008000e800f00120000d
:10422c0000017800110009008200d8008000fd0018
:10423c000040780086ecb70086ccbf000040e80058
:10424c0086ecb7001c00370085ccbf000040e900ad
:10425c0085ecb70085ccbf000000fb008000e800b7
:10426c00c000200000017800110009008200d80075
:10427c008000fd000040780085ecb70085ccbf00c5
:10428c000040e80085ecb7000b00370087ccbf007e
:10429c000040e80087ecb70071c82000914078001e
:1042ac0030c6b30080cf500065003400e0c0b300ce
:1042bc0087ecb700650037006400370082ccbf0084
:1042cc000000fb00e30f50001e003200e30f500013
:1042dc0005003c00e10f500008003200e20f5000d6
:1042ec000f00320059003700e40f50001e0032005e
:1042fc00e50f5000250032005400370083ccbf007e
:10430c000040e90083ecb70083ccbf000004e00060
:10431c0002003d0070c1b30083ecb70024003700ed
:10432c0084ccbf000040e90084ecb70084ccbf0013
:10433c000004e00002003d00b0c3b30084ecb70001
:10434c001b00370086ccbf000040e90086ecb700ac
:10435c0086ccbf000004e00002003c00f0c1b300ba
:10436c0086ecb7001200370085ccbf000040e90096
:10437c0085ecb70085ccbf000004e00002003c00d7
:10438c00c0c0b30085ecb7000900370087ccbf0074
:10439c000040e90087ecb70087ccbf00ed4f500020
:1043ac0029003c0030c6b30087ecb700270037006b
:1043bc002600370082ccbf000040e80082ecb7003a
:1043cc0082ccbf00e64f500020003a0044c82000c9
:1043dc001442780033c820009341780062c8200052
:1043ec001241780051c820009140780087ccbf0062
:1043fc008042eb008a100700e14f50000b003a009e
:10440c00ea0a070040c9bf000004e00004003200c3
:10441c0080ccb30000e8b700650c07000b00370038
:10442c0040c1b30000e8b7000800370040c6b30035
:10443c0000e8b7000500370000000000030037005b
:10444c00000000000100370000000000c30e070050
:10445c0092c1b3008040eb0050b8280046f707002b
:10446c0022c1b30091c1b30080c8200042f70700fd
:10447c0012c1b300b1c2b30020c920003ef707003f
:10448c0082ccbf00e54f5000050032000041eb002c
:10449c00c1c3b30030b9280037f707000400370058
:1044ac000041eb00c1c3b300a05e280032f7070047
:1044bc000080fa00000006000000fa008041eb00ca
:1044cc000041eb008040eb0050c1b300d3f8070073
:1044dc000000fb00e20f50004a003200e30f5000d6
:1044ec0095003200e10f5000c4003a00c247800032
:1044fc00d34780004000200001002000800f5100b5
:10450c00818f590007003e00c0478000d1478000d2
:10451c0061004000e0804800c0478800d147880017
:10452c00b6003700c2478000d3478000100320003c
:10453c0001002000800f5100818f590007003e00c0
:10454c00c0478000d147800065004000e0804800f3
:10455c00c0478800d1478800a8003700c2478000b8
:10456c00d34780007038210001002000800f5100db
:10457c00818f590007003e00c0478000d147800062
:10458c002003b0000180b000c0478800d1478800ec
:10459c009a003700c2478000d3478000f070220099
:1045ac0001002000800f5100818f590007003e0050
:1045bc00c0478000d14780004006b0000180b000a9
:1045cc00c0478800d14788008c003700c247800064
:1045dc00d3478000e0cf270001002000800f51005e
:1045ec00818f590082003e00c0478000d147800077
:1045fc00a00fb0000180b000c0478800d1478800f0
:10460c007e003700c2478000d34780000071220033
:10461c0001002000800f5100818f590007003600e7
:10462c00c0478000d1478000a00fb1000180b100cd
:10463c00c0478800d147880035003700c24780004a
:10464c00d34780008038210001002000800f5100ea
:10465c00818f590007003600c0478000d147800089
:10466c004006b1000180b100c0478800d1478800e6
:10467c0027003700c2478000d3478000200320006a
:10468c0001002000800f5100818f59000700360077
:10469c00c0478000d14780002003b1000180b100e9
:1046ac00c0478800d147880019003700c2478000f6
:1046bc00d34780005000200001002000800f5100e3
:1046cc00818f590007003600c0478000d147800019
:1046dc0065005000e0805800c0478800d147880032
:1046ec000b003700c0478000d1478000e00f50001e
:1046fc00e08f580006003200c0478000d147800090
:10470c0061005000e0805800c0478800d147880005
:10471c00c2478000d347800000d027000100200052
:10472c00800f5100818f590033003600f828ef00bc
:10473c00fa28ef003100370000c0eb0028edb7007d
:10474c004247800053478000c0478000d14780001b
:10475c00800f5100818f59001c00310050c1b300f3
:10476c0000e8b700c0478000d14780006047880050
:10477c0071478800c0478000d1478000a04788005f
:10478c00b1478800a0478000b14780006309b90099
:10479c00020178006002b900840178000301410035
:1047ac00330020000300b8000101410082007800b2
:1047bc004e09dd004200de0000007100c208de0080
:1047cc0080478800914788000400370050c6b3002a
:1047dc0000e8b700b0c1b3001ce9b70000c0eb00a3
:1047ec0028edb700320b0700720a070003003700f0
:1047fc000000000001003700000000000041eb0049
:10480c008040eb0080ba28005bf60700c0478000b0
:10481c00d147800000007800a200200080007800c2
:10482c00c08a2000bfef0700b2cfb30061c1b30054
:10483c0051f6070012c2b300b1c1b300f0bb28009f
:10484c004df607000041eb00c1c3b300a05e280089
:10485c0049f607000080fa00000006000000fa008c
:10486c0083c1b3000041eb008040eb0080c1b3007a
:10487c00eaf707000000fb00e20f500016003200c0
:10488c00e30f500024003200e10f500029003a00e1
:10489c0014c9bf000004e00003003a00e0c1b300fb
:1048ac0014e9b700230037001469ef0013c9bf00e7
:1048bc000080fb008000e8008001200000017800ef
:1048cc00110009008200d8008000fd000040780033
:1048dc0013e9b7001700370014c9bf00fe4f500092
:1048ec0002003a001469ef0012003700e0c1b30077
:1048fc0014e9b70013c9bf000040e90013e9b70081
:10490c0013c9bf00f74f50000900360070c1b30047
:10491c0013e9b7000700370013c9bf001dedb7003e
:10492c0014c9bf001eedb700a10a07000100370033
:10493c000000000013c9bf008080fb00a000200015
:10494c0000017800110009008280d8000040780036
:10495c000043b00015e9b70013c9bf008080fb000d
:10496c00a000200000017800110009008280d8000e
:10497c008000fd00004078000043b00016e9b7004d
:10498c00a0c3b30017e9b70014c9bf000004e000ce
:10499c0003003a0000c3b30018e9b7000200370067
:1049ac0030c3b30018e9b70000c3b30019e9b7006e
:1049bc001a69ef00b2c1b3008040eb00b0bc280014
:1049cc00edf5070012c2b300b1c1b3005091200045
:1049dc00e9f507000041eb00c1c3b300a05e28005d
:1049ec00e5f507000080fa00000006000000fa0060
:1049fc00f3c1b300e2c1b300e1c1b30060c1b300c5
:104a0c0086f707000000fb00e30f500002003a009d
:104a1c0070688000104788000041eb008040eb007c
:104a2c00a0bd2800d4f507000ccdbf000004e000a9
:104a3c000b00340070688000a20020008000780019
:104a4c00c08a200037ef0700d2cfb30051c2b300a9
:104a5c00c9f5070010c0b3000cedb7000500370016
:104a6c000041eb0051c2b300a0852800c2f507003d
:104a7c000c6def000041eb0081c2b30000c02800b8
:104a8c00bdf50700c05f8000a20020008000780008
:104a9c00c08a200023ef0700d2cfb30091c3b3002c
:104aac00b5f507000041eb00c1c3b300005c280062
:104abc00b1f507000080fa00000006000000fa00c3
:104acc0003c2b300d2c1b300d1c1b30060c1b30003
:104adc0052f707000041eb008040eb0030c128008a
:104aec00a5f507000ccdbf00e14f50000b003a00bc
:104afc0070688000a200200080007800c08a20002e
:104b0c0008ef0700d2cfb30051c2b3009af50700eb
:104b1c0010c0b3000cedb700050037000041eb00ee
:104b2c0051c2b300a085280093f507000c6def006f
:104b3c000041eb0081c2b30090c328008ef5070042
:104b4c00c05f8000a200200080007800c08a200096
:104b5c00f4ee0700d2cfb30091c3b30086f5070083
:104b6c000041eb00c1c3b300005c280082f50700d4
:104b7c000080fa00000006000000fa00d3c1b30068
:104b8c000041eb008040eb00d0c1b30023f70700dd
:104b9c000000fb00e20f500014003200e30f500045
:104bac0021003200e10f500027003a000ccdbf006d
:104bbc000004e00005003a0010c0b3000cedb70093
:104bcc0020032000104788001f0037001147800089
:104bdc00503b2000808f500018003c001047800094
:104bec002003b00010478800170037000ccdbf0021
:104bfc000004e00013003200114780003006200052
:104c0c00808f500004003c000c6def00200320004e
:104c1c00104788000c003700104780002003b100bb
:104c2c001047880008003700104780007068880023
:104c3c00fa2bef00c2090700030037000000000048
:104c4c0001003700000000000041eb008040eb0049
:104c5c00b0c4280048f507000041eb0041c2b30086
:104c6c00e08d200044f507000ccdbf000004e000ef
:104c7c000b00340010478000a20020008000780058
:104c8c00c08a2000a7ee0700d2cfb30051c2b300f8
:104c9c0039f5070010c0b3000cedb7000500370064
:104cac000041eb0051c2b300a085280032f507008b
:104cbc000c6def000041eb0081c2b30000c728006f
:104ccc002df50700c05f8000a20020008000780056
:104cdc00c08a200093ee0700d2cfb30091c3b3007b
:104cec0025f507000041eb00c1c3b300a05e28000e
:104cfc0021f507000080fa00000006000000fa0011
:104d0c00e3c1b3000041eb008040eb00e0c1b30015
:104d1c00c2f607000000fb00e20f50000c0032004e
:104d2c00e30f500012003200e10f500018003a005f
:104d3c00c15f8000503b2000808f500011003c0070
:104d4c00c05f80002003b000c05f880010003700f7
:104d5c00c15f800030062000808f50000b003400b3
:104d6c00c05f80002003b100c05f880008003700de
:104d7c00c05f8000d05f880071090700fa2bef003c
:104d8c0003003700000000000100370000000000a5
:104d9c000041eb008040eb0030c12800f6f4070026
:104dac000ccdbf00e14f500009003a007068800044
:104dbc00a200200080007800c08a200059ee070075
:104dcc00d2cfb30051c2b300ebf40700050037009b
:104ddc000041eb0051c2b300a0852800e6f40700a7
:104dec000c6def000041eb0081c2b30020c828001d
:104dfc00e1f407000041eb0081c3b300e08d20001b
:104e0c00ddf40700c05f8000a20020008000780065
:104e1c00c08a200043ee0700d2cfb30091c3b30089
:104e2c00d5f407000041eb00c1c3b300a05e28001d
:104e3c00d1f407000080fa00000006000000fa0020
:104e4c008041eb000041eb008040eb0070c0b300f0
:104e5c0072f607000000fb00e20f50000700320062
:104e6c00e30f500007003200e10f500026003a001b
:104e7c0000c0eb001be9b700230037001b69ef00f3
:104e8c00210037001bc9bf000004e0000500320000
:104e9c00a0478000b1478000c0478800d1478800f8
:104eac00040037008047800091478000c04788008d
:104ebc00d14788004247800053478000c04780009c
:104ecc00d1478000800f5100818f590009003100bb
:104edc0070c0b30000e8b7001bc9bf0028edb700d5
:104eec00c0478000d1478000604788007147880028
:104efc000400370050c6b30000e8b70020c2b3006e
:104f0c001ce9b7006a0907000041eb008040eb0088
:104f1c0030c9280098f407001bc9bf000004e0004a
:104f2c00050032000041eb0071c1b300e08d2000a0
:104f3c0091f40700040037000041eb0071c1b3008d
:104f4c00b0ca28008cf407000041eb0081c1b3000b
:104f5c00d0ca280088f407001bc9bf000004e00079
:104f6c00050032000041eb00b1c2b300b0ca28000a
:104f7c0081f40700040037000041eb00b1c2b3001c
:104f8c00e08d20007cf407000041eb00c1c2b300af
:104f9c0010cc280078f407000080fa00000006000e
:104fac000000fa0093c1b3000041eb008040eb001d
:104fbc0090c1b30019f607000000fb00e20f50008f
:104fcc0007003200e30f500007003200e10f5000e1
:104fdc0008003a0000c0eb003fe9b70005003700bd
:104fec003f69ef00030037003fc9bf001fedb7005a
:104ffc000509070072c1b3008040eb0060ce2800a9
:10500c005df407003fc9bf000004e000050032005a
:10501c000041eb0071c1b300e08d200056f4070095
:10502c00040037000041eb0071c1b300b0ca280086
:10503c0051f4070032c1b30081c1b300a0cf2800e6
:10504c004df407003fc9bf000004e000050032002a
:10505c000041eb00b1c2b300b0ca280046f407000f
:10506c00040037000041eb00b1c2b300e08d20001a
:10507c0041f4070002c1b300c1c2b300a0852800ef
:10508c003df407000041eb00c1c3b300d0cf2800b2
:10509c0039f407000080fa00000006000000fa0056
:1050ac00a3c1b300a2c1b300a1c1b300a0c1b3009e
:1050bc00daf50700e14f40000300320082ccbf005c
:1050cc000040e90082ecb700c2c3b3008040eb00a3
:1050dc0020d1280028f4070042c1b300c1c3b3009b
:1050ec0070d2280024f407000080fa0000000600ab
:1050fc000000fa00c1912000914078001cc9bf004b
:10510c008041eb000041eb00c4f507000000fb0000
:10511c000080e900e10f50000f003e001cc9bf00e9
:10512c00fb4f500003003a0050c1b30000e8b70039
:10513c000400370070c0b30000e8b7001bc9bf0003
:10514c0028edb700c0478000d14780006047880039
:10515c0071478800170807000041eb008040eb0006
:10516c00e0d2280004f407000080fa0000000600da
:10517c000000fa00d6c8bf00e54f500057003e00b3
:10518c008041eb000041eb008040eb000040eb0065
:10519c00a2f507000000fb00e10f50001b003200dd
:1051ac00e10f500003003c000000e000060032005c
:1051bc006f003700e20f500025003200e30f500063
:1051cc00350032006a003700d6c8bf000080fb00f3
:1051dc000000400080007800a08c2000008040007f
:1051ec0011c3b30001487800d6c8bf000081fb0092
:1051fc00418c20008100410012c3b300824878002a
:10520c000040e800d6e8b70059003700d6c8bf0008
:10521c000080fb000000400080007800a08c200083
:10522c000080400021c3b30001487800d6c8bf00fd
:10523c000081fb00418c20008100410022c3b3009f
:10524c00824878000040e800d6e8b70048003700f4
:10525c00d6c8bf000080fb00000040008000780032
:10526c00a08c20000080400031c3b30001487800be
:10527c00d6c8bf000081fb00418c2000810041009a
:10528c0032c3b300824878000040e800d6e8b7008b
:10529c000000000036003700d6c8bf000080fb00bd
:1052ac000000400080007800a08c200000804000ae
:1052bc0041c3b30001487800d6c8bf000081fb0091
:1052cc00418c20008100410042c3b3008248780029
:1052dc000040e800d6e8b7002500370073c1b300e2
:1052ec000041eb008040eb000040eb004bf5070069
:1052fc000000fb00e20f500005003c00e10f5000e5
:10530c001a003d000000e0000400320018003700d5
:10531c00e30f50000600320015003700d668ef008e
:10532c00a18c2000709c2800590407001000370045
:10533c00c4c8bf0006edb700c5c8bf0007edb70075
:10534c00c6c8bf0008edb700c7c8bf0009edb7005d
:10535c00c8c8bf000aedb700c9c8bf000bedb70045
:10536c00e0070700d668ef000100370000000000de
:10537c00c2c2b3008040eb00f0d728007ef30700d8
:10538c0002c1b300c1c2b300a08c20007af30700a5
:10539c00d6c8bf00e54f500005003e0042c1b30027
:1053ac00c1c3b30030d9280073f3070004003700e1
:1053bc000041eb00c1c3b30080da28006ef3070094
:1053cc000080fa00000006000000fa0013c0b300d1
:1053dc000041eb008040eb0010c0b3000ff507005c
:1053ec000000fb000000e00003003200e30f50005f
:1053fc0002003a003d0807004069ef00e2c2b3002a
:10540c008040eb00d0db28005bf307001dcdbf0014
:10541c00e94f50000e003e000041eb00e1c2b3002a
:10542c00d0dd280054f307001dcdbf000080fb0029
:10543c00a20020008000780010ca2000b9ec070000
:10544c000041eb0001c3b3004bf307000d00370024
:10545c000041eb00e1c2b30000de280046f3070078
:10546c001dcdbf000080fb00a20020008000780052
:10547c0010ca2000abec07000041eb00f1c2b300f6
:10548c003df307000041eb0011c3b30020de280000
:10549c0039f307001ecdbf000004e0000500320008
:1054ac000041eb0021c3b30040de280032f30700bb
:1054bc00040037000041eb0021c3b30060de28007c
:1054cc002df307000041eb0031c3b30080de280050
:1054dc0029f307000080fa00000006000200fa0021
:1054ec001269ef00fcc8bf008000fb0050002000d8
:1054fc0000017800110009008200d80000407800fb
:10550c00104798000040eb00004f78001000370067
:10551c001e4090009e40780080cf50000600310065
:10552c009e80fb00e08f20000080400080c0eb00dc
:10553c0001487800050037009e80fb00e08f2000ba
:10554c0000804000f1c5b300014878001e4fe80010
:10555c001e407800f34f5000edff3600fcc8bf0032
:10556c00e44f500009003c00424780005347800044
:10557c006047800071478000800f5100818f590077
:10558c0002003100c0c7b300fee8b7000080fa008b
:10559c00000006000000fa0062478000734780009c
